{"contracts/kpepe-jackpot.sol":{"KPEPEJackpot":{"abi":[{"inputs":[],"stateMutability":"nonpayable","type":"constructor"},{"anonymous":false,"inputs":[{"indexed":false,"internalType":"uint8[5]","name":"nums","type":"uint8[5]"},{"indexed":false,"internalType":"uint8","name":"eb","type":"uint8"},{"indexed":false,"internalType":"uint256","name":"pool","type":"uint256"},{"indexed":false,"internalType":"uint256","name":"winners","type":"uint256"}],"name":"DrawCompleted","type":"event"},{"anonymous":false,"inputs":[{"indexed":false,"internalType":"uint256","name":"ts","type":"uint256"}],"name":"DrawStarted","type":"event"},{"anonymous":false,"inputs":[{"indexed":false,"internalType":"uint256","name":"amt","type":"uint256"}],"name":"PoolCapped","type":"event"},{"anonymous":false,"inputs":[{"indexed":false,"internalType":"address","name":"p","type":"address"},{"indexed":false,"internalType":"uint256","name":"amt","type":"uint256"}],"name":"PrizeClaimed","type":"event"},{"anonymous":false,"inputs":[{"indexed":false,"internalType":"address","name":"p","type":"address"},{"indexed":false,"internalType":"uint256","name":"id","type":"uint256"},{"indexed":false,"internalType":"uint8","name":"tier","type":"uint8"},{"indexed":false,"internalType":"uint256","name":"amt","type":"uint256"}],"name":"PrizeDistributed","type":"event"},{"anonymous":false,"inputs":[{"indexed":true,"internalType":"uint256","name":"id","type":"uint256"},{"indexed":true,"internalType":"address","name":"player","type":"address"},{"indexed":false,"internalType":"uint8[5]","name":"nums","type":"uint8[5]"},{"indexed":false,"internalType":"uint8","name":"eb","type":"uint8"}],"name":"TicketPurchased","type":"event"},{"anonymous":false,"inputs":[{"indexed":false,"internalType":"string","name":"walletType","type":"string"},{"indexed":false,"internalType":"address","name":"addr","type":"address"}],"name":"WalletUpdated","type":"event"},{"inputs":[],"name":"EIGHT_RANGE","outputs":[{"internalType":"uint8","name":"","type":"uint8"}],"stateMutability":"view","type":"function"},{"inputs":[],"name":"MAIN_COUNT","outputs":[{"internalType":"uint8","name":"","type":"uint8"}],"stateMutability":"view","type":"function"},{"inputs":[],"name":"MAIN_RANGE","outputs":[{"internalType":"uint8","name":"","type":"uint8"}],"stateMutability":"view","type":"function"},{"inputs":[],"name":"MAX_POOL","outputs":[{"internalType":"uint256","name":"","type":"uint256"}],"stateMutability":"view","type":"function"},{"inputs":[],"name":"POOL_RETENTION","outputs":[{"internalType":"uint16","name":"","type":"uint16"}],"stateMutability":"view","type":"function"},{"inputs":[],"name":"PRIZE_1_8B","outputs":[{"internalType":"uint16","name":"","type":"uint16"}],"stateMutability":"view","type":"function"},{"inputs":[],"name":"PRIZE_2_8B","outputs":[{"internalType":"uint16","name":"","type":"uint16"}],"stateMutability":"view","type":"function"},{"inputs":[],"name":"PRIZE_3","outputs":[{"internalType":"uint16","name":"","type":"uint16"}],"stateMutability":"view","type":"function"},{"inputs":[],"name":"PRIZE_3_8B","outputs":[{"internalType":"uint16","name":"","type":"uint16"}],"stateMutability":"view","type":"function"},{"inputs":[],"name":"PRIZE_4","outputs":[{"internalType":"uint16","name":"","type":"uint16"}],"stateMutability":"view","type":"function"},{"inputs":[],"name":"PRIZE_4_8B","outputs":[{"internalType":"uint16","name":"","type":"uint16"}],"stateMutability":"view","type":"function"},{"inputs":[],"name":"PRIZE_8B_ONLY","outputs":[{"internalType":"uint16","name":"","type":"uint16"}],"stateMutability":"view","type":"function"},{"inputs":[],"name":"PRIZE_JACKPOT","outputs":[{"internalType":"uint16","name":"","type":"uint16"}],"stateMutability":"view","type":"function"},{"inputs":[],"name":"PRIZE_MATCH5","outputs":[{"internalType":"uint16","name":"","type":"uint16"}],"stateMutability":"view","type":"function"},{"inputs":[],"name":"TICKET_PRICE","outputs":[{"internalType":"uint256","name":"","type":"uint256"}],"stateMutability":"view","type":"function"},{"inputs":[{"internalType":"uint8[5]","name":"nums","type":"uint8[5]"},{"internalType":"uint8","name":"eb","type":"uint8"}],"name":"buyTicket","outputs":[],"stateMutability":"payable","type":"function"},{"inputs":[{"internalType":"uint256","name":"id","type":"uint256"}],"name":"checkTicketResult","outputs":[{"internalType":"uint8","name":"tier","type":"uint8"},{"internalType":"uint256","name":"prize","type":"uint256"}],"stateMutability":"view","type":"function"},{"inputs":[],"name":"claimKPEPEPrize","outputs":[],"stateMutability":"nonpayable","type":"function"},{"inputs":[{"internalType":"uint256","name":"id","type":"uint256"}],"name":"claimPrize","outputs":[],"stateMutability":"nonpayable","type":"function"},{"inputs":[],"name":"completeDraw","outputs":[],"stateMutability":"nonpayable","type":"function"},{"inputs":[],"name":"drawInProgress","outputs":[{"internalType":"bool","name":"","type":"bool"}],"stateMutability":"view","type":"function"},{"inputs":[],"name":"emergencyWithdrawKLV","outputs":[],"stateMutability":"nonpayable","type":"function"},{"inputs":[{"internalType":"address","name":"a","type":"address"}],"name":"getPendingKPEPE","outputs":[{"internalType":"uint256","name":"","type":"uint256"}],"stateMutability":"view","type":"function"},{"inputs":[{"internalType":"address","name":"a","type":"address"}],"name":"getPlayerTickets","outputs":[{"internalType":"uint256[]","name":"","type":"uint256[]"}],"stateMutability":"view","type":"function"},{"inputs":[],"name":"getPoolBalance","outputs":[{"internalType":"uint256","name":"","type":"uint256"}],"stateMutability":"view","type":"function"},{"inputs":[{"internalType":"uint256","name":"id","type":"uint256"}],"name":"getTicket","outputs":[{"internalType":"address","name":"","type":"address"},{"internalType":"uint8[5]","name":"","type":"uint8[5]"},{"internalType":"uint8","name":"","type":"uint8"},{"internalType":"uint256","name":"","type":"uint256"},{"internalType":"bool","name":"","type":"bool"},{"internalType":"bool","name":"","type":"bool"}],"stateMutability":"view","type":"function"},{"inputs":[{"internalType":"address","name":"pw","type":"address"},{"internalType":"address","name":"ppw","type":"address"}],"name":"initializeWallets","outputs":[],"stateMutability":"nonpayable","type":"function"},{"inputs":[],"name":"kpepeJackpotPrize","outputs":[{"internalType":"uint256","name":"","type":"uint256"}],"stateMutability":"view","type":"function"},{"inputs":[],"name":"kpepeMatch18BPrize","outputs":[{"internalType":"uint256","name":"","type":"uint256"}],"stateMutability":"view","type":"function"},{"inputs":[],"name":"kpepeMatch28BPrize","outputs":[{"internalType":"uint256","name":"","type":"uint256"}],"stateMutability":"view","type":"function"},{"inputs":[],"name":"kpepeMatch38BPrize","outputs":[{"internalType":"uint256","name":"","type":"uint256"}],"stateMutability":"view","type":"function"},{"inputs":[],"name":"kpepeMatch3Prize","outputs":[{"internalType":"uint256","name":"","type":"uint256"}],"stateMutability":"view","type":"function"},{"inputs":[],"name":"kpepeMatch48BPrize","outputs":[{"internalType":"uint256","name":"","type":"uint256"}],"stateMutability":"view","type":"function"},{"inputs":[],"name":"kpepeMatch4Prize","outputs":[{"internalType":"uint256","name":"","type":"uint256"}],"stateMutability":"view","type":"function"},{"inputs":[],"name":"kpepeMatch5Prize","outputs":[{"internalType":"uint256","name":"","type":"uint256"}],"stateMutability":"view","type":"function"},{"inputs":[],"name":"kpepeMatch8BOnlyPrize","outputs":[{"internalType":"uint256","name":"","type":"uint256"}],"stateMutability":"view","type":"function"},{"inputs":[{"internalType":"address","name":"","type":"address"}],"name":"kpepePrizesPending","outputs":[{"internalType":"uint256","name":"","type":"uint256"}],"stateMutability":"view","type":"function"},{"inputs":[],"name":"kpepeToken","outputs":[{"internalType":"address","name":"","type":"address"}],"stateMutability":"view","type":"function"},{"inputs":[],"name":"lastDrawTime","outputs":[{"internalType":"uint256","name":"","type":"uint256"}],"stateMutability":"view","type":"function"},{"inputs":[],"name":"owner","outputs":[{"internalType":"address","name":"","type":"address"}],"stateMutability":"view","type":"function"},{"inputs":[{"internalType":"address","name":"","type":"address"},{"internalType":"uint256","name":"","type":"uint256"}],"name":"playerTicketIds","outputs":[{"internalType":"uint256","name":"","type":"uint256"}],"stateMutability":"view","type":"function"},{"inputs":[],"name":"prizePool","outputs":[{"internalType":"uint256","name":"","type":"uint256"}],"stateMutability":"view","type":"function"},{"inputs":[],"name":"prizePoolWallet","outputs":[{"internalType":"address","name":"","type":"address"}],"stateMutability":"view","type":"function"},{"inputs":[],"name":"projectWallet","outputs":[{"internalType":"address","name":"","type":"address"}],"stateMutability":"view","type":"function"},{"inputs":[],"name":"quickPick","outputs":[],"stateMutability":"payable","type":"function"},{"inputs":[],"name":"roundActive","outputs":[{"internalType":"bool","name":"","type":"bool"}],"stateMutability":"view","type":"function"},{"inputs":[{"internalType":"uint256","name":"j","type":"uint256"},{"internalType":"uint256","name":"m5","type":"uint256"},{"internalType":"uint256","name":"m48","type":"uint256"},{"internalType":"uint256","name":"m4","type":"uint256"},{"internalType":"uint256","name":"m38","type":"uint256"},{"internalType":"uint256","name":"m3","type":"uint256"},{"internalType":"uint256","name":"m28","type":"uint256"},{"internalType":"uint256","name":"m18","type":"uint256"},{"internalType":"uint256","name":"m8","type":"uint256"}],"name":"setKPEPEPrizes","outputs":[],"stateMutability":"nonpayable","type":"function"},{"inputs":[{"internalType":"address","name":"t","type":"address"}],"name":"setKPEPEToken","outputs":[],"stateMutability":"nonpayable","type":"function"},{"inputs":[{"internalType":"address","name":"w","type":"address"}],"name":"setPrizePoolWallet","outputs":[],"stateMutability":"nonpayable","type":"function"},{"inputs":[{"internalType":"address","name":"w","type":"address"}],"name":"setProjectWallet","outputs":[],"stateMutability":"nonpayable","type":"function"},{"inputs":[],"name":"startDraw","outputs":[],"stateMutability":"nonpayable","type":"function"},{"inputs":[{"internalType":"uint256","name":"","type":"uint256"}],"name":"tickets","outputs":[{"internalType":"address","name":"player","type":"address"},{"internalType":"uint8","name":"eightBall","type":"uint8"},{"internalType":"uint256","name":"purchaseTime","type":"uint256"},{"internalType":"bool","name":"hasWon","type":"bool"},{"internalType":"bool","name":"prizeClaimed","type":"bool"}],"stateMutability":"view","type":"function"},{"inputs":[],"name":"toggleRound","outputs":[],"stateMutability":"nonpayable","type":"function"},{"inputs":[],"name":"totalTicketsSold","outputs":[{"internalType":"uint256","name":"","type":"uint256"}],"stateMutability":"view","type":"function"},{"inputs":[],"name":"winningEightBall","outputs":[{"internalType":"uint8","name":"","type":"uint8"}],"stateMutability":"view","type":"function"},{"inputs":[{"internalType":"uint256","name":"","type":"uint256"}],"name":"winningNumbers","outputs":[{"internalType":"uint8","name":"","type":"uint8"}],"stateMutability":"view","type":"function"},{"inputs":[{"internalType":"uint256","name":"amt","type":"uint256"}],"name":"withdrawPrizePool","outputs":[],"stateMutability":"nonpayable","type":"function"},{"stateMutability":"payable","type":"receive"}],"evm":{"bytecode":{"linkReferences":{},"object":"608060405234801561001057600080fd5b50600080546001600160a01b031916331790556007805461ff00191661010017905542600655612ef4806100456000396000f3fe60806040526004361061037a5760003560e01c80636e12c8f5116101d15780638f7903dd11610102578063beb08ab9116100a0578063e13539681161006f578063e1353968146109b9578063e339908c146109cf578063f02edbaf146109e5578063fb060cec14610a0557600080fd5b8063beb08ab914610943578063bfa8420114610963578063c0e1353414610983578063d70981541461099957600080fd5b80639e649db8116100dc5780639e649db8146108e9578063a9509b0a14610903578063abd70aa214610919578063ad10b4b41461092e57600080fd5b80638f7903dd1461089d578063970e72af146108b35780639e57a947146108d357600080fd5b806385aecc681161016f5780638bbaf508116101495780638bbaf5081461083d5780638d33a3f2146108525780638d9de401146108675780638da5cb5b1461087d57600080fd5b806385aecc68146107e7578063864c407c146107fd5780638a7804471461081d57600080fd5b8063719ce73e116101ab578063719ce73e1461076f5780637774dbbd146107855780637dc379fa1461079b5780637fdf45b1146107cd57600080fd5b80636e12c8f51461070f5780636f586e7b1461073c57806370e4a54f1461074f57600080fd5b80632ae168a6116102ab5780634e41ef5a11610249578063566113541161022357806356611354146106955780635b4a4b55146106ce5780635cbbd635146106e45780636a821ae7146106fa57600080fd5b80634e41ef5a146106075780634e45f0951461061d57806350b447121461063d57600080fd5b806334701db81161028557806334701db8146105b157806344ec62d3146105c757806348b1cf90146105dd5780634b272e21146105f257600080fd5b80632ae168a61461056c5780632c3c91c914610581578063320b3aae1461059b57600080fd5b806319afe17c1161031857806320540dea116102f257806320540dea146104d157806321793ea5146104e7578063232fbda11461051f578063234131981461053f57600080fd5b806319afe17c146104895780631a0894f1146104b05780631a95f15f146104b857600080fd5b80630b17abf6116103545780630b17abf6146104055780630bdeecbd146104495780630c76119a1461045e5780630d89f6981461047457600080fd5b8063027471b01461038657806304216ef9146103ba57806305e1b115146103e357600080fd5b3661038157005b600080fd5b34801561039257600080fd5b506007546103a590610100900460ff1681565b60405190151581526020015b60405180910390f35b3480156103c657600080fd5b506103d06107b781565b60405161ffff90911681526020016103b1565b3480156103ef57600080fd5b506104036103fe3660046129f2565b610a1b565b005b34801561041157600080fd5b5061043b610420366004612a27565b6001600160a01b031660009081526008602052604090205490565b6040519081526020016103b1565b34801561045557600080fd5b50610403610b6a565b34801561046a57600080fd5b506103d06101c281565b34801561048057600080fd5b50610403610f42565b34801561049557600080fd5b5061049e601481565b60405160ff90911681526020016103b1565b6104036110c5565b3480156104c457600080fd5b5061043b6402540be40081565b3480156104dd57600080fd5b506103d0610fa081565b3480156104f357600080fd5b50600354610507906001600160a01b031681565b6040516001600160a01b0390911681526020016103b1565b34801561052b57600080fd5b5061040361053a366004612a27565b611281565b34801561054b57600080fd5b5061055f61055a366004612a27565b6112f7565b6040516103b19190612a42565b34801561057857600080fd5b50610403611363565b34801561058d57600080fd5b5061043b655af3107a400081565b3480156105a757600080fd5b506103d061012c81565b3480156105bd57600080fd5b5061043b60055481565b3480156105d357600080fd5b506103d06105dc81565b3480156105e957600080fd5b506103d0607d81565b3480156105fe57600080fd5b506103d0609681565b34801561061357600080fd5b5061043b600d5481565b34801561062957600080fd5b5061049e6106383660046129f2565b611449565b34801561064957600080fd5b5061065d6106583660046129f2565b611473565b604080516001600160a01b03909616865260ff909416602086015292840191909152151560608301521515608082015260a0016103b1565b3480156106a157600080fd5b506106b56106b03660046129f2565b6114c7565b6040805160ff90931683526020830191909152016103b1565b3480156106da57600080fd5b5061043b60105481565b3480156106f057600080fd5b5061043b60065481565b34801561070657600080fd5b5061049e600581565b34801561071b57600080fd5b5061043b61072a366004612a27565b60086020526000908152604090205481565b61040361074a366004612aad565b611645565b34801561075b57600080fd5b5061040361076a366004612b41565b611afa565b34801561077b57600080fd5b5061043b60045481565b34801561079157600080fd5b5061043b600f5481565b3480156107a757600080fd5b506107bb6107b63660046129f2565b611c0b565b6040516103b196959493929190612b9a565b3480156107d957600080fd5b50600c5461049e9060ff1681565b3480156107f357600080fd5b5061043b60125481565b34801561080957600080fd5b5061043b610818366004612be3565b611cfc565b34801561082957600080fd5b50610403610838366004612a27565b611d2d565b34801561084957600080fd5b5061049e603281565b34801561085e57600080fd5b50610403611da3565b34801561087357600080fd5b5061043b60145481565b34801561088957600080fd5b50600054610507906001600160a01b031681565b3480156108a957600080fd5b5061043b60135481565b3480156108bf57600080fd5b506104036108ce366004612a27565b611e8a565b3480156108df57600080fd5b506103d061025881565b3480156108f557600080fd5b506007546103a59060ff1681565b34801561090f57600080fd5b5061043b60115481565b34801561092557600080fd5b5060045461043b565b34801561093a57600080fd5b50610403611ee9565b34801561094f57600080fd5b50600154610507906001600160a01b031681565b34801561096f57600080fd5b5061040361097e366004612c0d565b611f30565b34801561098f57600080fd5b5061043b60155481565b3480156109a557600080fd5b506104036109b43660046129f2565b611f83565b3480156109c557600080fd5b506103d06101f481565b3480156109db57600080fd5b5061043b600e5481565b3480156109f157600080fd5b50600254610507906001600160a01b031681565b348015610a1157600080fd5b506103d061032081565b6000546001600160a01b03163314610a4e5760405162461bcd60e51b8152600401610a4590612c6c565b60405180910390fd5b600454811115610a8b5760405162461bcd60e51b81526020600482015260086024820152672162616c616e636560c01b6044820152606401610a45565b6002546001600160a01b0316610acd5760405162461bcd60e51b8152602060048201526007602482015266085dd85b1b195d60ca1b6044820152606401610a45565b600a600454610adc9190612cb8565b811115610b155760405162461bcd60e51b81526020600482015260076024820152666d61782031302560c81b6044820152606401610a45565b8060046000828254610b279190612ccc565b90915550506002546040516001600160a01b039091169082156108fc029083906000818181858888f19350505050158015610b66573d6000803e3d6000fd5b5050565b6000546001600160a01b03163314610b945760405162461bcd60e51b8152600401610a4590612c6c565b600c54610100900460ff1615610bd95760405162461bcd60e51b815260206004820152600a6024820152697265656e7472616e637960b01b6044820152606401610a45565b600c805461ff00191661010017905560075460ff16610c225760405162461bcd60e51b8152602060048201526005602482015264216472617760d81b6044820152606401610a45565b600954610c5c5760405162461bcd60e51b8152602060048201526008602482015267217469636b65747360c01b6044820152606401610a45565b6000610c69600143612ccc565b60095460045460408051934060208501524290840152606080840192909252608083015233901b6bffffffffffffffffffffffff191660a082015260b401604051602081830303815290604052805190602001209050610cc761290d565b60005b600560ff82161015610dbf5760005b604051603290610d05908690859060200191825260f81b6001600160f81b031916602082015260210190565b6040516020818303038152906040528051906020012060001c610d289190612ce5565b610d33906001612cf9565b9050828160ff1660338110610d4a57610d4a612d12565b6020020151610cd9576001838260ff1660338110610d6a57610d6a612d12565b9115156020909202015280600b60ff841660058110610d8b57610d8b612d12565b602091828204019190066101000a81548160ff021916908360ff160217905550508080610db790612d28565b915050610cca565b506040805160a0810191829052610e1391600b90600590826000855b825461010083900a900460ff16815260206001928301818104948501949093039092029101808411610ddb5790505050505050612213565b604080516020808201859052601960fa1b828401528251602181840301815260419092019092528051910120610e4b90601490612ce5565b610e56906001612cf9565b600c805460ff191660ff929092169190911790556000610e74612326565b90506127106107b761ffff16600454610e8d9190612d47565b610e979190612cb8565b60048190556007805460ff1916905542600655600c5460408051600b5460ff8181168352600882901c8116602080850191909152601083901c821694840194909452601882901c81166060840152921c82166080820152911660a082015260c081019190915260e081018290527f66b82fff7433c0384d24698c2f596f1c62dd755c20531009ac86c6fbf955960c906101000160405180910390a15050600c805461ff001916905550565b3360009081526008602052604090205480610f8a5760405162461bcd60e51b81526020600482015260086024820152672170656e64696e6760c01b6044820152606401610a45565b6003546001600160a01b0316610fcb5760405162461bcd60e51b815260206004820152600660248201526510ba37b5b2b760d11b6044820152606401610a45565b3360008181526008602052604080822091909155600354905163a9059cbb60e01b81526004810192909252602482018390526001600160a01b03169063a9059cbb906044016020604051808303816000875af115801561102f573d6000803e3d6000fd5b505050506040513d601f19601f820116820180604052508101906110539190612d5e565b6110885760405162461bcd60e51b8152600401610a459060208082526004908201526319985a5b60e21b604082015260600190565b60408051338152602081018390527f95681e512bc0fe659e195e06c283eada494316f3d801213e48e7101af92bf77091015b60405180910390a150565b600754610100900460ff166110ec5760405162461bcd60e51b8152600401610a4590612d80565b6402540be400341461112b5760405162461bcd60e51b8152602060048201526008602482015267109898181025a62b60c11b6044820152606401610a45565b6000611138600143612ccc565b40905061114361292c565b61114b61290d565b60005b600560ff8216101561121a5760005b60405160329061117590879033908690602001612da1565b6040516020818303038152906040528051906020012060001c6111989190612ce5565b6111a3906001612cf9565b9050828160ff16603381106111ba576111ba612d12565b602002015161115d576001838260ff16603381106111da576111da612d12565b91151560209092020152808460ff8416600581106111fa576111fa612d12565b60ff9092166020929092020152508061121281612d28565b91505061114e565b5061122482612213565b6000601460ff168433606460405160200161124193929190612da1565b6040516020818303038152906040528051906020012060001c6112649190612ce5565b61126f906001612cf9565b905061127b8382611645565b50505050565b6000546001600160a01b031633146112ab5760405162461bcd60e51b8152600401610a4590612c6c565b6001600160a01b0381166112be57600080fd5b600280546001600160a01b0319166001600160a01b038316179055604051600080516020612e9f833981519152906110ba908390612dd6565b6001600160a01b0381166000908152600a602090815260409182902080548351818402810184019094528084526060939283018282801561135757602002820191906000526020600020905b815481526020019060010190808311611343575b50505050509050919050565b60075460ff161561139f5760405162461bcd60e51b8152600401610a45906020808252600490820152636472617760e01b604082015260600190565b600754610100900460ff166113c65760405162461bcd60e51b8152600401610a4590612d80565b6009546114005760405162461bcd60e51b8152602060048201526008602482015267217469636b65747360c01b6044820152606401610a45565b6007805460ff191660011790556040517fe4873708e4fc11619230dd3506a5f7cb96ece9d6d7b1c2ea9e7c46dac3f10baa9061143f9042815260200190565b60405180910390a1565b600b816005811061145957600080fd5b60209182820401919006915054906101000a900460ff1681565b6009818154811061148357600080fd5b600091825260209091206005909102018054600282015460038301546004909301546001600160a01b03909216935060ff9081169291808216916101009091041685565b600954600090819083106114ed5760405162461bcd60e51b8152600401610a4590612e05565b336001600160a01b03166009848154811061150a5761150a612d12565b60009182526020909120600590910201546001600160a01b03161461155a5760405162461bcd60e51b815260206004820152600660248201526521796f75727360d01b6044820152606401610a45565b6116296009848154811061157057611570612d12565b600091825260208083206040805160c081018252600594850290920180546001600160a01b03168352815160a08101928390529295909493860193600186019290918390855b825461010083900a900460ff168152602060019283018181049485019490930390920291018084116115b657505050928452505050600282015460ff90811660208301526003830154604083015260049092015480831615156060830152610100900490911615156080909101526125c3565b915060ff8216156116405761163d82612774565b90505b915091565b600754610100900460ff1661166c5760405162461bcd60e51b8152600401610a4590612d80565b6402540be40034146116ab5760405162461bcd60e51b8152602060048201526008602482015267109898181025a62b60c11b6044820152606401610a45565b60018160ff16101580156116c35750601460ff821611155b6116f95760405162461bcd60e51b81526020600482015260076024820152660384220312d32360cc1b6044820152606401610a45565b60005b600560ff82161015611838576001838260ff166005811061171f5761171f612d12565b602002015160ff1610158015611752575060328360ff83166005811061174757611747612d12565b602002015160ff1611155b61178a5760405162461bcd60e51b815260206004820152600960248201526806e756d7320312d35360bc1b6044820152606401610a45565b6000611797826001612cf9565b90505b600560ff8216101561182557838160ff16600581106117bb576117bb612d12565b602002015160ff16848360ff16600581106117d8576117d8612d12565b602002015160ff16036118135760405162461bcd60e51b815260206004820152600360248201526206475760ec1b6044820152606401610a45565b8061181d81612d28565b91505061179a565b508061183081612d28565b9150506116fc565b506000606461184d6402540be4006055612d47565b6118579190612cb8565b9050600061186a826402540be400612ccc565b9050655af3107a4000826004546118819190612e22565b11156118ed5760045461189a90655af3107a4000612ccc565b91506118ab826402540be400612ccc565b90507f9ebe77ef57c4b24da4f1b5881d7d109547fe072871dfb6e7c4d8454c95c0f643655af3107a40006040516118e491815260200190565b60405180910390a15b81600460008282546118ff9190612e22565b9091555050801580159061191d57506001546001600160a01b031615155b1561195e576001546040516001600160a01b039091169082156108fc029083906000818181858888f1935050505015801561195c573d6000803e3d6000fd5b505b6040805160c0810182523381526020810186815260ff86169282019290925242606082015260006080820181905260a0820181905260098054600181018255915281517f6e1540171b6c0c960b71a7020d9f60077f6af931a8bbf590da0223dacf75c7af600580840291820180546001600160a01b0319166001600160a01b039094169390931783559451939492938593611a1c927f6e1540171b6c0c960b71a7020d9f60077f6af931a8bbf590da0223dacf75c7b001919061294a565b5060408281015160028301805460ff191660ff9092169190911790556060830151600383015560808301516004909201805460a09094015161ffff1990941692151561ff0019169290921761010093151593909302929092179055336000908152600a602090815291812080546001810182559082529181209091018290556005805491611aa983612e35565b9190505550336001600160a01b0316817f2c4d767fb254c16f6c6241687eaec37c0a8fd02886810fb0eb4ecd3ce40f5f658888604051611aea929190612e4e565b60405180910390a3505050505050565b6000546001600160a01b03163314611b245760405162461bcd60e51b8152600401610a4590612c6c565b6001546001600160a01b031615611b635760405162461bcd60e51b81526020600482015260036024820152621cd95d60ea1b6044820152606401610a45565b6001600160a01b03821615801590611b8357506001600160a01b03811615155b611b8c57600080fd5b600180546001600160a01b038085166001600160a01b0319928316179092556002805492841692909116919091179055604051600080516020612e9f83398151915290611bda908490612e6c565b60405180910390a1600080516020612e9f83398151915281604051611bff9190612dd6565b60405180910390a15050565b6000611c1561292c565b6000806000806009805490508710611c3f5760405162461bcd60e51b8152600401610a4590612e05565b600060098881548110611c5457611c54612d12565b60009182526020822060059182020180546002820154600383015460048401546040805160a08101918290529598506001600160a01b0390941696600189019660ff94851696939585841695610100909404909316939288928390855b825461010083900a900460ff16815260206001928301818104948501949093039092029101808411611cb1579050505050505094509650965096509650965096505091939550919395565b600a6020528160005260406000208181548110611d1857600080fd5b90600052602060002001600091509150505481565b6000546001600160a01b03163314611d575760405162461bcd60e51b8152600401610a4590612c6c565b6001600160a01b038116611d6a57600080fd5b600180546001600160a01b0319166001600160a01b038316179055604051600080516020612e9f833981519152906110ba908390612e6c565b6000546001600160a01b03163314611dcd5760405162461bcd60e51b8152600401610a4590612c6c565b655af3107a400060045411611e0d5760405162461bcd60e51b8152600401610a45906020808252600490820152630216361760e41b604082015260600190565b6000655af3107a4000600454611e239190612ccc565b655af3107a400060045590508015801590611e4857506002546001600160a01b031615155b15611e87576002546040516001600160a01b039091169082156108fc029083906000818181858888f19350505050158015610b66573d6000803e3d6000fd5b50565b6000546001600160a01b03163314611eb45760405162461bcd60e51b8152600401610a4590612c6c565b6001600160a01b038116611ec757600080fd5b600380546001600160a01b0319166001600160a01b0392909216919091179055565b6000546001600160a01b03163314611f135760405162461bcd60e51b8152600401610a4590612c6c565b6007805461ff001981166101009182900460ff1615909102179055565b6000546001600160a01b03163314611f5a5760405162461bcd60e51b8152600401610a4590612c6c565b600d98909855600e96909655600f94909455601092909255601155601255601355601455601555565b6009548110611fa45760405162461bcd60e51b8152600401610a4590612e05565b600060098281548110611fb957611fb9612d12565b6000918252602090912060059091020180549091506001600160a01b0316331461200e5760405162461bcd60e51b815260206004820152600660248201526521796f75727360d01b6044820152606401610a45565b600481015460ff1661204b5760405162461bcd60e51b8152600401610a459060208082526004908201526310bbb7b760e11b604082015260600190565b6004810154610100900460ff161561208f5760405162461bcd60e51b815260206004820152600760248201526618db185a5b595960ca1b6044820152606401610a45565b6040805160c08101825282546001600160a01b03168152815160a08101928390526001808501805460ff168352600094612126949387936020808701949293600592909184919086018084116115b657505050928452505050600282015460ff90811660208301526003830154604083015260049092015480831615156060830152610100900490911615156080909101526125c3565b9050600061213382612774565b905060008111801561214757506004548111155b61217c5760405162461bcd60e51b8152602060048201526006602482015265217072697a6560d01b6044820152606401610a45565b6004808401805461ff00191661010017905580548291906000906121a1908490612ccc565b9091555050604051339082156108fc029083906000818181858888f193505050501580156121d3573d6000803e3d6000fd5b5060408051338152602081018390527f95681e512bc0fe659e195e06c283eada494316f3d801213e48e7101af92bf770910160405180910390a150505050565b60005b60058160ff161015610b6657600061222f826001612cf9565b90505b60058160ff16101561231357828160ff166005811061225357612253612d12565b602002015160ff16838360ff166005811061227057612270612d12565b602002015160ff161115612301576000838360ff166005811061229557612295612d12565b60200201519050838260ff16600581106122b1576122b1612d12565b6020020151848460ff16600581106122cb576122cb612d12565b602002019060ff16908160ff168152505080848360ff16600581106122f2576122f2612d12565b60ff9092166020929092020152505b8061230b81612d28565b915050612232565b508061231e81612d28565b915050612216565b600080805b6009548110156125bd576009818154811061234857612348612d12565b906000526020600020906005020160040160019054906101000a900460ff166125ab5760006123836009838154811061157057611570612d12565b905060ff8116156125a957600061239982612774565b90506000811180156123ad57506004548111155b156125a7576001600984815481106123c7576123c7612d12565b906000526020600020906005020160040160006101000a81548160ff02191690831515021790555060016009848154811061240457612404612d12565b906000526020600020906005020160040160016101000a81548160ff021916908315150217905550806004600082825461243e9190612ccc565b9091555084905061244e81612e35565b9450506009838154811061246457612464612d12565b600091825260208220600590910201546040516001600160a01b039091169183156108fc02918491818181858888f193505050501580156124a9573d6000803e3d6000fd5b5060006124b583612858565b90506000811180156124d157506003546001600160a01b031615155b1561252d578060086000600987815481106124ee576124ee612d12565b600091825260208083206005909202909101546001600160a01b0316835282019290925260400181208054909190612527908490612e22565b90915550505b7f0e53871c02df76033909299b24b6c5050eb30b7ba0a7736dd72375c1fe844ebe6009858154811061256157612561612d12565b60009182526020918290206005919091020154604080516001600160a01b03909216825291810187905260ff8616818301526060810185905290519081900360800190a1505b505b505b806125b581612e35565b91505061232b565b50919050565b600080805b600560ff8216101561266f5760005b600560ff8216101561265c57600b8160ff16600581106125f9576125f9612d12565b602091828204019190069054906101000a900460ff1660ff1685602001518360ff166005811061262b5761262b612d12565b602002015160ff160361264a578261264281612d28565b93505061265c565b8061265481612d28565b9150506125d7565b508061266781612d28565b9150506125c8565b50600c54604084015160ff9182169082161490821660051480156126905750805b1561269f575060019392505050565b8160ff166005036126b4575060029392505050565b8160ff1660041480156126c45750805b156126d3575060039392505050565b8160ff166004036126e8575060049392505050565b8160ff1660031480156126f85750805b15612707575060059392505050565b8160ff1660030361271c575060069392505050565b8160ff16600214801561272c5750805b1561273b575060079392505050565b8160ff16600114801561274b5750805b1561275a575060089392505050565b801561276a575060099392505050565b5060009392505050565b6000808260ff1660010361278b5750610fa0612832565b8260ff1660020361279f57506105dc612832565b8260ff166003036127b35750610320612832565b8260ff166004036127c757506101f4612832565b8260ff166005036127db5750610258612832565b8260ff166006036127ef57506101c2612832565b8260ff16600703612803575061012c612832565b8260ff1660080361281657506096612832565b8260ff166009036128295750607d612832565b50600092915050565b6127108161ffff166004546128479190612d47565b6128519190612cb8565b9392505050565b60008160ff1660010361286d575050600d5490565b8160ff16600203612880575050600e5490565b8160ff16600303612893575050600f5490565b8160ff166004036128a657505060105490565b8160ff166005036128b957505060115490565b8160ff166006036128cc57505060125490565b8160ff166007036128df57505060135490565b8160ff166008036128f257505060145490565b8160ff1660090361290557505060155490565b506000919050565b6040518061066001604052806033906020820280368337509192915050565b6040518060a001604052806005906020820280368337509192915050565b6001830191839082156129cd5791602002820160005b8382111561299e57835183826101000a81548160ff021916908360ff1602179055509260200192600101602081600001049283019260010302612960565b80156129cb5782816101000a81549060ff021916905560010160208160000104928301926001030261299e565b505b506129d99291506129dd565b5090565b5b808211156129d957600081556001016129de565b600060208284031215612a0457600080fd5b5035919050565b80356001600160a01b0381168114612a2257600080fd5b919050565b600060208284031215612a3957600080fd5b61285182612a0b565b6020808252825182820181905260009190848201906040850190845b81811015612a7a57835183529284019291840191600101612a5e565b50909695505050505050565b634e487b7160e01b600052604160045260246000fd5b803560ff81168114612a2257600080fd5b60008060c08385031215612ac057600080fd5b83601f840112612acf57600080fd5b60405160a0810181811067ffffffffffffffff82111715612af257612af2612a86565b6040528060a0850186811115612b0757600080fd5b855b81811015612b2857612b1a81612a9c565b835260209283019201612b09565b50829450612b3581612a9c565b93505050509250929050565b60008060408385031215612b5457600080fd5b612b5d83612a0b565b9150612b6b60208401612a0b565b90509250929050565b8060005b600581101561127b57815160ff16845260209384019390910190600101612b78565b6001600160a01b03871681526101408101612bb86020830188612b74565b60ff9590951660c082015260e081019390935290151561010083015215156101209091015292915050565b60008060408385031215612bf657600080fd5b612bff83612a0b565b946020939093013593505050565b60008060008060008060008060006101208a8c031215612c2c57600080fd5b505087359960208901359950604089013598606081013598506080810135975060a0810135965060c0810135955060e08101359450610100013592509050565b60208082526006908201526510b7bbb732b960d11b604082015260600190565b634e487b7160e01b600052601260045260246000fd5b634e487b7160e01b600052601160045260246000fd5b600082612cc757612cc7612c8c565b500490565b81810381811115612cdf57612cdf612ca2565b92915050565b600082612cf457612cf4612c8c565b500690565b60ff8181168382160190811115612cdf57612cdf612ca2565b634e487b7160e01b600052603260045260246000fd5b600060ff821660ff8103612d3e57612d3e612ca2565b60010192915050565b8082028115828204841417612cdf57612cdf612ca2565b600060208284031215612d7057600080fd5b8151801515811461285157600080fd5b6020808252600790820152662161637469766560c81b604082015260600190565b92835260609190911b6bffffffffffffffffffffffff1916602083015260f81b6001600160f81b031916603482015260350190565b604080825260049082015263141bdbdb60e21b60608201526001600160a01b0391909116602082015260800190565b602080825260039082015262085a5960ea1b604082015260600190565b80820180821115612cdf57612cdf612ca2565b600060018201612e4757612e47612ca2565b5060010190565b60c08101612e5c8285612b74565b60ff831660a08301529392505050565b604080825260079082015266141c9bda9958dd60ca1b60608201526001600160a01b039190911660208201526080019056fe6ff3a4003b90be84595beb5f6acb9d54f88bd3e6dd4887ca67e53dc9645465eaa264697066735822122084b63fddae286a90a615e1dfd5377b7e5af2cd869431ec4dbb262daa1d2fa03b64736f6c63430008140033","opcodes":"PUSH1 0x80 PUSH1 0x40 MSTORE CALLVALUE DUP1 ISZERO PUSH2 0x10 JUMPI PUSH1 0x0 DUP1 REVERT JUMPDEST POP PUSH1 0x0 DUP1 SLOAD PUSH1 0x1 PUSH1 0x1 PUSH1 0xA0 SHL SUB NOT AND CALLER OR SWAP1 SSTORE PUSH1 0x7 DUP1 SLOAD PUSH2 0xFF00 NOT AND PUSH2 0x100 OR SWAP1 SSTORE TIMESTAMP PUSH1 0x6 SSTORE PUSH2 0x2EF4 DUP1 PUSH2 0x45 PUSH1 0x0 CODECOPY PUSH1 0x0 RETURN INVALID PUSH1 0x80 PUSH1 0x40 MSTORE PUSH1 0x4 CALLDATASIZE LT PUSH2 0x37A JUMPI PUSH1 0x0 CALLDATALOAD PUSH1 0xE0 SHR DUP1 PUSH4 0x6E12C8F5 GT PUSH2 0x1D1 JUMPI DUP1 PUSH4 0x8F7903DD GT PUSH2 0x102 JUMPI DUP1 PUSH4 0xBEB08AB9 GT PUSH2 0xA0 JUMPI DUP1 PUSH4 0xE1353968 GT PUSH2 0x6F JUMPI DUP1 PUSH4 0xE1353968 EQ PUSH2 0x9B9 JUMPI DUP1 PUSH4 0xE339908C EQ PUSH2 0x9CF JUMPI DUP1 PUSH4 0xF02EDBAF EQ PUSH2 0x9E5 JUMPI DUP1 PUSH4 0xFB060CEC EQ PUSH2 0xA05 JUMPI PUSH1 0x0 DUP1 REVERT JUMPDEST DUP1 PUSH4 0xBEB08AB9 EQ PUSH2 0x943 JUMPI DUP1 PUSH4 0xBFA84201 EQ PUSH2 0x963 JUMPI DUP1 PUSH4 0xC0E13534 EQ PUSH2 0x983 JUMPI DUP1 PUSH4 0xD7098154 EQ PUSH2 0x999 JUMPI PUSH1 0x0 DUP1 REVERT JUMPDEST DUP1 PUSH4 0x9E649DB8 GT PUSH2 0xDC JUMPI DUP1 PUSH4 0x9E649DB8 EQ PUSH2 0x8E9 JUMPI DUP1 PUSH4 0xA9509B0A EQ PUSH2 0x903 JUMPI DUP1 PUSH4 0xABD70AA2 EQ PUSH2 0x919 JUMPI DUP1 PUSH4 0xAD10B4B4 EQ PUSH2 0x92E JUMPI PUSH1 0x0 DUP1 REVERT JUMPDEST DUP1 PUSH4 0x8F7903DD EQ PUSH2 0x89D JUMPI DUP1 PUSH4 0x970E72AF EQ PUSH2 0x8B3 JUMPI DUP1 PUSH4 0x9E57A947 EQ PUSH2 0x8D3 JUMPI PUSH1 0x0 DUP1 REVERT JUMPDEST DUP1 PUSH4 0x85AECC68 GT PUSH2 0x16F JUMPI DUP1 PUSH4 0x8BBAF508 GT PUSH2 0x149 JUMPI DUP1 PUSH4 0x8BBAF508 EQ PUSH2 0x83D JUMPI DUP1 PUSH4 0x8D33A3F2 EQ PUSH2 0x852 JUMPI DUP1 PUSH4 0x8D9DE401 EQ PUSH2 0x867 JUMPI DUP1 PUSH4 0x8DA5CB5B EQ PUSH2 0x87D JUMPI PUSH1 0x0 DUP1 REVERT JUMPDEST DUP1 PUSH4 0x85AECC68 EQ PUSH2 0x7E7 JUMPI DUP1 PUSH4 0x864C407C EQ PUSH2 0x7FD JUMPI DUP1 PUSH4 0x8A780447 EQ PUSH2 0x81D JUMPI PUSH1 0x0 DUP1 REVERT JUMPDEST DUP1 PUSH4 0x719CE73E GT PUSH2 0x1AB JUMPI DUP1 PUSH4 0x719CE73E EQ PUSH2 0x76F JUMPI DUP1 PUSH4 0x7774DBBD EQ PUSH2 0x785 JUMPI DUP1 PUSH4 0x7DC379FA EQ PUSH2 0x79B JUMPI DUP1 PUSH4 0x7FDF45B1 EQ PUSH2 0x7CD JUMPI PUSH1 0x0 DUP1 REVERT JUMPDEST DUP1 PUSH4 0x6E12C8F5 EQ PUSH2 0x70F JUMPI DUP1 PUSH4 0x6F586E7B EQ PUSH2 0x73C JUMPI DUP1 PUSH4 0x70E4A54F EQ PUSH2 0x74F JUMPI PUSH1 0x0 DUP1 REVERT JUMPDEST DUP1 PUSH4 0x2AE168A6 GT PUSH2 0x2AB JUMPI DUP1 PUSH4 0x4E41EF5A GT PUSH2 0x249 JUMPI DUP1 PUSH4 0x56611354 GT PUSH2 0x223 JUMPI DUP1 PUSH4 0x56611354 EQ PUSH2 0x695 JUMPI DUP1 PUSH4 0x5B4A4B55 EQ PUSH2 0x6CE JUMPI DUP1 PUSH4 0x5CBBD635 EQ PUSH2 0x6E4 JUMPI DUP1 PUSH4 0x6A821AE7 EQ PUSH2 0x6FA JUMPI PUSH1 0x0 DUP1 REVERT JUMPDEST DUP1 PUSH4 0x4E41EF5A EQ PUSH2 0x607 JUMPI DUP1 PUSH4 0x4E45F095 EQ PUSH2 0x61D JUMPI DUP1 PUSH4 0x50B44712 EQ PUSH2 0x63D JUMPI PUSH1 0x0 DUP1 REVERT JUMPDEST DUP1 PUSH4 0x34701DB8 GT PUSH2 0x285 JUMPI DUP1 PUSH4 0x34701DB8 EQ PUSH2 0x5B1 JUMPI DUP1 PUSH4 0x44EC62D3 EQ PUSH2 0x5C7 JUMPI DUP1 PUSH4 0x48B1CF90 EQ PUSH2 0x5DD JUMPI DUP1 PUSH4 0x4B272E21 EQ PUSH2 0x5F2 JUMPI PUSH1 0x0 DUP1 REVERT JUMPDEST DUP1 PUSH4 0x2AE168A6 EQ PUSH2 0x56C JUMPI DUP1 PUSH4 0x2C3C91C9 EQ PUSH2 0x581 JUMPI DUP1 PUSH4 0x320B3AAE EQ PUSH2 0x59B JUMPI PUSH1 0x0 DUP1 REVERT JUMPDEST DUP1 PUSH4 0x19AFE17C GT PUSH2 0x318 JUMPI DUP1 PUSH4 0x20540DEA GT PUSH2 0x2F2 JUMPI DUP1 PUSH4 0x20540DEA EQ PUSH2 0x4D1 JUMPI DUP1 PUSH4 0x21793EA5 EQ PUSH2 0x4E7 JUMPI DUP1 PUSH4 0x232FBDA1 EQ PUSH2 0x51F JUMPI DUP1 PUSH4 0x23413198 EQ PUSH2 0x53F JUMPI PUSH1 0x0 DUP1 REVERT JUMPDEST DUP1 PUSH4 0x19AFE17C EQ PUSH2 0x489 JUMPI DUP1 PUSH4 0x1A0894F1 EQ PUSH2 0x4B0 JUMPI DUP1 PUSH4 0x1A95F15F EQ PUSH2 0x4B8 JUMPI PUSH1 0x0 DUP1 REVERT JUMPDEST DUP1 PUSH4 0xB17ABF6 GT PUSH2 0x354 JUMPI DUP1 PUSH4 0xB17ABF6 EQ PUSH2 0x405 JUMPI DUP1 PUSH4 0xBDEECBD EQ PUSH2 0x449 JUMPI DUP1 PUSH4 0xC76119A EQ PUSH2 0x45E JUMPI DUP1 PUSH4 0xD89F698 EQ PUSH2 0x474 JUMPI PUSH1 0x0 DUP1 REVERT JUMPDEST DUP1 PUSH4 0x27471B0 EQ PUSH2 0x386 JUMPI DUP1 PUSH4 0x4216EF9 EQ PUSH2 0x3BA JUMPI DUP1 PUSH4 0x5E1B115 EQ PUSH2 0x3E3 JUMPI PUSH1 0x0 DUP1 REVERT JUMPDEST CALLDATASIZE PUSH2 0x381 JUMPI STOP JUMPDEST PUSH1 0x0 DUP1 REVERT JUMPDEST CALLVALUE DUP1 ISZERO PUSH2 0x392 JUMPI PUSH1 0x0 DUP1 REVERT JUMPDEST POP PUSH1 0x7 SLOAD PUSH2 0x3A5 SWAP1 PUSH2 0x100 SWAP1 DIV PUSH1 0xFF AND DUP2 JUMP JUMPDEST PUSH1 0x40 MLOAD SWAP1 ISZERO ISZERO DUP2 MSTORE PUSH1 0x20 ADD JUMPDEST PUSH1 0x40 MLOAD DUP1 SWAP2 SUB SWAP1 RETURN JUMPDEST CALLVALUE DUP1 ISZERO PUSH2 0x3C6 JUMPI PUSH1 0x0 DUP1 REVERT JUMPDEST POP PUSH2 0x3D0 PUSH2 0x7B7 DUP2 JUMP JUMPDEST PUSH1 0x40 MLOAD PUSH2 0xFFFF SWAP1 SWAP2 AND DUP2 MSTORE PUSH1 0x20 ADD PUSH2 0x3B1 JUMP JUMPDEST CALLVALUE DUP1 ISZERO PUSH2 0x3EF JUMPI PUSH1 0x0 DUP1 REVERT JUMPDEST POP PUSH2 0x403 PUSH2 0x3FE CALLDATASIZE PUSH1 0x4 PUSH2 0x29F2 JUMP JUMPDEST PUSH2 0xA1B JUMP JUMPDEST STOP JUMPDEST CALLVALUE DUP1 ISZERO PUSH2 0x411 JUMPI PUSH1 0x0 DUP1 REVERT JUMPDEST POP PUSH2 0x43B PUSH2 0x420 CALLDATASIZE PUSH1 0x4 PUSH2 0x2A27 JUMP JUMPDEST PUSH1 0x1 PUSH1 0x1 PUSH1 0xA0 SHL SUB AND PUSH1 0x0 SWAP1 DUP2 MSTORE PUSH1 0x8 PUSH1 0x20 MSTORE PUSH1 0x40 SWAP1 KECCAK256 SLOAD SWAP1 JUMP JUMPDEST PUSH1 0x40 MLOAD SWAP1 DUP2 MSTORE PUSH1 0x20 ADD PUSH2 0x3B1 JUMP JUMPDEST CALLVALUE DUP1 ISZERO PUSH2 0x455 JUMPI PUSH1 0x0 DUP1 REVERT JUMPDEST POP PUSH2 0x403 PUSH2 0xB6A JUMP JUMPDEST CALLVALUE DUP1 ISZERO PUSH2 0x46A JUMPI PUSH1 0x0 DUP1 REVERT JUMPDEST POP PUSH2 0x3D0 PUSH2 0x1C2 DUP2 JUMP JUMPDEST CALLVALUE DUP1 ISZERO PUSH2 0x480 JUMPI PUSH1 0x0 DUP1 REVERT JUMPDEST POP PUSH2 0x403 PUSH2 0xF42 JUMP JUMPDEST CALLVALUE DUP1 ISZERO PUSH2 0x495 JUMPI PUSH1 0x0 DUP1 REVERT JUMPDEST POP PUSH2 0x49E PUSH1 0x14 DUP2 JUMP JUMPDEST PUSH1 0x40 MLOAD PUSH1 0xFF SWAP1 SWAP2 AND DUP2 MSTORE PUSH1 0x20 ADD PUSH2 0x3B1 JUMP JUMPDEST PUSH2 0x403 PUSH2 0x10C5 JUMP JUMPDEST CALLVALUE DUP1 ISZERO PUSH2 0x4C4 JUMPI PUSH1 0x0 DUP1 REVERT JUMPDEST POP PUSH2 0x43B PUSH5 0x2540BE400 DUP2 JUMP JUMPDEST CALLVALUE DUP1 ISZERO PUSH2 0x4DD JUMPI PUSH1 0x0 DUP1 REVERT JUMPDEST POP PUSH2 0x3D0 PUSH2 0xFA0 DUP2 JUMP JUMPDEST CALLVALUE DUP1 ISZERO PUSH2 0x4F3 JUMPI PUSH1 0x0 DUP1 REVERT JUMPDEST POP PUSH1 0x3 SLOAD PUSH2 0x507 SWAP1 PUSH1 0x1 PUSH1 0x1 PUSH1 0xA0 SHL SUB AND DUP2 JUMP JUMPDEST PUSH1 0x40 MLOAD PUSH1 0x1 PUSH1 0x1 PUSH1 0xA0 SHL SUB SWAP1 SWAP2 AND DUP2 MSTORE PUSH1 0x20 ADD PUSH2 0x3B1 JUMP JUMPDEST CALLVALUE DUP1 ISZERO PUSH2 0x52B JUMPI PUSH1 0x0 DUP1 REVERT JUMPDEST POP PUSH2 0x403 PUSH2 0x53A CALLDATASIZE PUSH1 0x4 PUSH2 0x2A27 JUMP JUMPDEST PUSH2 0x1281 JUMP JUMPDEST CALLVALUE DUP1 ISZERO PUSH2 0x54B JUMPI PUSH1 0x0 DUP1 REVERT JUMPDEST POP PUSH2 0x55F PUSH2 0x55A CALLDATASIZE PUSH1 0x4 PUSH2 0x2A27 JUMP JUMPDEST PUSH2 0x12F7 JUMP JUMPDEST PUSH1 0x40 MLOAD PUSH2 0x3B1 SWAP2 SWAP1 PUSH2 0x2A42 JUMP JUMPDEST CALLVALUE DUP1 ISZERO PUSH2 0x578 JUMPI PUSH1 0x0 DUP1 REVERT JUMPDEST POP PUSH2 0x403 PUSH2 0x1363 JUMP JUMPDEST CALLVALUE DUP1 ISZERO PUSH2 0x58D JUMPI PUSH1 0x0 DUP1 REVERT JUMPDEST POP PUSH2 0x43B PUSH6 0x5AF3107A4000 DUP2 JUMP JUMPDEST CALLVALUE DUP1 ISZERO PUSH2 0x5A7 JUMPI PUSH1 0x0 DUP1 REVERT JUMPDEST POP PUSH2 0x3D0 PUSH2 0x12C DUP2 JUMP JUMPDEST CALLVALUE DUP1 ISZERO PUSH2 0x5BD JUMPI PUSH1 0x0 DUP1 REVERT JUMPDEST POP PUSH2 0x43B PUSH1 0x5 SLOAD DUP2 JUMP JUMPDEST CALLVALUE DUP1 ISZERO PUSH2 0x5D3 JUMPI PUSH1 0x0 DUP1 REVERT JUMPDEST POP PUSH2 0x3D0 PUSH2 0x5DC DUP2 JUMP JUMPDEST CALLVALUE DUP1 ISZERO PUSH2 0x5E9 JUMPI PUSH1 0x0 DUP1 REVERT JUMPDEST POP PUSH2 0x3D0 PUSH1 0x7D DUP2 JUMP JUMPDEST CALLVALUE DUP1 ISZERO PUSH2 0x5FE JUMPI PUSH1 0x0 DUP1 REVERT JUMPDEST POP PUSH2 0x3D0 PUSH1 0x96 DUP2 JUMP JUMPDEST CALLVALUE DUP1 ISZERO PUSH2 0x613 JUMPI PUSH1 0x0 DUP1 REVERT JUMPDEST POP PUSH2 0x43B PUSH1 0xD SLOAD DUP2 JUMP JUMPDEST CALLVALUE DUP1 ISZERO PUSH2 0x629 JUMPI PUSH1 0x0 DUP1 REVERT JUMPDEST POP PUSH2 0x49E PUSH2 0x638 CALLDATASIZE PUSH1 0x4 PUSH2 0x29F2 JUMP JUMPDEST PUSH2 0x1449 JUMP JUMPDEST CALLVALUE DUP1 ISZERO PUSH2 0x649 JUMPI PUSH1 0x0 DUP1 REVERT JUMPDEST POP PUSH2 0x65D PUSH2 0x658 CALLDATASIZE PUSH1 0x4 PUSH2 0x29F2 JUMP JUMPDEST PUSH2 0x1473 JUMP JUMPDEST PUSH1 0x40 DUP1 MLOAD PUSH1 0x1 PUSH1 0x1 PUSH1 0xA0 SHL SUB SWAP1 SWAP7 AND DUP7 MSTORE PUSH1 0xFF SWAP1 SWAP5 AND PUSH1 0x20 DUP7 ADD MSTORE SWAP3 DUP5 ADD SWAP2 SWAP1 SWAP2 MSTORE ISZERO ISZERO PUSH1 0x60 DUP4 ADD MSTORE ISZERO ISZERO PUSH1 0x80 DUP3 ADD MSTORE PUSH1 0xA0 ADD PUSH2 0x3B1 JUMP JUMPDEST CALLVALUE DUP1 ISZERO PUSH2 0x6A1 JUMPI PUSH1 0x0 DUP1 REVERT JUMPDEST POP PUSH2 0x6B5 PUSH2 0x6B0 CALLDATASIZE PUSH1 0x4 PUSH2 0x29F2 JUMP JUMPDEST PUSH2 0x14C7 JUMP JUMPDEST PUSH1 0x40 DUP1 MLOAD PUSH1 0xFF SWAP1 SWAP4 AND DUP4 MSTORE PUSH1 0x20 DUP4 ADD SWAP2 SWAP1 SWAP2 MSTORE ADD PUSH2 0x3B1 JUMP JUMPDEST CALLVALUE DUP1 ISZERO PUSH2 0x6DA JUMPI PUSH1 0x0 DUP1 REVERT JUMPDEST POP PUSH2 0x43B PUSH1 0x10 SLOAD DUP2 JUMP JUMPDEST CALLVALUE DUP1 ISZERO PUSH2 0x6F0 JUMPI PUSH1 0x0 DUP1 REVERT JUMPDEST POP PUSH2 0x43B PUSH1 0x6 SLOAD DUP2 JUMP JUMPDEST CALLVALUE DUP1 ISZERO PUSH2 0x706 JUMPI PUSH1 0x0 DUP1 REVERT JUMPDEST POP PUSH2 0x49E PUSH1 0x5 DUP2 JUMP JUMPDEST CALLVALUE DUP1 ISZERO PUSH2 0x71B JUMPI PUSH1 0x0 DUP1 REVERT JUMPDEST POP PUSH2 0x43B PUSH2 0x72A CALLDATASIZE PUSH1 0x4 PUSH2 0x2A27 JUMP JUMPDEST PUSH1 0x8 PUSH1 0x20 MSTORE PUSH1 0x0 SWAP1 DUP2 MSTORE PUSH1 0x40 SWAP1 KECCAK256 SLOAD DUP2 JUMP JUMPDEST PUSH2 0x403 PUSH2 0x74A CALLDATASIZE PUSH1 0x4 PUSH2 0x2AAD JUMP JUMPDEST PUSH2 0x1645 JUMP JUMPDEST CALLVALUE DUP1 ISZERO PUSH2 0x75B JUMPI PUSH1 0x0 DUP1 REVERT JUMPDEST POP PUSH2 0x403 PUSH2 0x76A CALLDATASIZE PUSH1 0x4 PUSH2 0x2B41 JUMP JUMPDEST PUSH2 0x1AFA JUMP JUMPDEST CALLVALUE DUP1 ISZERO PUSH2 0x77B JUMPI PUSH1 0x0 DUP1 REVERT JUMPDEST POP PUSH2 0x43B PUSH1 0x4 SLOAD DUP2 JUMP JUMPDEST CALLVALUE DUP1 ISZERO PUSH2 0x791 JUMPI PUSH1 0x0 DUP1 REVERT JUMPDEST POP PUSH2 0x43B PUSH1 0xF SLOAD DUP2 JUMP JUMPDEST CALLVALUE DUP1 ISZERO PUSH2 0x7A7 JUMPI PUSH1 0x0 DUP1 REVERT JUMPDEST POP PUSH2 0x7BB PUSH2 0x7B6 CALLDATASIZE PUSH1 0x4 PUSH2 0x29F2 JUMP JUMPDEST PUSH2 0x1C0B JUMP JUMPDEST PUSH1 0x40 MLOAD PUSH2 0x3B1 SWAP7 SWAP6 SWAP5 SWAP4 SWAP3 SWAP2 SWAP1 PUSH2 0x2B9A JUMP JUMPDEST CALLVALUE DUP1 ISZERO PUSH2 0x7D9 JUMPI PUSH1 0x0 DUP1 REVERT JUMPDEST POP PUSH1 0xC SLOAD PUSH2 0x49E SWAP1 PUSH1 0xFF AND DUP2 JUMP JUMPDEST CALLVALUE DUP1 ISZERO PUSH2 0x7F3 JUMPI PUSH1 0x0 DUP1 REVERT JUMPDEST POP PUSH2 0x43B PUSH1 0x12 SLOAD DUP2 JUMP JUMPDEST CALLVALUE DUP1 ISZERO PUSH2 0x809 JUMPI PUSH1 0x0 DUP1 REVERT JUMPDEST POP PUSH2 0x43B PUSH2 0x818 CALLDATASIZE PUSH1 0x4 PUSH2 0x2BE3 JUMP JUMPDEST PUSH2 0x1CFC JUMP JUMPDEST CALLVALUE DUP1 ISZERO PUSH2 0x829 JUMPI PUSH1 0x0 DUP1 REVERT JUMPDEST POP PUSH2 0x403 PUSH2 0x838 CALLDATASIZE PUSH1 0x4 PUSH2 0x2A27 JUMP JUMPDEST PUSH2 0x1D2D JUMP JUMPDEST CALLVALUE DUP1 ISZERO PUSH2 0x849 JUMPI PUSH1 0x0 DUP1 REVERT JUMPDEST POP PUSH2 0x49E PUSH1 0x32 DUP2 JUMP JUMPDEST CALLVALUE DUP1 ISZERO PUSH2 0x85E JUMPI PUSH1 0x0 DUP1 REVERT JUMPDEST POP PUSH2 0x403 PUSH2 0x1DA3 JUMP JUMPDEST CALLVALUE DUP1 ISZERO PUSH2 0x873 JUMPI PUSH1 0x0 DUP1 REVERT JUMPDEST POP PUSH2 0x43B PUSH1 0x14 SLOAD DUP2 JUMP JUMPDEST CALLVALUE DUP1 ISZERO PUSH2 0x889 JUMPI PUSH1 0x0 DUP1 REVERT JUMPDEST POP PUSH1 0x0 SLOAD PUSH2 0x507 SWAP1 PUSH1 0x1 PUSH1 0x1 PUSH1 0xA0 SHL SUB AND DUP2 JUMP JUMPDEST CALLVALUE DUP1 ISZERO PUSH2 0x8A9 JUMPI PUSH1 0x0 DUP1 REVERT JUMPDEST POP PUSH2 0x43B PUSH1 0x13 SLOAD DUP2 JUMP JUMPDEST CALLVALUE DUP1 ISZERO PUSH2 0x8BF JUMPI PUSH1 0x0 DUP1 REVERT JUMPDEST POP PUSH2 0x403 PUSH2 0x8CE CALLDATASIZE PUSH1 0x4 PUSH2 0x2A27 JUMP JUMPDEST PUSH2 0x1E8A JUMP JUMPDEST CALLVALUE DUP1 ISZERO PUSH2 0x8DF JUMPI PUSH1 0x0 DUP1 REVERT JUMPDEST POP PUSH2 0x3D0 PUSH2 0x258 DUP2 JUMP JUMPDEST CALLVALUE DUP1 ISZERO PUSH2 0x8F5 JUMPI PUSH1 0x0 DUP1 REVERT JUMPDEST POP PUSH1 0x7 SLOAD PUSH2 0x3A5 SWAP1 PUSH1 0xFF AND DUP2 JUMP JUMPDEST CALLVALUE DUP1 ISZERO PUSH2 0x90F JUMPI PUSH1 0x0 DUP1 REVERT JUMPDEST POP PUSH2 0x43B PUSH1 0x11 SLOAD DUP2 JUMP JUMPDEST CALLVALUE DUP1 ISZERO PUSH2 0x925 JUMPI PUSH1 0x0 DUP1 REVERT JUMPDEST POP PUSH1 0x4 SLOAD PUSH2 0x43B JUMP JUMPDEST CALLVALUE DUP1 ISZERO PUSH2 0x93A JUMPI PUSH1 0x0 DUP1 REVERT JUMPDEST POP PUSH2 0x403 PUSH2 0x1EE9 JUMP JUMPDEST CALLVALUE DUP1 ISZERO PUSH2 0x94F JUMPI PUSH1 0x0 DUP1 REVERT JUMPDEST POP PUSH1 0x1 SLOAD PUSH2 0x507 SWAP1 PUSH1 0x1 PUSH1 0x1 PUSH1 0xA0 SHL SUB AND DUP2 JUMP JUMPDEST CALLVALUE DUP1 ISZERO PUSH2 0x96F JUMPI PUSH1 0x0 DUP1 REVERT JUMPDEST POP PUSH2 0x403 PUSH2 0x97E CALLDATASIZE PUSH1 0x4 PUSH2 0x2C0D JUMP JUMPDEST PUSH2 0x1F30 JUMP JUMPDEST CALLVALUE DUP1 ISZERO PUSH2 0x98F JUMPI PUSH1 0x0 DUP1 REVERT JUMPDEST POP PUSH2 0x43B PUSH1 0x15 SLOAD DUP2 JUMP JUMPDEST CALLVALUE DUP1 ISZERO PUSH2 0x9A5 JUMPI PUSH1 0x0 DUP1 REVERT JUMPDEST POP PUSH2 0x403 PUSH2 0x9B4 CALLDATASIZE PUSH1 0x4 PUSH2 0x29F2 JUMP JUMPDEST PUSH2 0x1F83 JUMP JUMPDEST CALLVALUE DUP1 ISZERO PUSH2 0x9C5 JUMPI PUSH1 0x0 DUP1 REVERT JUMPDEST POP PUSH2 0x3D0 PUSH2 0x1F4 DUP2 JUMP JUMPDEST CALLVALUE DUP1 ISZERO PUSH2 0x9DB JUMPI PUSH1 0x0 DUP1 REVERT JUMPDEST POP PUSH2 0x43B PUSH1 0xE SLOAD DUP2 JUMP JUMPDEST CALLVALUE DUP1 ISZERO PUSH2 0x9F1 JUMPI PUSH1 0x0 DUP1 REVERT JUMPDEST POP PUSH1 0x2 SLOAD PUSH2 0x507 SWAP1 PUSH1 0x1 PUSH1 0x1 PUSH1 0xA0 SHL SUB AND DUP2 JUMP JUMPDEST CALLVALUE DUP1 ISZERO PUSH2 0xA11 JUMPI PUSH1 0x0 DUP1 REVERT JUMPDEST POP PUSH2 0x3D0 PUSH2 0x320 DUP2 JUMP JUMPDEST PUSH1 0x0 SLOAD PUSH1 0x1 PUSH1 0x1 PUSH1 0xA0 SHL SUB AND CALLER EQ PUSH2 0xA4E JUMPI PUSH1 0x40 MLOAD PUSH3 0x461BCD PUSH1 0xE5 SHL DUP2 MSTORE PUSH1 0x4 ADD PUSH2 0xA45 SWAP1 PUSH2 0x2C6C JUMP JUMPDEST PUSH1 0x40 MLOAD DUP1 SWAP2 SUB SWAP1 REVERT JUMPDEST PUSH1 0x4 SLOAD DUP2 GT ISZERO PUSH2 0xA8B JUMPI PUSH1 0x40 MLOAD PUSH3 0x461BCD PUSH1 0xE5 SHL DUP2 MSTORE PUSH1 0x20 PUSH1 0x4 DUP3 ADD MSTORE PUSH1 0x8 PUSH1 0x24 DUP3 ADD MSTORE PUSH8 0x2162616C616E6365 PUSH1 0xC0 SHL PUSH1 0x44 DUP3 ADD MSTORE PUSH1 0x64 ADD PUSH2 0xA45 JUMP JUMPDEST PUSH1 0x2 SLOAD PUSH1 0x1 PUSH1 0x1 PUSH1 0xA0 SHL SUB AND PUSH2 0xACD JUMPI PUSH1 0x40 MLOAD PUSH3 0x461BCD PUSH1 0xE5 SHL DUP2 MSTORE PUSH1 0x20 PUSH1 0x4 DUP3 ADD MSTORE PUSH1 0x7 PUSH1 0x24 DUP3 ADD MSTORE PUSH7 0x85DD85B1B195D PUSH1 0xCA SHL PUSH1 0x44 DUP3 ADD MSTORE PUSH1 0x64 ADD PUSH2 0xA45 JUMP JUMPDEST PUSH1 0xA PUSH1 0x4 SLOAD PUSH2 0xADC SWAP2 SWAP1 PUSH2 0x2CB8 JUMP JUMPDEST DUP2 GT ISZERO PUSH2 0xB15 JUMPI PUSH1 0x40 MLOAD PUSH3 0x461BCD PUSH1 0xE5 SHL DUP2 MSTORE PUSH1 0x20 PUSH1 0x4 DUP3 ADD MSTORE PUSH1 0x7 PUSH1 0x24 DUP3 ADD MSTORE PUSH7 0x6D617820313025 PUSH1 0xC8 SHL PUSH1 0x44 DUP3 ADD MSTORE PUSH1 0x64 ADD PUSH2 0xA45 JUMP JUMPDEST DUP1 PUSH1 0x4 PUSH1 0x0 DUP3 DUP3 SLOAD PUSH2 0xB27 SWAP2 SWAP1 PUSH2 0x2CCC JUMP JUMPDEST SWAP1 SWAP2 SSTORE POP POP PUSH1 0x2 SLOAD PUSH1 0x40 MLOAD PUSH1 0x1 PUSH1 0x1 PUSH1 0xA0 SHL SUB SWAP1 SWAP2 AND SWAP1 DUP3 ISZERO PUSH2 0x8FC MUL SWAP1 DUP4 SWAP1 PUSH1 0x0 DUP2 DUP2 DUP2 DUP6 DUP9 DUP9 CALL SWAP4 POP POP POP POP ISZERO DUP1 ISZERO PUSH2 0xB66 JUMPI RETURNDATASIZE PUSH1 0x0 DUP1 RETURNDATACOPY RETURNDATASIZE PUSH1 0x0 REVERT JUMPDEST POP POP JUMP JUMPDEST PUSH1 0x0 SLOAD PUSH1 0x1 PUSH1 0x1 PUSH1 0xA0 SHL SUB AND CALLER EQ PUSH2 0xB94 JUMPI PUSH1 0x40 MLOAD PUSH3 0x461BCD PUSH1 0xE5 SHL DUP2 MSTORE PUSH1 0x4 ADD PUSH2 0xA45 SWAP1 PUSH2 0x2C6C JUMP JUMPDEST PUSH1 0xC SLOAD PUSH2 0x100 SWAP1 DIV PUSH1 0xFF AND ISZERO PUSH2 0xBD9 JUMPI PUSH1 0x40 MLOAD PUSH3 0x461BCD PUSH1 0xE5 SHL DUP2 MSTORE PUSH1 0x20 PUSH1 0x4 DUP3 ADD MSTORE PUSH1 0xA PUSH1 0x24 DUP3 ADD MSTORE PUSH10 0x7265656E7472616E6379 PUSH1 0xB0 SHL PUSH1 0x44 DUP3 ADD MSTORE PUSH1 0x64 ADD PUSH2 0xA45 JUMP JUMPDEST PUSH1 0xC DUP1 SLOAD PUSH2 0xFF00 NOT AND PUSH2 0x100 OR SWAP1 SSTORE PUSH1 0x7 SLOAD PUSH1 0xFF AND PUSH2 0xC22 JUMPI PUSH1 0x40 MLOAD PUSH3 0x461BCD PUSH1 0xE5 SHL DUP2 MSTORE PUSH1 0x20 PUSH1 0x4 DUP3 ADD MSTORE PUSH1 0x5 PUSH1 0x24 DUP3 ADD MSTORE PUSH5 0x2164726177 PUSH1 0xD8 SHL PUSH1 0x44 DUP3 ADD MSTORE PUSH1 0x64 ADD PUSH2 0xA45 JUMP JUMPDEST PUSH1 0x9 SLOAD PUSH2 0xC5C JUMPI PUSH1 0x40 MLOAD PUSH3 0x461BCD PUSH1 0xE5 SHL DUP2 MSTORE PUSH1 0x20 PUSH1 0x4 DUP3 ADD MSTORE PUSH1 0x8 PUSH1 0x24 DUP3 ADD MSTORE PUSH8 0x217469636B657473 PUSH1 0xC0 SHL PUSH1 0x44 DUP3 ADD MSTORE PUSH1 0x64 ADD PUSH2 0xA45 JUMP JUMPDEST PUSH1 0x0 PUSH2 0xC69 PUSH1 0x1 NUMBER PUSH2 0x2CCC JUMP JUMPDEST PUSH1 0x9 SLOAD PUSH1 0x4 SLOAD PUSH1 0x40 DUP1 MLOAD SWAP4 BLOCKHASH PUSH1 0x20 DUP6 ADD MSTORE TIMESTAMP SWAP1 DUP5 ADD MSTORE PUSH1 0x60 DUP1 DUP5 ADD SWAP3 SWAP1 SWAP3 MSTORE PUSH1 0x80 DUP4 ADD MSTORE CALLER SWAP1 SHL PUSH12 0xFFFFFFFFFFFFFFFFFFFFFFFF NOT AND PUSH1 0xA0 DUP3 ADD MSTORE PUSH1 0xB4 ADD PUSH1 0x40 MLOAD PUSH1 0x20 DUP2 DUP4 SUB SUB DUP2 MSTORE SWAP1 PUSH1 0x40 MSTORE DUP1 MLOAD SWAP1 PUSH1 0x20 ADD KECCAK256 SWAP1 POP PUSH2 0xCC7 PUSH2 0x290D JUMP JUMPDEST PUSH1 0x0 JUMPDEST PUSH1 0x5 PUSH1 0xFF DUP3 AND LT ISZERO PUSH2 0xDBF JUMPI PUSH1 0x0 JUMPDEST PUSH1 0x40 MLOAD PUSH1 0x32 SWAP1 PUSH2 0xD05 SWAP1 DUP7 SWAP1 DUP6 SWAP1 PUSH1 0x20 ADD SWAP2 DUP3 MSTORE PUSH1 0xF8 SHL PUSH1 0x1 PUSH1 0x1 PUSH1 0xF8 SHL SUB NOT AND PUSH1 0x20 DUP3 ADD MSTORE PUSH1 0x21 ADD SWAP1 JUMP JUMPDEST PUSH1 0x40 MLOAD PUSH1 0x20 DUP2 DUP4 SUB SUB DUP2 MSTORE SWAP1 PUSH1 0x40 MSTORE DUP1 MLOAD SWAP1 PUSH1 0x20 ADD KECCAK256 PUSH1 0x0 SHR PUSH2 0xD28 SWAP2 SWAP1 PUSH2 0x2CE5 JUMP JUMPDEST PUSH2 0xD33 SWAP1 PUSH1 0x1 PUSH2 0x2CF9 JUMP JUMPDEST SWAP1 POP DUP3 DUP2 PUSH1 0xFF AND PUSH1 0x33 DUP2 LT PUSH2 0xD4A JUMPI PUSH2 0xD4A PUSH2 0x2D12 JUMP JUMPDEST PUSH1 0x20 MUL ADD MLOAD PUSH2 0xCD9 JUMPI PUSH1 0x1 DUP4 DUP3 PUSH1 0xFF AND PUSH1 0x33 DUP2 LT PUSH2 0xD6A JUMPI PUSH2 0xD6A PUSH2 0x2D12 JUMP JUMPDEST SWAP2 ISZERO ISZERO PUSH1 0x20 SWAP1 SWAP3 MUL ADD MSTORE DUP1 PUSH1 0xB PUSH1 0xFF DUP5 AND PUSH1 0x5 DUP2 LT PUSH2 0xD8B JUMPI PUSH2 0xD8B PUSH2 0x2D12 JUMP JUMPDEST PUSH1 0x20 SWAP2 DUP3 DUP3 DIV ADD SWAP2 SWAP1 MOD PUSH2 0x100 EXP DUP2 SLOAD DUP2 PUSH1 0xFF MUL NOT AND SWAP1 DUP4 PUSH1 0xFF AND MUL OR SWAP1 SSTORE POP POP DUP1 DUP1 PUSH2 0xDB7 SWAP1 PUSH2 0x2D28 JUMP JUMPDEST SWAP2 POP POP PUSH2 0xCCA JUMP JUMPDEST POP PUSH1 0x40 DUP1 MLOAD PUSH1 0xA0 DUP2 ADD SWAP2 DUP3 SWAP1 MSTORE PUSH2 0xE13 SWAP2 PUSH1 0xB SWAP1 PUSH1 0x5 SWAP1 DUP3 PUSH1 0x0 DUP6 JUMPDEST DUP3 SLOAD PUSH2 0x100 DUP4 SWAP1 EXP SWAP1 DIV PUSH1 0xFF AND DUP2 MSTORE PUSH1 0x20 PUSH1 0x1 SWAP3 DUP4 ADD DUP2 DUP2 DIV SWAP5 DUP6 ADD SWAP5 SWAP1 SWAP4 SUB SWAP1 SWAP3 MUL SWAP2 ADD DUP1 DUP5 GT PUSH2 0xDDB JUMPI SWAP1 POP POP POP POP POP POP PUSH2 0x2213 JUMP JUMPDEST PUSH1 0x40 DUP1 MLOAD PUSH1 0x20 DUP1 DUP3 ADD DUP6 SWAP1 MSTORE PUSH1 0x19 PUSH1 0xFA SHL DUP3 DUP5 ADD MSTORE DUP3 MLOAD PUSH1 0x21 DUP2 DUP5 SUB ADD DUP2 MSTORE PUSH1 0x41 SWAP1 SWAP3 ADD SWAP1 SWAP3 MSTORE DUP1 MLOAD SWAP2 ADD KECCAK256 PUSH2 0xE4B SWAP1 PUSH1 0x14 SWAP1 PUSH2 0x2CE5 JUMP JUMPDEST PUSH2 0xE56 SWAP1 PUSH1 0x1 PUSH2 0x2CF9 JUMP JUMPDEST PUSH1 0xC DUP1 SLOAD PUSH1 0xFF NOT AND PUSH1 0xFF SWAP3 SWAP1 SWAP3 AND SWAP2 SWAP1 SWAP2 OR SWAP1 SSTORE PUSH1 0x0 PUSH2 0xE74 PUSH2 0x2326 JUMP JUMPDEST SWAP1 POP PUSH2 0x2710 PUSH2 0x7B7 PUSH2 0xFFFF AND PUSH1 0x4 SLOAD PUSH2 0xE8D SWAP2 SWAP1 PUSH2 0x2D47 JUMP JUMPDEST PUSH2 0xE97 SWAP2 SWAP1 PUSH2 0x2CB8 JUMP JUMPDEST PUSH1 0x4 DUP2 SWAP1 SSTORE PUSH1 0x7 DUP1 SLOAD PUSH1 0xFF NOT AND SWAP1 SSTORE TIMESTAMP PUSH1 0x6 SSTORE PUSH1 0xC SLOAD PUSH1 0x40 DUP1 MLOAD PUSH1 0xB SLOAD PUSH1 0xFF DUP2 DUP2 AND DUP4 MSTORE PUSH1 0x8 DUP3 SWAP1 SHR DUP2 AND PUSH1 0x20 DUP1 DUP6 ADD SWAP2 SWAP1 SWAP2 MSTORE PUSH1 0x10 DUP4 SWAP1 SHR DUP3 AND SWAP5 DUP5 ADD SWAP5 SWAP1 SWAP5 MSTORE PUSH1 0x18 DUP3 SWAP1 SHR DUP2 AND PUSH1 0x60 DUP5 ADD MSTORE SWAP3 SHR DUP3 AND PUSH1 0x80 DUP3 ADD MSTORE SWAP2 AND PUSH1 0xA0 DUP3 ADD MSTORE PUSH1 0xC0 DUP2 ADD SWAP2 SWAP1 SWAP2 MSTORE PUSH1 0xE0 DUP2 ADD DUP3 SWAP1 MSTORE PUSH32 0x66B82FFF7433C0384D24698C2F596F1C62DD755C20531009AC86C6FBF955960C SWAP1 PUSH2 0x100 ADD PUSH1 0x40 MLOAD DUP1 SWAP2 SUB SWAP1 LOG1 POP POP PUSH1 0xC DUP1 SLOAD PUSH2 0xFF00 NOT AND SWAP1 SSTORE POP JUMP JUMPDEST CALLER PUSH1 0x0 SWAP1 DUP2 MSTORE PUSH1 0x8 PUSH1 0x20 MSTORE PUSH1 0x40 SWAP1 KECCAK256 SLOAD DUP1 PUSH2 0xF8A JUMPI PUSH1 0x40 MLOAD PUSH3 0x461BCD PUSH1 0xE5 SHL DUP2 MSTORE PUSH1 0x20 PUSH1 0x4 DUP3 ADD MSTORE PUSH1 0x8 PUSH1 0x24 DUP3 ADD MSTORE PUSH8 0x2170656E64696E67 PUSH1 0xC0 SHL PUSH1 0x44 DUP3 ADD MSTORE PUSH1 0x64 ADD PUSH2 0xA45 JUMP JUMPDEST PUSH1 0x3 SLOAD PUSH1 0x1 PUSH1 0x1 PUSH1 0xA0 SHL SUB AND PUSH2 0xFCB JUMPI PUSH1 0x40 MLOAD PUSH3 0x461BCD PUSH1 0xE5 SHL DUP2 MSTORE PUSH1 0x20 PUSH1 0x4 DUP3 ADD MSTORE PUSH1 0x6 PUSH1 0x24 DUP3 ADD MSTORE PUSH6 0x10BA37B5B2B7 PUSH1 0xD1 SHL PUSH1 0x44 DUP3 ADD MSTORE PUSH1 0x64 ADD PUSH2 0xA45 JUMP JUMPDEST CALLER PUSH1 0x0 DUP2 DUP2 MSTORE PUSH1 0x8 PUSH1 0x20 MSTORE PUSH1 0x40 DUP1 DUP3 KECCAK256 SWAP2 SWAP1 SWAP2 SSTORE PUSH1 0x3 SLOAD SWAP1 MLOAD PUSH4 0xA9059CBB PUSH1 0xE0 SHL DUP2 MSTORE PUSH1 0x4 DUP2 ADD SWAP3 SWAP1 SWAP3 MSTORE PUSH1 0x24 DUP3 ADD DUP4 SWAP1 MSTORE PUSH1 0x1 PUSH1 0x1 PUSH1 0xA0 SHL SUB AND SWAP1 PUSH4 0xA9059CBB SWAP1 PUSH1 0x44 ADD PUSH1 0x20 PUSH1 0x40 MLOAD DUP1 DUP4 SUB DUP2 PUSH1 0x0 DUP8 GAS CALL ISZERO DUP1 ISZERO PUSH2 0x102F JUMPI RETURNDATASIZE PUSH1 0x0 DUP1 RETURNDATACOPY RETURNDATASIZE PUSH1 0x0 REVERT JUMPDEST POP POP POP POP PUSH1 0x40 MLOAD RETURNDATASIZE PUSH1 0x1F NOT PUSH1 0x1F DUP3 ADD AND DUP3 ADD DUP1 PUSH1 0x40 MSTORE POP DUP2 ADD SWAP1 PUSH2 0x1053 SWAP2 SWAP1 PUSH2 0x2D5E JUMP JUMPDEST PUSH2 0x1088 JUMPI PUSH1 0x40 MLOAD PUSH3 0x461BCD PUSH1 0xE5 SHL DUP2 MSTORE PUSH1 0x4 ADD PUSH2 0xA45 SWAP1 PUSH1 0x20 DUP1 DUP3 MSTORE PUSH1 0x4 SWAP1 DUP3 ADD MSTORE PUSH4 0x19985A5B PUSH1 0xE2 SHL PUSH1 0x40 DUP3 ADD MSTORE PUSH1 0x60 ADD SWAP1 JUMP JUMPDEST PUSH1 0x40 DUP1 MLOAD CALLER DUP2 MSTORE PUSH1 0x20 DUP2 ADD DUP4 SWAP1 MSTORE PUSH32 0x95681E512BC0FE659E195E06C283EADA494316F3D801213E48E7101AF92BF770 SWAP2 ADD JUMPDEST PUSH1 0x40 MLOAD DUP1 SWAP2 SUB SWAP1 LOG1 POP JUMP JUMPDEST PUSH1 0x7 SLOAD PUSH2 0x100 SWAP1 DIV PUSH1 0xFF AND PUSH2 0x10EC JUMPI PUSH1 0x40 MLOAD PUSH3 0x461BCD PUSH1 0xE5 SHL DUP2 MSTORE PUSH1 0x4 ADD PUSH2 0xA45 SWAP1 PUSH2 0x2D80 JUMP JUMPDEST PUSH5 0x2540BE400 CALLVALUE EQ PUSH2 0x112B JUMPI PUSH1 0x40 MLOAD PUSH3 0x461BCD PUSH1 0xE5 SHL DUP2 MSTORE PUSH1 0x20 PUSH1 0x4 DUP3 ADD MSTORE PUSH1 0x8 PUSH1 0x24 DUP3 ADD MSTORE PUSH8 0x109898181025A62B PUSH1 0xC1 SHL PUSH1 0x44 DUP3 ADD MSTORE PUSH1 0x64 ADD PUSH2 0xA45 JUMP JUMPDEST PUSH1 0x0 PUSH2 0x1138 PUSH1 0x1 NUMBER PUSH2 0x2CCC JUMP JUMPDEST BLOCKHASH SWAP1 POP PUSH2 0x1143 PUSH2 0x292C JUMP JUMPDEST PUSH2 0x114B PUSH2 0x290D JUMP JUMPDEST PUSH1 0x0 JUMPDEST PUSH1 0x5 PUSH1 0xFF DUP3 AND LT ISZERO PUSH2 0x121A JUMPI PUSH1 0x0 JUMPDEST PUSH1 0x40 MLOAD PUSH1 0x32 SWAP1 PUSH2 0x1175 SWAP1 DUP8 SWAP1 CALLER SWAP1 DUP7 SWAP1 PUSH1 0x20 ADD PUSH2 0x2DA1 JUMP JUMPDEST PUSH1 0x40 MLOAD PUSH1 0x20 DUP2 DUP4 SUB SUB DUP2 MSTORE SWAP1 PUSH1 0x40 MSTORE DUP1 MLOAD SWAP1 PUSH1 0x20 ADD KECCAK256 PUSH1 0x0 SHR PUSH2 0x1198 SWAP2 SWAP1 PUSH2 0x2CE5 JUMP JUMPDEST PUSH2 0x11A3 SWAP1 PUSH1 0x1 PUSH2 0x2CF9 JUMP JUMPDEST SWAP1 POP DUP3 DUP2 PUSH1 0xFF AND PUSH1 0x33 DUP2 LT PUSH2 0x11BA JUMPI PUSH2 0x11BA PUSH2 0x2D12 JUMP JUMPDEST PUSH1 0x20 MUL ADD MLOAD PUSH2 0x115D JUMPI PUSH1 0x1 DUP4 DUP3 PUSH1 0xFF AND PUSH1 0x33 DUP2 LT PUSH2 0x11DA JUMPI PUSH2 0x11DA PUSH2 0x2D12 JUMP JUMPDEST SWAP2 ISZERO ISZERO PUSH1 0x20 SWAP1 SWAP3 MUL ADD MSTORE DUP1 DUP5 PUSH1 0xFF DUP5 AND PUSH1 0x5 DUP2 LT PUSH2 0x11FA JUMPI PUSH2 0x11FA PUSH2 0x2D12 JUMP JUMPDEST PUSH1 0xFF SWAP1 SWAP3 AND PUSH1 0x20 SWAP3 SWAP1 SWAP3 MUL ADD MSTORE POP DUP1 PUSH2 0x1212 DUP2 PUSH2 0x2D28 JUMP JUMPDEST SWAP2 POP POP PUSH2 0x114E JUMP JUMPDEST POP PUSH2 0x1224 DUP3 PUSH2 0x2213 JUMP JUMPDEST PUSH1 0x0 PUSH1 0x14 PUSH1 0xFF AND DUP5 CALLER PUSH1 0x64 PUSH1 0x40 MLOAD PUSH1 0x20 ADD PUSH2 0x1241 SWAP4 SWAP3 SWAP2 SWAP1 PUSH2 0x2DA1 JUMP JUMPDEST PUSH1 0x40 MLOAD PUSH1 0x20 DUP2 DUP4 SUB SUB DUP2 MSTORE SWAP1 PUSH1 0x40 MSTORE DUP1 MLOAD SWAP1 PUSH1 0x20 ADD KECCAK256 PUSH1 0x0 SHR PUSH2 0x1264 SWAP2 SWAP1 PUSH2 0x2CE5 JUMP JUMPDEST PUSH2 0x126F SWAP1 PUSH1 0x1 PUSH2 0x2CF9 JUMP JUMPDEST SWAP1 POP PUSH2 0x127B DUP4 DUP3 PUSH2 0x1645 JUMP JUMPDEST POP POP POP POP JUMP JUMPDEST PUSH1 0x0 SLOAD PUSH1 0x1 PUSH1 0x1 PUSH1 0xA0 SHL SUB AND CALLER EQ PUSH2 0x12AB JUMPI PUSH1 0x40 MLOAD PUSH3 0x461BCD PUSH1 0xE5 SHL DUP2 MSTORE PUSH1 0x4 ADD PUSH2 0xA45 SWAP1 PUSH2 0x2C6C JUMP JUMPDEST PUSH1 0x1 PUSH1 0x1 PUSH1 0xA0 SHL SUB DUP2 AND PUSH2 0x12BE JUMPI PUSH1 0x0 DUP1 REVERT JUMPDEST PUSH1 0x2 DUP1 SLOAD PUSH1 0x1 PUSH1 0x1 PUSH1 0xA0 SHL SUB NOT AND PUSH1 0x1 PUSH1 0x1 PUSH1 0xA0 SHL SUB DUP4 AND OR SWAP1 SSTORE PUSH1 0x40 MLOAD PUSH1 0x0 DUP1 MLOAD PUSH1 0x20 PUSH2 0x2E9F DUP4 CODECOPY DUP2 MLOAD SWAP2 MSTORE SWAP1 PUSH2 0x10BA SWAP1 DUP4 SWAP1 PUSH2 0x2DD6 JUMP JUMPDEST PUSH1 0x1 PUSH1 0x1 PUSH1 0xA0 SHL SUB DUP2 AND PUSH1 0x0 SWAP1 DUP2 MSTORE PUSH1 0xA PUSH1 0x20 SWAP1 DUP2 MSTORE PUSH1 0x40 SWAP2 DUP3 SWAP1 KECCAK256 DUP1 SLOAD DUP4 MLOAD DUP2 DUP5 MUL DUP2 ADD DUP5 ADD SWAP1 SWAP5 MSTORE DUP1 DUP5 MSTORE PUSH1 0x60 SWAP4 SWAP3 DUP4 ADD DUP3 DUP3 DUP1 ISZERO PUSH2 0x1357 JUMPI PUSH1 0x20 MUL DUP3 ADD SWAP2 SWAP1 PUSH1 0x0 MSTORE PUSH1 0x20 PUSH1 0x0 KECCAK256 SWAP1 JUMPDEST DUP2 SLOAD DUP2 MSTORE PUSH1 0x20 ADD SWAP1 PUSH1 0x1 ADD SWAP1 DUP1 DUP4 GT PUSH2 0x1343 JUMPI JUMPDEST POP POP POP POP POP SWAP1 POP SWAP2 SWAP1 POP JUMP JUMPDEST PUSH1 0x7 SLOAD PUSH1 0xFF AND ISZERO PUSH2 0x139F JUMPI PUSH1 0x40 MLOAD PUSH3 0x461BCD PUSH1 0xE5 SHL DUP2 MSTORE PUSH1 0x4 ADD PUSH2 0xA45 SWAP1 PUSH1 0x20 DUP1 DUP3 MSTORE PUSH1 0x4 SWAP1 DUP3 ADD MSTORE PUSH4 0x64726177 PUSH1 0xE0 SHL PUSH1 0x40 DUP3 ADD MSTORE PUSH1 0x60 ADD SWAP1 JUMP JUMPDEST PUSH1 0x7 SLOAD PUSH2 0x100 SWAP1 DIV PUSH1 0xFF AND PUSH2 0x13C6 JUMPI PUSH1 0x40 MLOAD PUSH3 0x461BCD PUSH1 0xE5 SHL DUP2 MSTORE PUSH1 0x4 ADD PUSH2 0xA45 SWAP1 PUSH2 0x2D80 JUMP JUMPDEST PUSH1 0x9 SLOAD PUSH2 0x1400 JUMPI PUSH1 0x40 MLOAD PUSH3 0x461BCD PUSH1 0xE5 SHL DUP2 MSTORE PUSH1 0x20 PUSH1 0x4 DUP3 ADD MSTORE PUSH1 0x8 PUSH1 0x24 DUP3 ADD MSTORE PUSH8 0x217469636B657473 PUSH1 0xC0 SHL PUSH1 0x44 DUP3 ADD MSTORE PUSH1 0x64 ADD PUSH2 0xA45 JUMP JUMPDEST PUSH1 0x7 DUP1 SLOAD PUSH1 0xFF NOT AND PUSH1 0x1 OR SWAP1 SSTORE PUSH1 0x40 MLOAD PUSH32 0xE4873708E4FC11619230DD3506A5F7CB96ECE9D6D7B1C2EA9E7C46DAC3F10BAA SWAP1 PUSH2 0x143F SWAP1 TIMESTAMP DUP2 MSTORE PUSH1 0x20 ADD SWAP1 JUMP JUMPDEST PUSH1 0x40 MLOAD DUP1 SWAP2 SUB SWAP1 LOG1 JUMP JUMPDEST PUSH1 0xB DUP2 PUSH1 0x5 DUP2 LT PUSH2 0x1459 JUMPI PUSH1 0x0 DUP1 REVERT JUMPDEST PUSH1 0x20 SWAP2 DUP3 DUP3 DIV ADD SWAP2 SWAP1 MOD SWAP2 POP SLOAD SWAP1 PUSH2 0x100 EXP SWAP1 DIV PUSH1 0xFF AND DUP2 JUMP JUMPDEST PUSH1 0x9 DUP2 DUP2 SLOAD DUP2 LT PUSH2 0x1483 JUMPI PUSH1 0x0 DUP1 REVERT JUMPDEST PUSH1 0x0 SWAP2 DUP3 MSTORE PUSH1 0x20 SWAP1 SWAP2 KECCAK256 PUSH1 0x5 SWAP1 SWAP2 MUL ADD DUP1 SLOAD PUSH1 0x2 DUP3 ADD SLOAD PUSH1 0x3 DUP4 ADD SLOAD PUSH1 0x4 SWAP1 SWAP4 ADD SLOAD PUSH1 0x1 PUSH1 0x1 PUSH1 0xA0 SHL SUB SWAP1 SWAP3 AND SWAP4 POP PUSH1 0xFF SWAP1 DUP2 AND SWAP3 SWAP2 DUP1 DUP3 AND SWAP2 PUSH2 0x100 SWAP1 SWAP2 DIV AND DUP6 JUMP JUMPDEST PUSH1 0x9 SLOAD PUSH1 0x0 SWAP1 DUP2 SWAP1 DUP4 LT PUSH2 0x14ED JUMPI PUSH1 0x40 MLOAD PUSH3 0x461BCD PUSH1 0xE5 SHL DUP2 MSTORE PUSH1 0x4 ADD PUSH2 0xA45 SWAP1 PUSH2 0x2E05 JUMP JUMPDEST CALLER PUSH1 0x1 PUSH1 0x1 PUSH1 0xA0 SHL SUB AND PUSH1 0x9 DUP5 DUP2 SLOAD DUP2 LT PUSH2 0x150A JUMPI PUSH2 0x150A PUSH2 0x2D12 JUMP JUMPDEST PUSH1 0x0 SWAP2 DUP3 MSTORE PUSH1 0x20 SWAP1 SWAP2 KECCAK256 PUSH1 0x5 SWAP1 SWAP2 MUL ADD SLOAD PUSH1 0x1 PUSH1 0x1 PUSH1 0xA0 SHL SUB AND EQ PUSH2 0x155A JUMPI PUSH1 0x40 MLOAD PUSH3 0x461BCD PUSH1 0xE5 SHL DUP2 MSTORE PUSH1 0x20 PUSH1 0x4 DUP3 ADD MSTORE PUSH1 0x6 PUSH1 0x24 DUP3 ADD MSTORE PUSH6 0x21796F757273 PUSH1 0xD0 SHL PUSH1 0x44 DUP3 ADD MSTORE PUSH1 0x64 ADD PUSH2 0xA45 JUMP JUMPDEST PUSH2 0x1629 PUSH1 0x9 DUP5 DUP2 SLOAD DUP2 LT PUSH2 0x1570 JUMPI PUSH2 0x1570 PUSH2 0x2D12 JUMP JUMPDEST PUSH1 0x0 SWAP2 DUP3 MSTORE PUSH1 0x20 DUP1 DUP4 KECCAK256 PUSH1 0x40 DUP1 MLOAD PUSH1 0xC0 DUP2 ADD DUP3 MSTORE PUSH1 0x5 SWAP5 DUP6 MUL SWAP1 SWAP3 ADD DUP1 SLOAD PUSH1 0x1 PUSH1 0x1 PUSH1 0xA0 SHL SUB AND DUP4 MSTORE DUP2 MLOAD PUSH1 0xA0 DUP2 ADD SWAP3 DUP4 SWAP1 MSTORE SWAP3 SWAP6 SWAP1 SWAP5 SWAP4 DUP7 ADD SWAP4 PUSH1 0x1 DUP7 ADD SWAP3 SWAP1 SWAP2 DUP4 SWAP1 DUP6 JUMPDEST DUP3 SLOAD PUSH2 0x100 DUP4 SWAP1 EXP SWAP1 DIV PUSH1 0xFF AND DUP2 MSTORE PUSH1 0x20 PUSH1 0x1 SWAP3 DUP4 ADD DUP2 DUP2 DIV SWAP5 DUP6 ADD SWAP5 SWAP1 SWAP4 SUB SWAP1 SWAP3 MUL SWAP2 ADD DUP1 DUP5 GT PUSH2 0x15B6 JUMPI POP POP POP SWAP3 DUP5 MSTORE POP POP POP PUSH1 0x2 DUP3 ADD SLOAD PUSH1 0xFF SWAP1 DUP2 AND PUSH1 0x20 DUP4 ADD MSTORE PUSH1 0x3 DUP4 ADD SLOAD PUSH1 0x40 DUP4 ADD MSTORE PUSH1 0x4 SWAP1 SWAP3 ADD SLOAD DUP1 DUP4 AND ISZERO ISZERO PUSH1 0x60 DUP4 ADD MSTORE PUSH2 0x100 SWAP1 DIV SWAP1 SWAP2 AND ISZERO ISZERO PUSH1 0x80 SWAP1 SWAP2 ADD MSTORE PUSH2 0x25C3 JUMP JUMPDEST SWAP2 POP PUSH1 0xFF DUP3 AND ISZERO PUSH2 0x1640 JUMPI PUSH2 0x163D DUP3 PUSH2 0x2774 JUMP JUMPDEST SWAP1 POP JUMPDEST SWAP2 POP SWAP2 JUMP JUMPDEST PUSH1 0x7 SLOAD PUSH2 0x100 SWAP1 DIV PUSH1 0xFF AND PUSH2 0x166C JUMPI PUSH1 0x40 MLOAD PUSH3 0x461BCD PUSH1 0xE5 SHL DUP2 MSTORE PUSH1 0x4 ADD PUSH2 0xA45 SWAP1 PUSH2 0x2D80 JUMP JUMPDEST PUSH5 0x2540BE400 CALLVALUE EQ PUSH2 0x16AB JUMPI PUSH1 0x40 MLOAD PUSH3 0x461BCD PUSH1 0xE5 SHL DUP2 MSTORE PUSH1 0x20 PUSH1 0x4 DUP3 ADD MSTORE PUSH1 0x8 PUSH1 0x24 DUP3 ADD MSTORE PUSH8 0x109898181025A62B PUSH1 0xC1 SHL PUSH1 0x44 DUP3 ADD MSTORE PUSH1 0x64 ADD PUSH2 0xA45 JUMP JUMPDEST PUSH1 0x1 DUP2 PUSH1 0xFF AND LT ISZERO DUP1 ISZERO PUSH2 0x16C3 JUMPI POP PUSH1 0x14 PUSH1 0xFF DUP3 AND GT ISZERO JUMPDEST PUSH2 0x16F9 JUMPI PUSH1 0x40 MLOAD PUSH3 0x461BCD PUSH1 0xE5 SHL DUP2 MSTORE PUSH1 0x20 PUSH1 0x4 DUP3 ADD MSTORE PUSH1 0x7 PUSH1 0x24 DUP3 ADD MSTORE PUSH7 0x384220312D323 PUSH1 0xCC SHL PUSH1 0x44 DUP3 ADD MSTORE PUSH1 0x64 ADD PUSH2 0xA45 JUMP JUMPDEST PUSH1 0x0 JUMPDEST PUSH1 0x5 PUSH1 0xFF DUP3 AND LT ISZERO PUSH2 0x1838 JUMPI PUSH1 0x1 DUP4 DUP3 PUSH1 0xFF AND PUSH1 0x5 DUP2 LT PUSH2 0x171F JUMPI PUSH2 0x171F PUSH2 0x2D12 JUMP JUMPDEST PUSH1 0x20 MUL ADD MLOAD PUSH1 0xFF AND LT ISZERO DUP1 ISZERO PUSH2 0x1752 JUMPI POP PUSH1 0x32 DUP4 PUSH1 0xFF DUP4 AND PUSH1 0x5 DUP2 LT PUSH2 0x1747 JUMPI PUSH2 0x1747 PUSH2 0x2D12 JUMP JUMPDEST PUSH1 0x20 MUL ADD MLOAD PUSH1 0xFF AND GT ISZERO JUMPDEST PUSH2 0x178A JUMPI PUSH1 0x40 MLOAD PUSH3 0x461BCD PUSH1 0xE5 SHL DUP2 MSTORE PUSH1 0x20 PUSH1 0x4 DUP3 ADD MSTORE PUSH1 0x9 PUSH1 0x24 DUP3 ADD MSTORE PUSH9 0x6E756D7320312D353 PUSH1 0xBC SHL PUSH1 0x44 DUP3 ADD MSTORE PUSH1 0x64 ADD PUSH2 0xA45 JUMP JUMPDEST PUSH1 0x0 PUSH2 0x1797 DUP3 PUSH1 0x1 PUSH2 0x2CF9 JUMP JUMPDEST SWAP1 POP JUMPDEST PUSH1 0x5 PUSH1 0xFF DUP3 AND LT ISZERO PUSH2 0x1825 JUMPI DUP4 DUP2 PUSH1 0xFF AND PUSH1 0x5 DUP2 LT PUSH2 0x17BB JUMPI PUSH2 0x17BB PUSH2 0x2D12 JUMP JUMPDEST PUSH1 0x20 MUL ADD MLOAD PUSH1 0xFF AND DUP5 DUP4 PUSH1 0xFF AND PUSH1 0x5 DUP2 LT PUSH2 0x17D8 JUMPI PUSH2 0x17D8 PUSH2 0x2D12 JUMP JUMPDEST PUSH1 0x20 MUL ADD MLOAD PUSH1 0xFF AND SUB PUSH2 0x1813 JUMPI PUSH1 0x40 MLOAD PUSH3 0x461BCD PUSH1 0xE5 SHL DUP2 MSTORE PUSH1 0x20 PUSH1 0x4 DUP3 ADD MSTORE PUSH1 0x3 PUSH1 0x24 DUP3 ADD MSTORE PUSH3 0x64757 PUSH1 0xEC SHL PUSH1 0x44 DUP3 ADD MSTORE PUSH1 0x64 ADD PUSH2 0xA45 JUMP JUMPDEST DUP1 PUSH2 0x181D DUP2 PUSH2 0x2D28 JUMP JUMPDEST SWAP2 POP POP PUSH2 0x179A JUMP JUMPDEST POP DUP1 PUSH2 0x1830 DUP2 PUSH2 0x2D28 JUMP JUMPDEST SWAP2 POP POP PUSH2 0x16FC JUMP JUMPDEST POP PUSH1 0x0 PUSH1 0x64 PUSH2 0x184D PUSH5 0x2540BE400 PUSH1 0x55 PUSH2 0x2D47 JUMP JUMPDEST PUSH2 0x1857 SWAP2 SWAP1 PUSH2 0x2CB8 JUMP JUMPDEST SWAP1 POP PUSH1 0x0 PUSH2 0x186A DUP3 PUSH5 0x2540BE400 PUSH2 0x2CCC JUMP JUMPDEST SWAP1 POP PUSH6 0x5AF3107A4000 DUP3 PUSH1 0x4 SLOAD PUSH2 0x1881 SWAP2 SWAP1 PUSH2 0x2E22 JUMP JUMPDEST GT ISZERO PUSH2 0x18ED JUMPI PUSH1 0x4 SLOAD PUSH2 0x189A SWAP1 PUSH6 0x5AF3107A4000 PUSH2 0x2CCC JUMP JUMPDEST SWAP2 POP PUSH2 0x18AB DUP3 PUSH5 0x2540BE400 PUSH2 0x2CCC JUMP JUMPDEST SWAP1 POP PUSH32 0x9EBE77EF57C4B24DA4F1B5881D7D109547FE072871DFB6E7C4D8454C95C0F643 PUSH6 0x5AF3107A4000 PUSH1 0x40 MLOAD PUSH2 0x18E4 SWAP2 DUP2 MSTORE PUSH1 0x20 ADD SWAP1 JUMP JUMPDEST PUSH1 0x40 MLOAD DUP1 SWAP2 SUB SWAP1 LOG1 JUMPDEST DUP2 PUSH1 0x4 PUSH1 0x0 DUP3 DUP3 SLOAD PUSH2 0x18FF SWAP2 SWAP1 PUSH2 0x2E22 JUMP JUMPDEST SWAP1 SWAP2 SSTORE POP POP DUP1 ISZERO DUP1 ISZERO SWAP1 PUSH2 0x191D JUMPI POP PUSH1 0x1 SLOAD PUSH1 0x1 PUSH1 0x1 PUSH1 0xA0 SHL SUB AND ISZERO ISZERO JUMPDEST ISZERO PUSH2 0x195E JUMPI PUSH1 0x1 SLOAD PUSH1 0x40 MLOAD PUSH1 0x1 PUSH1 0x1 PUSH1 0xA0 SHL SUB SWAP1 SWAP2 AND SWAP1 DUP3 ISZERO PUSH2 0x8FC MUL SWAP1 DUP4 SWAP1 PUSH1 0x0 DUP2 DUP2 DUP2 DUP6 DUP9 DUP9 CALL SWAP4 POP POP POP POP ISZERO DUP1 ISZERO PUSH2 0x195C JUMPI RETURNDATASIZE PUSH1 0x0 DUP1 RETURNDATACOPY RETURNDATASIZE PUSH1 0x0 REVERT JUMPDEST POP JUMPDEST PUSH1 0x40 DUP1 MLOAD PUSH1 0xC0 DUP2 ADD DUP3 MSTORE CALLER DUP2 MSTORE PUSH1 0x20 DUP2 ADD DUP7 DUP2 MSTORE PUSH1 0xFF DUP7 AND SWAP3 DUP3 ADD SWAP3 SWAP1 SWAP3 MSTORE TIMESTAMP PUSH1 0x60 DUP3 ADD MSTORE PUSH1 0x0 PUSH1 0x80 DUP3 ADD DUP2 SWAP1 MSTORE PUSH1 0xA0 DUP3 ADD DUP2 SWAP1 MSTORE PUSH1 0x9 DUP1 SLOAD PUSH1 0x1 DUP2 ADD DUP3 SSTORE SWAP2 MSTORE DUP2 MLOAD PUSH32 0x6E1540171B6C0C960B71A7020D9F60077F6AF931A8BBF590DA0223DACF75C7AF PUSH1 0x5 DUP1 DUP5 MUL SWAP2 DUP3 ADD DUP1 SLOAD PUSH1 0x1 PUSH1 0x1 PUSH1 0xA0 SHL SUB NOT AND PUSH1 0x1 PUSH1 0x1 PUSH1 0xA0 SHL SUB SWAP1 SWAP5 AND SWAP4 SWAP1 SWAP4 OR DUP4 SSTORE SWAP5 MLOAD SWAP4 SWAP5 SWAP3 SWAP4 DUP6 SWAP4 PUSH2 0x1A1C SWAP3 PUSH32 0x6E1540171B6C0C960B71A7020D9F60077F6AF931A8BBF590DA0223DACF75C7B0 ADD SWAP2 SWAP1 PUSH2 0x294A JUMP JUMPDEST POP PUSH1 0x40 DUP3 DUP2 ADD MLOAD PUSH1 0x2 DUP4 ADD DUP1 SLOAD PUSH1 0xFF NOT AND PUSH1 0xFF SWAP1 SWAP3 AND SWAP2 SWAP1 SWAP2 OR SWAP1 SSTORE PUSH1 0x60 DUP4 ADD MLOAD PUSH1 0x3 DUP4 ADD SSTORE PUSH1 0x80 DUP4 ADD MLOAD PUSH1 0x4 SWAP1 SWAP3 ADD DUP1 SLOAD PUSH1 0xA0 SWAP1 SWAP5 ADD MLOAD PUSH2 0xFFFF NOT SWAP1 SWAP5 AND SWAP3 ISZERO ISZERO PUSH2 0xFF00 NOT AND SWAP3 SWAP1 SWAP3 OR PUSH2 0x100 SWAP4 ISZERO ISZERO SWAP4 SWAP1 SWAP4 MUL SWAP3 SWAP1 SWAP3 OR SWAP1 SSTORE CALLER PUSH1 0x0 SWAP1 DUP2 MSTORE PUSH1 0xA PUSH1 0x20 SWAP1 DUP2 MSTORE SWAP2 DUP2 KECCAK256 DUP1 SLOAD PUSH1 0x1 DUP2 ADD DUP3 SSTORE SWAP1 DUP3 MSTORE SWAP2 DUP2 KECCAK256 SWAP1 SWAP2 ADD DUP3 SWAP1 SSTORE PUSH1 0x5 DUP1 SLOAD SWAP2 PUSH2 0x1AA9 DUP4 PUSH2 0x2E35 JUMP JUMPDEST SWAP2 SWAP1 POP SSTORE POP CALLER PUSH1 0x1 PUSH1 0x1 PUSH1 0xA0 SHL SUB AND DUP2 PUSH32 0x2C4D767FB254C16F6C6241687EAEC37C0A8FD02886810FB0EB4ECD3CE40F5F65 DUP9 DUP9 PUSH1 0x40 MLOAD PUSH2 0x1AEA SWAP3 SWAP2 SWAP1 PUSH2 0x2E4E JUMP JUMPDEST PUSH1 0x40 MLOAD DUP1 SWAP2 SUB SWAP1 LOG3 POP POP POP POP POP POP JUMP JUMPDEST PUSH1 0x0 SLOAD PUSH1 0x1 PUSH1 0x1 PUSH1 0xA0 SHL SUB AND CALLER EQ PUSH2 0x1B24 JUMPI PUSH1 0x40 MLOAD PUSH3 0x461BCD PUSH1 0xE5 SHL DUP2 MSTORE PUSH1 0x4 ADD PUSH2 0xA45 SWAP1 PUSH2 0x2C6C JUMP JUMPDEST PUSH1 0x1 SLOAD PUSH1 0x1 PUSH1 0x1 PUSH1 0xA0 SHL SUB AND ISZERO PUSH2 0x1B63 JUMPI PUSH1 0x40 MLOAD PUSH3 0x461BCD PUSH1 0xE5 SHL DUP2 MSTORE PUSH1 0x20 PUSH1 0x4 DUP3 ADD MSTORE PUSH1 0x3 PUSH1 0x24 DUP3 ADD MSTORE PUSH3 0x1CD95D PUSH1 0xEA SHL PUSH1 0x44 DUP3 ADD MSTORE PUSH1 0x64 ADD PUSH2 0xA45 JUMP JUMPDEST PUSH1 0x1 PUSH1 0x1 PUSH1 0xA0 SHL SUB DUP3 AND ISZERO DUP1 ISZERO SWAP1 PUSH2 0x1B83 JUMPI POP PUSH1 0x1 PUSH1 0x1 PUSH1 0xA0 SHL SUB DUP2 AND ISZERO ISZERO JUMPDEST PUSH2 0x1B8C JUMPI PUSH1 0x0 DUP1 REVERT JUMPDEST PUSH1 0x1 DUP1 SLOAD PUSH1 0x1 PUSH1 0x1 PUSH1 0xA0 SHL SUB DUP1 DUP6 AND PUSH1 0x1 PUSH1 0x1 PUSH1 0xA0 SHL SUB NOT SWAP3 DUP4 AND OR SWAP1 SWAP3 SSTORE PUSH1 0x2 DUP1 SLOAD SWAP3 DUP5 AND SWAP3 SWAP1 SWAP2 AND SWAP2 SWAP1 SWAP2 OR SWAP1 SSTORE PUSH1 0x40 MLOAD PUSH1 0x0 DUP1 MLOAD PUSH1 0x20 PUSH2 0x2E9F DUP4 CODECOPY DUP2 MLOAD SWAP2 MSTORE SWAP1 PUSH2 0x1BDA SWAP1 DUP5 SWAP1 PUSH2 0x2E6C JUMP JUMPDEST PUSH1 0x40 MLOAD DUP1 SWAP2 SUB SWAP1 LOG1 PUSH1 0x0 DUP1 MLOAD PUSH1 0x20 PUSH2 0x2E9F DUP4 CODECOPY DUP2 MLOAD SWAP2 MSTORE DUP2 PUSH1 0x40 MLOAD PUSH2 0x1BFF SWAP2 SWAP1 PUSH2 0x2DD6 JUMP JUMPDEST PUSH1 0x40 MLOAD DUP1 SWAP2 SUB SWAP1 LOG1 POP POP JUMP JUMPDEST PUSH1 0x0 PUSH2 0x1C15 PUSH2 0x292C JUMP JUMPDEST PUSH1 0x0 DUP1 PUSH1 0x0 DUP1 PUSH1 0x9 DUP1 SLOAD SWAP1 POP DUP8 LT PUSH2 0x1C3F JUMPI PUSH1 0x40 MLOAD PUSH3 0x461BCD PUSH1 0xE5 SHL DUP2 MSTORE PUSH1 0x4 ADD PUSH2 0xA45 SWAP1 PUSH2 0x2E05 JUMP JUMPDEST PUSH1 0x0 PUSH1 0x9 DUP9 DUP2 SLOAD DUP2 LT PUSH2 0x1C54 JUMPI PUSH2 0x1C54 PUSH2 0x2D12 JUMP JUMPDEST PUSH1 0x0 SWAP2 DUP3 MSTORE PUSH1 0x20 DUP3 KECCAK256 PUSH1 0x5 SWAP2 DUP3 MUL ADD DUP1 SLOAD PUSH1 0x2 DUP3 ADD SLOAD PUSH1 0x3 DUP4 ADD SLOAD PUSH1 0x4 DUP5 ADD SLOAD PUSH1 0x40 DUP1 MLOAD PUSH1 0xA0 DUP2 ADD SWAP2 DUP3 SWAP1 MSTORE SWAP6 SWAP9 POP PUSH1 0x1 PUSH1 0x1 PUSH1 0xA0 SHL SUB SWAP1 SWAP5 AND SWAP7 PUSH1 0x1 DUP10 ADD SWAP7 PUSH1 0xFF SWAP5 DUP6 AND SWAP7 SWAP4 SWAP6 DUP6 DUP5 AND SWAP6 PUSH2 0x100 SWAP1 SWAP5 DIV SWAP1 SWAP4 AND SWAP4 SWAP3 DUP9 SWAP3 DUP4 SWAP1 DUP6 JUMPDEST DUP3 SLOAD PUSH2 0x100 DUP4 SWAP1 EXP SWAP1 DIV PUSH1 0xFF AND DUP2 MSTORE PUSH1 0x20 PUSH1 0x1 SWAP3 DUP4 ADD DUP2 DUP2 DIV SWAP5 DUP6 ADD SWAP5 SWAP1 SWAP4 SUB SWAP1 SWAP3 MUL SWAP2 ADD DUP1 DUP5 GT PUSH2 0x1CB1 JUMPI SWAP1 POP POP POP POP POP POP SWAP5 POP SWAP7 POP SWAP7 POP SWAP7 POP SWAP7 POP SWAP7 POP SWAP7 POP POP SWAP2 SWAP4 SWAP6 POP SWAP2 SWAP4 SWAP6 JUMP JUMPDEST PUSH1 0xA PUSH1 0x20 MSTORE DUP2 PUSH1 0x0 MSTORE PUSH1 0x40 PUSH1 0x0 KECCAK256 DUP2 DUP2 SLOAD DUP2 LT PUSH2 0x1D18 JUMPI PUSH1 0x0 DUP1 REVERT JUMPDEST SWAP1 PUSH1 0x0 MSTORE PUSH1 0x20 PUSH1 0x0 KECCAK256 ADD PUSH1 0x0 SWAP2 POP SWAP2 POP POP SLOAD DUP2 JUMP JUMPDEST PUSH1 0x0 SLOAD PUSH1 0x1 PUSH1 0x1 PUSH1 0xA0 SHL SUB AND CALLER EQ PUSH2 0x1D57 JUMPI PUSH1 0x40 MLOAD PUSH3 0x461BCD PUSH1 0xE5 SHL DUP2 MSTORE PUSH1 0x4 ADD PUSH2 0xA45 SWAP1 PUSH2 0x2C6C JUMP JUMPDEST PUSH1 0x1 PUSH1 0x1 PUSH1 0xA0 SHL SUB DUP2 AND PUSH2 0x1D6A JUMPI PUSH1 0x0 DUP1 REVERT JUMPDEST PUSH1 0x1 DUP1 SLOAD PUSH1 0x1 PUSH1 0x1 PUSH1 0xA0 SHL SUB NOT AND PUSH1 0x1 PUSH1 0x1 PUSH1 0xA0 SHL SUB DUP4 AND OR SWAP1 SSTORE PUSH1 0x40 MLOAD PUSH1 0x0 DUP1 MLOAD PUSH1 0x20 PUSH2 0x2E9F DUP4 CODECOPY DUP2 MLOAD SWAP2 MSTORE SWAP1 PUSH2 0x10BA SWAP1 DUP4 SWAP1 PUSH2 0x2E6C JUMP JUMPDEST PUSH1 0x0 SLOAD PUSH1 0x1 PUSH1 0x1 PUSH1 0xA0 SHL SUB AND CALLER EQ PUSH2 0x1DCD JUMPI PUSH1 0x40 MLOAD PUSH3 0x461BCD PUSH1 0xE5 SHL DUP2 MSTORE PUSH1 0x4 ADD PUSH2 0xA45 SWAP1 PUSH2 0x2C6C JUMP JUMPDEST PUSH6 0x5AF3107A4000 PUSH1 0x4 SLOAD GT PUSH2 0x1E0D JUMPI PUSH1 0x40 MLOAD PUSH3 0x461BCD PUSH1 0xE5 SHL DUP2 MSTORE PUSH1 0x4 ADD PUSH2 0xA45 SWAP1 PUSH1 0x20 DUP1 DUP3 MSTORE PUSH1 0x4 SWAP1 DUP3 ADD MSTORE PUSH4 0x2163617 PUSH1 0xE4 SHL PUSH1 0x40 DUP3 ADD MSTORE PUSH1 0x60 ADD SWAP1 JUMP JUMPDEST PUSH1 0x0 PUSH6 0x5AF3107A4000 PUSH1 0x4 SLOAD PUSH2 0x1E23 SWAP2 SWAP1 PUSH2 0x2CCC JUMP JUMPDEST PUSH6 0x5AF3107A4000 PUSH1 0x4 SSTORE SWAP1 POP DUP1 ISZERO DUP1 ISZERO SWAP1 PUSH2 0x1E48 JUMPI POP PUSH1 0x2 SLOAD PUSH1 0x1 PUSH1 0x1 PUSH1 0xA0 SHL SUB AND ISZERO ISZERO JUMPDEST ISZERO PUSH2 0x1E87 JUMPI PUSH1 0x2 SLOAD PUSH1 0x40 MLOAD PUSH1 0x1 PUSH1 0x1 PUSH1 0xA0 SHL SUB SWAP1 SWAP2 AND SWAP1 DUP3 ISZERO PUSH2 0x8FC MUL SWAP1 DUP4 SWAP1 PUSH1 0x0 DUP2 DUP2 DUP2 DUP6 DUP9 DUP9 CALL SWAP4 POP POP POP POP ISZERO DUP1 ISZERO PUSH2 0xB66 JUMPI RETURNDATASIZE PUSH1 0x0 DUP1 RETURNDATACOPY RETURNDATASIZE PUSH1 0x0 REVERT JUMPDEST POP JUMP JUMPDEST PUSH1 0x0 SLOAD PUSH1 0x1 PUSH1 0x1 PUSH1 0xA0 SHL SUB AND CALLER EQ PUSH2 0x1EB4 JUMPI PUSH1 0x40 MLOAD PUSH3 0x461BCD PUSH1 0xE5 SHL DUP2 MSTORE PUSH1 0x4 ADD PUSH2 0xA45 SWAP1 PUSH2 0x2C6C JUMP JUMPDEST PUSH1 0x1 PUSH1 0x1 PUSH1 0xA0 SHL SUB DUP2 AND PUSH2 0x1EC7 JUMPI PUSH1 0x0 DUP1 REVERT JUMPDEST PUSH1 0x3 DUP1 SLOAD PUSH1 0x1 PUSH1 0x1 PUSH1 0xA0 SHL SUB NOT AND PUSH1 0x1 PUSH1 0x1 PUSH1 0xA0 SHL SUB SWAP3 SWAP1 SWAP3 AND SWAP2 SWAP1 SWAP2 OR SWAP1 SSTORE JUMP JUMPDEST PUSH1 0x0 SLOAD PUSH1 0x1 PUSH1 0x1 PUSH1 0xA0 SHL SUB AND CALLER EQ PUSH2 0x1F13 JUMPI PUSH1 0x40 MLOAD PUSH3 0x461BCD PUSH1 0xE5 SHL DUP2 MSTORE PUSH1 0x4 ADD PUSH2 0xA45 SWAP1 PUSH2 0x2C6C JUMP JUMPDEST PUSH1 0x7 DUP1 SLOAD PUSH2 0xFF00 NOT DUP2 AND PUSH2 0x100 SWAP2 DUP3 SWAP1 DIV PUSH1 0xFF AND ISZERO SWAP1 SWAP2 MUL OR SWAP1 SSTORE JUMP JUMPDEST PUSH1 0x0 SLOAD PUSH1 0x1 PUSH1 0x1 PUSH1 0xA0 SHL SUB AND CALLER EQ PUSH2 0x1F5A JUMPI PUSH1 0x40 MLOAD PUSH3 0x461BCD PUSH1 0xE5 SHL DUP2 MSTORE PUSH1 0x4 ADD PUSH2 0xA45 SWAP1 PUSH2 0x2C6C JUMP JUMPDEST PUSH1 0xD SWAP9 SWAP1 SWAP9 SSTORE PUSH1 0xE SWAP7 SWAP1 SWAP7 SSTORE PUSH1 0xF SWAP5 SWAP1 SWAP5 SSTORE PUSH1 0x10 SWAP3 SWAP1 SWAP3 SSTORE PUSH1 0x11 SSTORE PUSH1 0x12 SSTORE PUSH1 0x13 SSTORE PUSH1 0x14 SSTORE PUSH1 0x15 SSTORE JUMP JUMPDEST PUSH1 0x9 SLOAD DUP2 LT PUSH2 0x1FA4 JUMPI PUSH1 0x40 MLOAD PUSH3 0x461BCD PUSH1 0xE5 SHL DUP2 MSTORE PUSH1 0x4 ADD PUSH2 0xA45 SWAP1 PUSH2 0x2E05 JUMP JUMPDEST PUSH1 0x0 PUSH1 0x9 DUP3 DUP2 SLOAD DUP2 LT PUSH2 0x1FB9 JUMPI PUSH2 0x1FB9 PUSH2 0x2D12 JUMP JUMPDEST PUSH1 0x0 SWAP2 DUP3 MSTORE PUSH1 0x20 SWAP1 SWAP2 KECCAK256 PUSH1 0x5 SWAP1 SWAP2 MUL ADD DUP1 SLOAD SWAP1 SWAP2 POP PUSH1 0x1 PUSH1 0x1 PUSH1 0xA0 SHL SUB AND CALLER EQ PUSH2 0x200E JUMPI PUSH1 0x40 MLOAD PUSH3 0x461BCD PUSH1 0xE5 SHL DUP2 MSTORE PUSH1 0x20 PUSH1 0x4 DUP3 ADD MSTORE PUSH1 0x6 PUSH1 0x24 DUP3 ADD MSTORE PUSH6 0x21796F757273 PUSH1 0xD0 SHL PUSH1 0x44 DUP3 ADD MSTORE PUSH1 0x64 ADD PUSH2 0xA45 JUMP JUMPDEST PUSH1 0x4 DUP2 ADD SLOAD PUSH1 0xFF AND PUSH2 0x204B JUMPI PUSH1 0x40 MLOAD PUSH3 0x461BCD PUSH1 0xE5 SHL DUP2 MSTORE PUSH1 0x4 ADD PUSH2 0xA45 SWAP1 PUSH1 0x20 DUP1 DUP3 MSTORE PUSH1 0x4 SWAP1 DUP3 ADD MSTORE PUSH4 0x10BBB7B7 PUSH1 0xE1 SHL PUSH1 0x40 DUP3 ADD MSTORE PUSH1 0x60 ADD SWAP1 JUMP JUMPDEST PUSH1 0x4 DUP2 ADD SLOAD PUSH2 0x100 SWAP1 DIV PUSH1 0xFF AND ISZERO PUSH2 0x208F JUMPI PUSH1 0x40 MLOAD PUSH3 0x461BCD PUSH1 0xE5 SHL DUP2 MSTORE PUSH1 0x20 PUSH1 0x4 DUP3 ADD MSTORE PUSH1 0x7 PUSH1 0x24 DUP3 ADD MSTORE PUSH7 0x18DB185A5B5959 PUSH1 0xCA SHL PUSH1 0x44 DUP3 ADD MSTORE PUSH1 0x64 ADD PUSH2 0xA45 JUMP JUMPDEST PUSH1 0x40 DUP1 MLOAD PUSH1 0xC0 DUP2 ADD DUP3 MSTORE DUP3 SLOAD PUSH1 0x1 PUSH1 0x1 PUSH1 0xA0 SHL SUB AND DUP2 MSTORE DUP2 MLOAD PUSH1 0xA0 DUP2 ADD SWAP3 DUP4 SWAP1 MSTORE PUSH1 0x1 DUP1 DUP6 ADD DUP1 SLOAD PUSH1 0xFF AND DUP4 MSTORE PUSH1 0x0 SWAP5 PUSH2 0x2126 SWAP5 SWAP4 DUP8 SWAP4 PUSH1 0x20 DUP1 DUP8 ADD SWAP5 SWAP3 SWAP4 PUSH1 0x5 SWAP3 SWAP1 SWAP2 DUP5 SWAP2 SWAP1 DUP7 ADD DUP1 DUP5 GT PUSH2 0x15B6 JUMPI POP POP POP SWAP3 DUP5 MSTORE POP POP POP PUSH1 0x2 DUP3 ADD SLOAD PUSH1 0xFF SWAP1 DUP2 AND PUSH1 0x20 DUP4 ADD MSTORE PUSH1 0x3 DUP4 ADD SLOAD PUSH1 0x40 DUP4 ADD MSTORE PUSH1 0x4 SWAP1 SWAP3 ADD SLOAD DUP1 DUP4 AND ISZERO ISZERO PUSH1 0x60 DUP4 ADD MSTORE PUSH2 0x100 SWAP1 DIV SWAP1 SWAP2 AND ISZERO ISZERO PUSH1 0x80 SWAP1 SWAP2 ADD MSTORE PUSH2 0x25C3 JUMP JUMPDEST SWAP1 POP PUSH1 0x0 PUSH2 0x2133 DUP3 PUSH2 0x2774 JUMP JUMPDEST SWAP1 POP PUSH1 0x0 DUP2 GT DUP1 ISZERO PUSH2 0x2147 JUMPI POP PUSH1 0x4 SLOAD DUP2 GT ISZERO JUMPDEST PUSH2 0x217C JUMPI PUSH1 0x40 MLOAD PUSH3 0x461BCD PUSH1 0xE5 SHL DUP2 MSTORE PUSH1 0x20 PUSH1 0x4 DUP3 ADD MSTORE PUSH1 0x6 PUSH1 0x24 DUP3 ADD MSTORE PUSH6 0x217072697A65 PUSH1 0xD0 SHL PUSH1 0x44 DUP3 ADD MSTORE PUSH1 0x64 ADD PUSH2 0xA45 JUMP JUMPDEST PUSH1 0x4 DUP1 DUP5 ADD DUP1 SLOAD PUSH2 0xFF00 NOT AND PUSH2 0x100 OR SWAP1 SSTORE DUP1 SLOAD DUP3 SWAP2 SWAP1 PUSH1 0x0 SWAP1 PUSH2 0x21A1 SWAP1 DUP5 SWAP1 PUSH2 0x2CCC JUMP JUMPDEST SWAP1 SWAP2 SSTORE POP POP PUSH1 0x40 MLOAD CALLER SWAP1 DUP3 ISZERO PUSH2 0x8FC MUL SWAP1 DUP4 SWAP1 PUSH1 0x0 DUP2 DUP2 DUP2 DUP6 DUP9 DUP9 CALL SWAP4 POP POP POP POP ISZERO DUP1 ISZERO PUSH2 0x21D3 JUMPI RETURNDATASIZE PUSH1 0x0 DUP1 RETURNDATACOPY RETURNDATASIZE PUSH1 0x0 REVERT JUMPDEST POP PUSH1 0x40 DUP1 MLOAD CALLER DUP2 MSTORE PUSH1 0x20 DUP2 ADD DUP4 SWAP1 MSTORE PUSH32 0x95681E512BC0FE659E195E06C283EADA494316F3D801213E48E7101AF92BF770 SWAP2 ADD PUSH1 0x40 MLOAD DUP1 SWAP2 SUB SWAP1 LOG1 POP POP POP POP JUMP JUMPDEST PUSH1 0x0 JUMPDEST PUSH1 0x5 DUP2 PUSH1 0xFF AND LT ISZERO PUSH2 0xB66 JUMPI PUSH1 0x0 PUSH2 0x222F DUP3 PUSH1 0x1 PUSH2 0x2CF9 JUMP JUMPDEST SWAP1 POP JUMPDEST PUSH1 0x5 DUP2 PUSH1 0xFF AND LT ISZERO PUSH2 0x2313 JUMPI DUP3 DUP2 PUSH1 0xFF AND PUSH1 0x5 DUP2 LT PUSH2 0x2253 JUMPI PUSH2 0x2253 PUSH2 0x2D12 JUMP JUMPDEST PUSH1 0x20 MUL ADD MLOAD PUSH1 0xFF AND DUP4 DUP4 PUSH1 0xFF AND PUSH1 0x5 DUP2 LT PUSH2 0x2270 JUMPI PUSH2 0x2270 PUSH2 0x2D12 JUMP JUMPDEST PUSH1 0x20 MUL ADD MLOAD PUSH1 0xFF AND GT ISZERO PUSH2 0x2301 JUMPI PUSH1 0x0 DUP4 DUP4 PUSH1 0xFF AND PUSH1 0x5 DUP2 LT PUSH2 0x2295 JUMPI PUSH2 0x2295 PUSH2 0x2D12 JUMP JUMPDEST PUSH1 0x20 MUL ADD MLOAD SWAP1 POP DUP4 DUP3 PUSH1 0xFF AND PUSH1 0x5 DUP2 LT PUSH2 0x22B1 JUMPI PUSH2 0x22B1 PUSH2 0x2D12 JUMP JUMPDEST PUSH1 0x20 MUL ADD MLOAD DUP5 DUP5 PUSH1 0xFF AND PUSH1 0x5 DUP2 LT PUSH2 0x22CB JUMPI PUSH2 0x22CB PUSH2 0x2D12 JUMP JUMPDEST PUSH1 0x20 MUL ADD SWAP1 PUSH1 0xFF AND SWAP1 DUP2 PUSH1 0xFF AND DUP2 MSTORE POP POP DUP1 DUP5 DUP4 PUSH1 0xFF AND PUSH1 0x5 DUP2 LT PUSH2 0x22F2 JUMPI PUSH2 0x22F2 PUSH2 0x2D12 JUMP JUMPDEST PUSH1 0xFF SWAP1 SWAP3 AND PUSH1 0x20 SWAP3 SWAP1 SWAP3 MUL ADD MSTORE POP JUMPDEST DUP1 PUSH2 0x230B DUP2 PUSH2 0x2D28 JUMP JUMPDEST SWAP2 POP POP PUSH2 0x2232 JUMP JUMPDEST POP DUP1 PUSH2 0x231E DUP2 PUSH2 0x2D28 JUMP JUMPDEST SWAP2 POP POP PUSH2 0x2216 JUMP JUMPDEST PUSH1 0x0 DUP1 DUP1 JUMPDEST PUSH1 0x9 SLOAD DUP2 LT ISZERO PUSH2 0x25BD JUMPI PUSH1 0x9 DUP2 DUP2 SLOAD DUP2 LT PUSH2 0x2348 JUMPI PUSH2 0x2348 PUSH2 0x2D12 JUMP JUMPDEST SWAP1 PUSH1 0x0 MSTORE PUSH1 0x20 PUSH1 0x0 KECCAK256 SWAP1 PUSH1 0x5 MUL ADD PUSH1 0x4 ADD PUSH1 0x1 SWAP1 SLOAD SWAP1 PUSH2 0x100 EXP SWAP1 DIV PUSH1 0xFF AND PUSH2 0x25AB JUMPI PUSH1 0x0 PUSH2 0x2383 PUSH1 0x9 DUP4 DUP2 SLOAD DUP2 LT PUSH2 0x1570 JUMPI PUSH2 0x1570 PUSH2 0x2D12 JUMP JUMPDEST SWAP1 POP PUSH1 0xFF DUP2 AND ISZERO PUSH2 0x25A9 JUMPI PUSH1 0x0 PUSH2 0x2399 DUP3 PUSH2 0x2774 JUMP JUMPDEST SWAP1 POP PUSH1 0x0 DUP2 GT DUP1 ISZERO PUSH2 0x23AD JUMPI POP PUSH1 0x4 SLOAD DUP2 GT ISZERO JUMPDEST ISZERO PUSH2 0x25A7 JUMPI PUSH1 0x1 PUSH1 0x9 DUP5 DUP2 SLOAD DUP2 LT PUSH2 0x23C7 JUMPI PUSH2 0x23C7 PUSH2 0x2D12 JUMP JUMPDEST SWAP1 PUSH1 0x0 MSTORE PUSH1 0x20 PUSH1 0x0 KECCAK256 SWAP1 PUSH1 0x5 MUL ADD PUSH1 0x4 ADD PUSH1 0x0 PUSH2 0x100 EXP DUP2 SLOAD DUP2 PUSH1 0xFF MUL NOT AND SWAP1 DUP4 ISZERO ISZERO MUL OR SWAP1 SSTORE POP PUSH1 0x1 PUSH1 0x9 DUP5 DUP2 SLOAD DUP2 LT PUSH2 0x2404 JUMPI PUSH2 0x2404 PUSH2 0x2D12 JUMP JUMPDEST SWAP1 PUSH1 0x0 MSTORE PUSH1 0x20 PUSH1 0x0 KECCAK256 SWAP1 PUSH1 0x5 MUL ADD PUSH1 0x4 ADD PUSH1 0x1 PUSH2 0x100 EXP DUP2 SLOAD DUP2 PUSH1 0xFF MUL NOT AND SWAP1 DUP4 ISZERO ISZERO MUL OR SWAP1 SSTORE POP DUP1 PUSH1 0x4 PUSH1 0x0 DUP3 DUP3 SLOAD PUSH2 0x243E SWAP2 SWAP1 PUSH2 0x2CCC JUMP JUMPDEST SWAP1 SWAP2 SSTORE POP DUP5 SWAP1 POP PUSH2 0x244E DUP2 PUSH2 0x2E35 JUMP JUMPDEST SWAP5 POP POP PUSH1 0x9 DUP4 DUP2 SLOAD DUP2 LT PUSH2 0x2464 JUMPI PUSH2 0x2464 PUSH2 0x2D12 JUMP JUMPDEST PUSH1 0x0 SWAP2 DUP3 MSTORE PUSH1 0x20 DUP3 KECCAK256 PUSH1 0x5 SWAP1 SWAP2 MUL ADD SLOAD PUSH1 0x40 MLOAD PUSH1 0x1 PUSH1 0x1 PUSH1 0xA0 SHL SUB SWAP1 SWAP2 AND SWAP2 DUP4 ISZERO PUSH2 0x8FC MUL SWAP2 DUP5 SWAP2 DUP2 DUP2 DUP2 DUP6 DUP9 DUP9 CALL SWAP4 POP POP POP POP ISZERO DUP1 ISZERO PUSH2 0x24A9 JUMPI RETURNDATASIZE PUSH1 0x0 DUP1 RETURNDATACOPY RETURNDATASIZE PUSH1 0x0 REVERT JUMPDEST POP PUSH1 0x0 PUSH2 0x24B5 DUP4 PUSH2 0x2858 JUMP JUMPDEST SWAP1 POP PUSH1 0x0 DUP2 GT DUP1 ISZERO PUSH2 0x24D1 JUMPI POP PUSH1 0x3 SLOAD PUSH1 0x1 PUSH1 0x1 PUSH1 0xA0 SHL SUB AND ISZERO ISZERO JUMPDEST ISZERO PUSH2 0x252D JUMPI DUP1 PUSH1 0x8 PUSH1 0x0 PUSH1 0x9 DUP8 DUP2 SLOAD DUP2 LT PUSH2 0x24EE JUMPI PUSH2 0x24EE PUSH2 0x2D12 JUMP JUMPDEST PUSH1 0x0 SWAP2 DUP3 MSTORE PUSH1 0x20 DUP1 DUP4 KECCAK256 PUSH1 0x5 SWAP1 SWAP3 MUL SWAP1 SWAP2 ADD SLOAD PUSH1 0x1 PUSH1 0x1 PUSH1 0xA0 SHL SUB AND DUP4 MSTORE DUP3 ADD SWAP3 SWAP1 SWAP3 MSTORE PUSH1 0x40 ADD DUP2 KECCAK256 DUP1 SLOAD SWAP1 SWAP2 SWAP1 PUSH2 0x2527 SWAP1 DUP5 SWAP1 PUSH2 0x2E22 JUMP JUMPDEST SWAP1 SWAP2 SSTORE POP POP JUMPDEST PUSH32 0xE53871C02DF76033909299B24B6C5050EB30B7BA0A7736DD72375C1FE844EBE PUSH1 0x9 DUP6 DUP2 SLOAD DUP2 LT PUSH2 0x2561 JUMPI PUSH2 0x2561 PUSH2 0x2D12 JUMP JUMPDEST PUSH1 0x0 SWAP2 DUP3 MSTORE PUSH1 0x20 SWAP2 DUP3 SWAP1 KECCAK256 PUSH1 0x5 SWAP2 SWAP1 SWAP2 MUL ADD SLOAD PUSH1 0x40 DUP1 MLOAD PUSH1 0x1 PUSH1 0x1 PUSH1 0xA0 SHL SUB SWAP1 SWAP3 AND DUP3 MSTORE SWAP2 DUP2 ADD DUP8 SWAP1 MSTORE PUSH1 0xFF DUP7 AND DUP2 DUP4 ADD MSTORE PUSH1 0x60 DUP2 ADD DUP6 SWAP1 MSTORE SWAP1 MLOAD SWAP1 DUP2 SWAP1 SUB PUSH1 0x80 ADD SWAP1 LOG1 POP JUMPDEST POP JUMPDEST POP JUMPDEST DUP1 PUSH2 0x25B5 DUP2 PUSH2 0x2E35 JUMP JUMPDEST SWAP2 POP POP PUSH2 0x232B JUMP JUMPDEST POP SWAP2 SWAP1 POP JUMP JUMPDEST PUSH1 0x0 DUP1 DUP1 JUMPDEST PUSH1 0x5 PUSH1 0xFF DUP3 AND LT ISZERO PUSH2 0x266F JUMPI PUSH1 0x0 JUMPDEST PUSH1 0x5 PUSH1 0xFF DUP3 AND LT ISZERO PUSH2 0x265C JUMPI PUSH1 0xB DUP2 PUSH1 0xFF AND PUSH1 0x5 DUP2 LT PUSH2 0x25F9 JUMPI PUSH2 0x25F9 PUSH2 0x2D12 JUMP JUMPDEST PUSH1 0x20 SWAP2 DUP3 DUP3 DIV ADD SWAP2 SWAP1 MOD SWAP1 SLOAD SWAP1 PUSH2 0x100 EXP SWAP1 DIV PUSH1 0xFF AND PUSH1 0xFF AND DUP6 PUSH1 0x20 ADD MLOAD DUP4 PUSH1 0xFF AND PUSH1 0x5 DUP2 LT PUSH2 0x262B JUMPI PUSH2 0x262B PUSH2 0x2D12 JUMP JUMPDEST PUSH1 0x20 MUL ADD MLOAD PUSH1 0xFF AND SUB PUSH2 0x264A JUMPI DUP3 PUSH2 0x2642 DUP2 PUSH2 0x2D28 JUMP JUMPDEST SWAP4 POP POP PUSH2 0x265C JUMP JUMPDEST DUP1 PUSH2 0x2654 DUP2 PUSH2 0x2D28 JUMP JUMPDEST SWAP2 POP POP PUSH2 0x25D7 JUMP JUMPDEST POP DUP1 PUSH2 0x2667 DUP2 PUSH2 0x2D28 JUMP JUMPDEST SWAP2 POP POP PUSH2 0x25C8 JUMP JUMPDEST POP PUSH1 0xC SLOAD PUSH1 0x40 DUP5 ADD MLOAD PUSH1 0xFF SWAP2 DUP3 AND SWAP1 DUP3 AND EQ SWAP1 DUP3 AND PUSH1 0x5 EQ DUP1 ISZERO PUSH2 0x2690 JUMPI POP DUP1 JUMPDEST ISZERO PUSH2 0x269F JUMPI POP PUSH1 0x1 SWAP4 SWAP3 POP POP POP JUMP JUMPDEST DUP2 PUSH1 0xFF AND PUSH1 0x5 SUB PUSH2 0x26B4 JUMPI POP PUSH1 0x2 SWAP4 SWAP3 POP POP POP JUMP JUMPDEST DUP2 PUSH1 0xFF AND PUSH1 0x4 EQ DUP1 ISZERO PUSH2 0x26C4 JUMPI POP DUP1 JUMPDEST ISZERO PUSH2 0x26D3 JUMPI POP PUSH1 0x3 SWAP4 SWAP3 POP POP POP JUMP JUMPDEST DUP2 PUSH1 0xFF AND PUSH1 0x4 SUB PUSH2 0x26E8 JUMPI POP PUSH1 0x4 SWAP4 SWAP3 POP POP POP JUMP JUMPDEST DUP2 PUSH1 0xFF AND PUSH1 0x3 EQ DUP1 ISZERO PUSH2 0x26F8 JUMPI POP DUP1 JUMPDEST ISZERO PUSH2 0x2707 JUMPI POP PUSH1 0x5 SWAP4 SWAP3 POP POP POP JUMP JUMPDEST DUP2 PUSH1 0xFF AND PUSH1 0x3 SUB PUSH2 0x271C JUMPI POP PUSH1 0x6 SWAP4 SWAP3 POP POP POP JUMP JUMPDEST DUP2 PUSH1 0xFF AND PUSH1 0x2 EQ DUP1 ISZERO PUSH2 0x272C JUMPI POP DUP1 JUMPDEST ISZERO PUSH2 0x273B JUMPI POP PUSH1 0x7 SWAP4 SWAP3 POP POP POP JUMP JUMPDEST DUP2 PUSH1 0xFF AND PUSH1 0x1 EQ DUP1 ISZERO PUSH2 0x274B JUMPI POP DUP1 JUMPDEST ISZERO PUSH2 0x275A JUMPI POP PUSH1 0x8 SWAP4 SWAP3 POP POP POP JUMP JUMPDEST DUP1 ISZERO PUSH2 0x276A JUMPI POP PUSH1 0x9 SWAP4 SWAP3 POP POP POP JUMP JUMPDEST POP PUSH1 0x0 SWAP4 SWAP3 POP POP POP JUMP JUMPDEST PUSH1 0x0 DUP1 DUP3 PUSH1 0xFF AND PUSH1 0x1 SUB PUSH2 0x278B JUMPI POP PUSH2 0xFA0 PUSH2 0x2832 JUMP JUMPDEST DUP3 PUSH1 0xFF AND PUSH1 0x2 SUB PUSH2 0x279F JUMPI POP PUSH2 0x5DC PUSH2 0x2832 JUMP JUMPDEST DUP3 PUSH1 0xFF AND PUSH1 0x3 SUB PUSH2 0x27B3 JUMPI POP PUSH2 0x320 PUSH2 0x2832 JUMP JUMPDEST DUP3 PUSH1 0xFF AND PUSH1 0x4 SUB PUSH2 0x27C7 JUMPI POP PUSH2 0x1F4 PUSH2 0x2832 JUMP JUMPDEST DUP3 PUSH1 0xFF AND PUSH1 0x5 SUB PUSH2 0x27DB JUMPI POP PUSH2 0x258 PUSH2 0x2832 JUMP JUMPDEST DUP3 PUSH1 0xFF AND PUSH1 0x6 SUB PUSH2 0x27EF JUMPI POP PUSH2 0x1C2 PUSH2 0x2832 JUMP JUMPDEST DUP3 PUSH1 0xFF AND PUSH1 0x7 SUB PUSH2 0x2803 JUMPI POP PUSH2 0x12C PUSH2 0x2832 JUMP JUMPDEST DUP3 PUSH1 0xFF AND PUSH1 0x8 SUB PUSH2 0x2816 JUMPI POP PUSH1 0x96 PUSH2 0x2832 JUMP JUMPDEST DUP3 PUSH1 0xFF AND PUSH1 0x9 SUB PUSH2 0x2829 JUMPI POP PUSH1 0x7D PUSH2 0x2832 JUMP JUMPDEST POP PUSH1 0x0 SWAP3 SWAP2 POP POP JUMP JUMPDEST PUSH2 0x2710 DUP2 PUSH2 0xFFFF AND PUSH1 0x4 SLOAD PUSH2 0x2847 SWAP2 SWAP1 PUSH2 0x2D47 JUMP JUMPDEST PUSH2 0x2851 SWAP2 SWAP1 PUSH2 0x2CB8 JUMP JUMPDEST SWAP4 SWAP3 POP POP POP JUMP JUMPDEST PUSH1 0x0 DUP2 PUSH1 0xFF AND PUSH1 0x1 SUB PUSH2 0x286D JUMPI POP POP PUSH1 0xD SLOAD SWAP1 JUMP JUMPDEST DUP2 PUSH1 0xFF AND PUSH1 0x2 SUB PUSH2 0x2880 JUMPI POP POP PUSH1 0xE SLOAD SWAP1 JUMP JUMPDEST DUP2 PUSH1 0xFF AND PUSH1 0x3 SUB PUSH2 0x2893 JUMPI POP POP PUSH1 0xF SLOAD SWAP1 JUMP JUMPDEST DUP2 PUSH1 0xFF AND PUSH1 0x4 SUB PUSH2 0x28A6 JUMPI POP POP PUSH1 0x10 SLOAD SWAP1 JUMP JUMPDEST DUP2 PUSH1 0xFF AND PUSH1 0x5 SUB PUSH2 0x28B9 JUMPI POP POP PUSH1 0x11 SLOAD SWAP1 JUMP JUMPDEST DUP2 PUSH1 0xFF AND PUSH1 0x6 SUB PUSH2 0x28CC JUMPI POP POP PUSH1 0x12 SLOAD SWAP1 JUMP JUMPDEST DUP2 PUSH1 0xFF AND PUSH1 0x7 SUB PUSH2 0x28DF JUMPI POP POP PUSH1 0x13 SLOAD SWAP1 JUMP JUMPDEST DUP2 PUSH1 0xFF AND PUSH1 0x8 SUB PUSH2 0x28F2 JUMPI POP POP PUSH1 0x14 SLOAD SWAP1 JUMP JUMPDEST DUP2 PUSH1 0xFF AND PUSH1 0x9 SUB PUSH2 0x2905 JUMPI POP POP PUSH1 0x15 SLOAD SWAP1 JUMP JUMPDEST POP PUSH1 0x0 SWAP2 SWAP1 POP JUMP JUMPDEST PUSH1 0x40 MLOAD DUP1 PUSH2 0x660 ADD PUSH1 0x40 MSTORE DUP1 PUSH1 0x33 SWAP1 PUSH1 0x20 DUP3 MUL DUP1 CALLDATASIZE DUP4 CALLDATACOPY POP SWAP2 SWAP3 SWAP2 POP POP JUMP JUMPDEST PUSH1 0x40 MLOAD DUP1 PUSH1 0xA0 ADD PUSH1 0x40 MSTORE DUP1 PUSH1 0x5 SWAP1 PUSH1 0x20 DUP3 MUL DUP1 CALLDATASIZE DUP4 CALLDATACOPY POP SWAP2 SWAP3 SWAP2 POP POP JUMP JUMPDEST PUSH1 0x1 DUP4 ADD SWAP2 DUP4 SWAP1 DUP3 ISZERO PUSH2 0x29CD JUMPI SWAP2 PUSH1 0x20 MUL DUP3 ADD PUSH1 0x0 JUMPDEST DUP4 DUP3 GT ISZERO PUSH2 0x299E JUMPI DUP4 MLOAD DUP4 DUP3 PUSH2 0x100 EXP DUP2 SLOAD DUP2 PUSH1 0xFF MUL NOT AND SWAP1 DUP4 PUSH1 0xFF AND MUL OR SWAP1 SSTORE POP SWAP3 PUSH1 0x20 ADD SWAP3 PUSH1 0x1 ADD PUSH1 0x20 DUP2 PUSH1 0x0 ADD DIV SWAP3 DUP4 ADD SWAP3 PUSH1 0x1 SUB MUL PUSH2 0x2960 JUMP JUMPDEST DUP1 ISZERO PUSH2 0x29CB JUMPI DUP3 DUP2 PUSH2 0x100 EXP DUP2 SLOAD SWAP1 PUSH1 0xFF MUL NOT AND SWAP1 SSTORE PUSH1 0x1 ADD PUSH1 0x20 DUP2 PUSH1 0x0 ADD DIV SWAP3 DUP4 ADD SWAP3 PUSH1 0x1 SUB MUL PUSH2 0x299E JUMP JUMPDEST POP JUMPDEST POP PUSH2 0x29D9 SWAP3 SWAP2 POP PUSH2 0x29DD JUMP JUMPDEST POP SWAP1 JUMP JUMPDEST JUMPDEST DUP1 DUP3 GT ISZERO PUSH2 0x29D9 JUMPI PUSH1 0x0 DUP2 SSTORE PUSH1 0x1 ADD PUSH2 0x29DE JUMP JUMPDEST PUSH1 0x0 PUSH1 0x20 DUP3 DUP5 SUB SLT ISZERO PUSH2 0x2A04 JUMPI PUSH1 0x0 DUP1 REVERT JUMPDEST POP CALLDATALOAD SWAP2 SWAP1 POP JUMP JUMPDEST DUP1 CALLDATALOAD PUSH1 0x1 PUSH1 0x1 PUSH1 0xA0 SHL SUB DUP2 AND DUP2 EQ PUSH2 0x2A22 JUMPI PUSH1 0x0 DUP1 REVERT JUMPDEST SWAP2 SWAP1 POP JUMP JUMPDEST PUSH1 0x0 PUSH1 0x20 DUP3 DUP5 SUB SLT ISZERO PUSH2 0x2A39 JUMPI PUSH1 0x0 DUP1 REVERT JUMPDEST PUSH2 0x2851 DUP3 PUSH2 0x2A0B JUMP JUMPDEST PUSH1 0x20 DUP1 DUP3 MSTORE DUP3 MLOAD DUP3 DUP3 ADD DUP2 SWAP1 MSTORE PUSH1 0x0 SWAP2 SWAP1 DUP5 DUP3 ADD SWAP1 PUSH1 0x40 DUP6 ADD SWAP1 DUP5 JUMPDEST DUP2 DUP2 LT ISZERO PUSH2 0x2A7A JUMPI DUP4 MLOAD DUP4 MSTORE SWAP3 DUP5 ADD SWAP3 SWAP2 DUP5 ADD SWAP2 PUSH1 0x1 ADD PUSH2 0x2A5E JUMP JUMPDEST POP SWAP1 SWAP7 SWAP6 POP POP POP POP POP POP JUMP JUMPDEST PUSH4 0x4E487B71 PUSH1 0xE0 SHL PUSH1 0x0 MSTORE PUSH1 0x41 PUSH1 0x4 MSTORE PUSH1 0x24 PUSH1 0x0 REVERT JUMPDEST DUP1 CALLDATALOAD PUSH1 0xFF DUP2 AND DUP2 EQ PUSH2 0x2A22 JUMPI PUSH1 0x0 DUP1 REVERT JUMPDEST PUSH1 0x0 DUP1 PUSH1 0xC0 DUP4 DUP6 SUB SLT ISZERO PUSH2 0x2AC0 JUMPI PUSH1 0x0 DUP1 REVERT JUMPDEST DUP4 PUSH1 0x1F DUP5 ADD SLT PUSH2 0x2ACF JUMPI PUSH1 0x0 DUP1 REVERT JUMPDEST PUSH1 0x40 MLOAD PUSH1 0xA0 DUP2 ADD DUP2 DUP2 LT PUSH8 0xFFFFFFFFFFFFFFFF DUP3 GT OR ISZERO PUSH2 0x2AF2 JUMPI PUSH2 0x2AF2 PUSH2 0x2A86 JUMP JUMPDEST PUSH1 0x40 MSTORE DUP1 PUSH1 0xA0 DUP6 ADD DUP7 DUP2 GT ISZERO PUSH2 0x2B07 JUMPI PUSH1 0x0 DUP1 REVERT JUMPDEST DUP6 JUMPDEST DUP2 DUP2 LT ISZERO PUSH2 0x2B28 JUMPI PUSH2 0x2B1A DUP2 PUSH2 0x2A9C JUMP JUMPDEST DUP4 MSTORE PUSH1 0x20 SWAP3 DUP4 ADD SWAP3 ADD PUSH2 0x2B09 JUMP JUMPDEST POP DUP3 SWAP5 POP PUSH2 0x2B35 DUP2 PUSH2 0x2A9C JUMP JUMPDEST SWAP4 POP POP POP POP SWAP3 POP SWAP3 SWAP1 POP JUMP JUMPDEST PUSH1 0x0 DUP1 PUSH1 0x40 DUP4 DUP6 SUB SLT ISZERO PUSH2 0x2B54 JUMPI PUSH1 0x0 DUP1 REVERT JUMPDEST PUSH2 0x2B5D DUP4 PUSH2 0x2A0B JUMP JUMPDEST SWAP2 POP PUSH2 0x2B6B PUSH1 0x20 DUP5 ADD PUSH2 0x2A0B JUMP JUMPDEST SWAP1 POP SWAP3 POP SWAP3 SWAP1 POP JUMP JUMPDEST DUP1 PUSH1 0x0 JUMPDEST PUSH1 0x5 DUP2 LT ISZERO PUSH2 0x127B JUMPI DUP2 MLOAD PUSH1 0xFF AND DUP5 MSTORE PUSH1 0x20 SWAP4 DUP5 ADD SWAP4 SWAP1 SWAP2 ADD SWAP1 PUSH1 0x1 ADD PUSH2 0x2B78 JUMP JUMPDEST PUSH1 0x1 PUSH1 0x1 PUSH1 0xA0 SHL SUB DUP8 AND DUP2 MSTORE PUSH2 0x140 DUP2 ADD PUSH2 0x2BB8 PUSH1 0x20 DUP4 ADD DUP9 PUSH2 0x2B74 JUMP JUMPDEST PUSH1 0xFF SWAP6 SWAP1 SWAP6 AND PUSH1 0xC0 DUP3 ADD MSTORE PUSH1 0xE0 DUP2 ADD SWAP4 SWAP1 SWAP4 MSTORE SWAP1 ISZERO ISZERO PUSH2 0x100 DUP4 ADD MSTORE ISZERO ISZERO PUSH2 0x120 SWAP1 SWAP2 ADD MSTORE SWAP3 SWAP2 POP POP JUMP JUMPDEST PUSH1 0x0 DUP1 PUSH1 0x40 DUP4 DUP6 SUB SLT ISZERO PUSH2 0x2BF6 JUMPI PUSH1 0x0 DUP1 REVERT JUMPDEST PUSH2 0x2BFF DUP4 PUSH2 0x2A0B JUMP JUMPDEST SWAP5 PUSH1 0x20 SWAP4 SWAP1 SWAP4 ADD CALLDATALOAD SWAP4 POP POP POP JUMP JUMPDEST PUSH1 0x0 DUP1 PUSH1 0x0 DUP1 PUSH1 0x0 DUP1 PUSH1 0x0 DUP1 PUSH1 0x0 PUSH2 0x120 DUP11 DUP13 SUB SLT ISZERO PUSH2 0x2C2C JUMPI PUSH1 0x0 DUP1 REVERT JUMPDEST POP POP DUP8 CALLDATALOAD SWAP10 PUSH1 0x20 DUP10 ADD CALLDATALOAD SWAP10 POP PUSH1 0x40 DUP10 ADD CALLDATALOAD SWAP9 PUSH1 0x60 DUP2 ADD CALLDATALOAD SWAP9 POP PUSH1 0x80 DUP2 ADD CALLDATALOAD SWAP8 POP PUSH1 0xA0 DUP2 ADD CALLDATALOAD SWAP7 POP PUSH1 0xC0 DUP2 ADD CALLDATALOAD SWAP6 POP PUSH1 0xE0 DUP2 ADD CALLDATALOAD SWAP5 POP PUSH2 0x100 ADD CALLDATALOAD SWAP3 POP SWAP1 POP JUMP JUMPDEST PUSH1 0x20 DUP1 DUP3 MSTORE PUSH1 0x6 SWAP1 DUP3 ADD MSTORE PUSH6 0x10B7BBB732B9 PUSH1 0xD1 SHL PUSH1 0x40 DUP3 ADD MSTORE PUSH1 0x60 ADD SWAP1 JUMP JUMPDEST PUSH4 0x4E487B71 PUSH1 0xE0 SHL PUSH1 0x0 MSTORE PUSH1 0x12 PUSH1 0x4 MSTORE PUSH1 0x24 PUSH1 0x0 REVERT JUMPDEST PUSH4 0x4E487B71 PUSH1 0xE0 SHL PUSH1 0x0 MSTORE PUSH1 0x11 PUSH1 0x4 MSTORE PUSH1 0x24 PUSH1 0x0 REVERT JUMPDEST PUSH1 0x0 DUP3 PUSH2 0x2CC7 JUMPI PUSH2 0x2CC7 PUSH2 0x2C8C JUMP JUMPDEST POP DIV SWAP1 JUMP JUMPDEST DUP2 DUP2 SUB DUP2 DUP2 GT ISZERO PUSH2 0x2CDF JUMPI PUSH2 0x2CDF PUSH2 0x2CA2 JUMP JUMPDEST SWAP3 SWAP2 POP POP JUMP JUMPDEST PUSH1 0x0 DUP3 PUSH2 0x2CF4 JUMPI PUSH2 0x2CF4 PUSH2 0x2C8C JUMP JUMPDEST POP MOD SWAP1 JUMP JUMPDEST PUSH1 0xFF DUP2 DUP2 AND DUP4 DUP3 AND ADD SWAP1 DUP2 GT ISZERO PUSH2 0x2CDF JUMPI PUSH2 0x2CDF PUSH2 0x2CA2 JUMP JUMPDEST PUSH4 0x4E487B71 PUSH1 0xE0 SHL PUSH1 0x0 MSTORE PUSH1 0x32 PUSH1 0x4 MSTORE PUSH1 0x24 PUSH1 0x0 REVERT JUMPDEST PUSH1 0x0 PUSH1 0xFF DUP3 AND PUSH1 0xFF DUP2 SUB PUSH2 0x2D3E JUMPI PUSH2 0x2D3E PUSH2 0x2CA2 JUMP JUMPDEST PUSH1 0x1 ADD SWAP3 SWAP2 POP POP JUMP JUMPDEST DUP1 DUP3 MUL DUP2 ISZERO DUP3 DUP3 DIV DUP5 EQ OR PUSH2 0x2CDF JUMPI PUSH2 0x2CDF PUSH2 0x2CA2 JUMP JUMPDEST PUSH1 0x0 PUSH1 0x20 DUP3 DUP5 SUB SLT ISZERO PUSH2 0x2D70 JUMPI PUSH1 0x0 DUP1 REVERT JUMPDEST DUP2 MLOAD DUP1 ISZERO ISZERO DUP2 EQ PUSH2 0x2851 JUMPI PUSH1 0x0 DUP1 REVERT JUMPDEST PUSH1 0x20 DUP1 DUP3 MSTORE PUSH1 0x7 SWAP1 DUP3 ADD MSTORE PUSH7 0x21616374697665 PUSH1 0xC8 SHL PUSH1 0x40 DUP3 ADD MSTORE PUSH1 0x60 ADD SWAP1 JUMP JUMPDEST SWAP3 DUP4 MSTORE PUSH1 0x60 SWAP2 SWAP1 SWAP2 SHL PUSH12 0xFFFFFFFFFFFFFFFFFFFFFFFF NOT AND PUSH1 0x20 DUP4 ADD MSTORE PUSH1 0xF8 SHL PUSH1 0x1 PUSH1 0x1 PUSH1 0xF8 SHL SUB NOT AND PUSH1 0x34 DUP3 ADD MSTORE PUSH1 0x35 ADD SWAP1 JUMP JUMPDEST PUSH1 0x40 DUP1 DUP3 MSTORE PUSH1 0x4 SWAP1 DUP3 ADD MSTORE PUSH4 0x141BDBDB PUSH1 0xE2 SHL PUSH1 0x60 DUP3 ADD MSTORE PUSH1 0x1 PUSH1 0x1 PUSH1 0xA0 SHL SUB SWAP2 SWAP1 SWAP2 AND PUSH1 0x20 DUP3 ADD MSTORE PUSH1 0x80 ADD SWAP1 JUMP JUMPDEST PUSH1 0x20 DUP1 DUP3 MSTORE PUSH1 0x3 SWAP1 DUP3 ADD MSTORE PUSH3 0x85A59 PUSH1 0xEA SHL PUSH1 0x40 DUP3 ADD MSTORE PUSH1 0x60 ADD SWAP1 JUMP JUMPDEST DUP1 DUP3 ADD DUP1 DUP3 GT ISZERO PUSH2 0x2CDF JUMPI PUSH2 0x2CDF PUSH2 0x2CA2 JUMP JUMPDEST PUSH1 0x0 PUSH1 0x1 DUP3 ADD PUSH2 0x2E47 JUMPI PUSH2 0x2E47 PUSH2 0x2CA2 JUMP JUMPDEST POP PUSH1 0x1 ADD SWAP1 JUMP JUMPDEST PUSH1 0xC0 DUP2 ADD PUSH2 0x2E5C DUP3 DUP6 PUSH2 0x2B74 JUMP JUMPDEST PUSH1 0xFF DUP4 AND PUSH1 0xA0 DUP4 ADD MSTORE SWAP4 SWAP3 POP POP POP JUMP JUMPDEST PUSH1 0x40 DUP1 DUP3 MSTORE PUSH1 0x7 SWAP1 DUP3 ADD MSTORE PUSH7 0x141C9BDA9958DD PUSH1 0xCA SHL PUSH1 0x60 DUP3 ADD MSTORE PUSH1 0x1 PUSH1 0x1 PUSH1 0xA0 SHL SUB SWAP2 SWAP1 SWAP2 AND PUSH1 0x20 DUP3 ADD MSTORE PUSH1 0x80 ADD SWAP1 JUMP INVALID PUSH16 0xF3A4003B90BE84595BEB5F6ACB9D54F8 DUP12 0xD3 0xE6 0xDD BASEFEE DUP8 0xCA PUSH8 0xE53DC9645465EAA2 PUSH5 0x6970667358 0x22 SLT KECCAK256 DUP5 0xB6 EXTCODEHASH 0xDD 0xAE 0x28 PUSH11 0x90A615E1DFD5377B7E5AF2 0xCD DUP7 SWAP5 BALANCE 0xEC 0x4D 0xBB 0x26 0x2D 0xAA SAR 0x2F LOG0 EXTCODESIZE PUSH5 0x736F6C6343 STOP ADDMOD EQ STOP CALLER "},"methodIdentifiers":{"EIGHT_RANGE()":"19afe17c","MAIN_COUNT()":"6a821ae7","MAIN_RANGE()":"8bbaf508","MAX_POOL()":"2c3c91c9","POOL_RETENTION()":"04216ef9","PRIZE_1_8B()":"4b272e21","PRIZE_2_8B()":"320b3aae","PRIZE_3()":"0c76119a","PRIZE_3_8B()":"9e57a947","PRIZE_4()":"e1353968","PRIZE_4_8B()":"fb060cec","PRIZE_8B_ONLY()":"48b1cf90","PRIZE_JACKPOT()":"20540dea","PRIZE_MATCH5()":"44ec62d3","TICKET_PRICE()":"1a95f15f","buyTicket(uint8[5],uint8)":"6f586e7b","checkTicketResult(uint256)":"56611354","claimKPEPEPrize()":"0d89f698","claimPrize(uint256)":"d7098154","completeDraw()":"0bdeecbd","drawInProgress()":"9e649db8","emergencyWithdrawKLV()":"8d33a3f2","getPendingKPEPE(address)":"0b17abf6","getPlayerTickets(address)":"23413198","getPoolBalance()":"abd70aa2","getTicket(uint256)":"7dc379fa","initializeWallets(address,address)":"70e4a54f","kpepeJackpotPrize()":"4e41ef5a","kpepeMatch18BPrize()":"8d9de401","kpepeMatch28BPrize()":"8f7903dd","kpepeMatch38BPrize()":"a9509b0a","kpepeMatch3Prize()":"85aecc68","kpepeMatch48BPrize()":"7774dbbd","kpepeMatch4Prize()":"5b4a4b55","kpepeMatch5Prize()":"e339908c","kpepeMatch8BOnlyPrize()":"c0e13534","kpepePrizesPending(address)":"6e12c8f5","kpepeToken()":"21793ea5","lastDrawTime()":"5cbbd635","owner()":"8da5cb5b","playerTicketIds(address,uint256)":"864c407c","prizePool()":"719ce73e","prizePoolWallet()":"f02edbaf","projectWallet()":"beb08ab9","quickPick()":"1a0894f1","roundActive()":"027471b0","setKPEPEPrizes(uint256,uint256,uint256,uint256,uint256,uint256,uint256,uint256,uint256)":"bfa84201","setKPEPEToken(address)":"970e72af","setPrizePoolWallet(address)":"232fbda1","setProjectWallet(address)":"8a780447","startDraw()":"2ae168a6","tickets(uint256)":"50b44712","toggleRound()":"ad10b4b4","totalTicketsSold()":"34701db8","winningEightBall()":"7fdf45b1","winningNumbers(uint256)":"4e45f095","withdrawPrizePool(uint256)":"05e1b115"}}}}}