{
  "_format": "hh-sol-artifact-1",
  "contractName": "KPEPEJackpot",
  "sourceName": "contracts/kpepe-jackpot.sol",
  "abi": [
    {
      "inputs": [],
      "stateMutability": "nonpayable",
      "type": "constructor"
    },
    {
      "anonymous": false,
      "inputs": [
        {
          "indexed": false,
          "internalType": "uint8[5]",
          "name": "nums",
          "type": "uint8[5]"
        },
        {
          "indexed": false,
          "internalType": "uint8",
          "name": "eb",
          "type": "uint8"
        },
        {
          "indexed": false,
          "internalType": "uint256",
          "name": "pool",
          "type": "uint256"
        },
        {
          "indexed": false,
          "internalType": "uint256",
          "name": "winners",
          "type": "uint256"
        }
      ],
      "name": "DrawCompleted",
      "type": "event"
    },
    {
      "anonymous": false,
      "inputs": [
        {
          "indexed": false,
          "internalType": "uint256",
          "name": "ts",
          "type": "uint256"
        }
      ],
      "name": "DrawStarted",
      "type": "event"
    },
    {
      "anonymous": false,
      "inputs": [
        {
          "indexed": false,
          "internalType": "uint256",
          "name": "amt",
          "type": "uint256"
        }
      ],
      "name": "PoolCapped",
      "type": "event"
    },
    {
      "anonymous": false,
      "inputs": [
        {
          "indexed": false,
          "internalType": "address",
          "name": "p",
          "type": "address"
        },
        {
          "indexed": false,
          "internalType": "uint256",
          "name": "amt",
          "type": "uint256"
        }
      ],
      "name": "PrizeClaimed",
      "type": "event"
    },
    {
      "anonymous": false,
      "inputs": [
        {
          "indexed": false,
          "internalType": "address",
          "name": "p",
          "type": "address"
        },
        {
          "indexed": false,
          "internalType": "uint256",
          "name": "id",
          "type": "uint256"
        },
        {
          "indexed": false,
          "internalType": "uint8",
          "name": "tier",
          "type": "uint8"
        },
        {
          "indexed": false,
          "internalType": "uint256",
          "name": "amt",
          "type": "uint256"
        }
      ],
      "name": "PrizeDistributed",
      "type": "event"
    },
    {
      "anonymous": false,
      "inputs": [
        {
          "indexed": true,
          "internalType": "uint256",
          "name": "id",
          "type": "uint256"
        },
        {
          "indexed": true,
          "internalType": "address",
          "name": "player",
          "type": "address"
        },
        {
          "indexed": false,
          "internalType": "uint8[5]",
          "name": "nums",
          "type": "uint8[5]"
        },
        {
          "indexed": false,
          "internalType": "uint8",
          "name": "eb",
          "type": "uint8"
        }
      ],
      "name": "TicketPurchased",
      "type": "event"
    },
    {
      "anonymous": false,
      "inputs": [
        {
          "indexed": false,
          "internalType": "string",
          "name": "walletType",
          "type": "string"
        },
        {
          "indexed": false,
          "internalType": "address",
          "name": "addr",
          "type": "address"
        }
      ],
      "name": "WalletUpdated",
      "type": "event"
    },
    {
      "inputs": [],
      "name": "EIGHT_RANGE",
      "outputs": [
        {
          "internalType": "uint8",
          "name": "",
          "type": "uint8"
        }
      ],
      "stateMutability": "view",
      "type": "function"
    },
    {
      "inputs": [],
      "name": "MAIN_COUNT",
      "outputs": [
        {
          "internalType": "uint8",
          "name": "",
          "type": "uint8"
        }
      ],
      "stateMutability": "view",
      "type": "function"
    },
    {
      "inputs": [],
      "name": "MAIN_RANGE",
      "outputs": [
        {
          "internalType": "uint8",
          "name": "",
          "type": "uint8"
        }
      ],
      "stateMutability": "view",
      "type": "function"
    },
    {
      "inputs": [],
      "name": "MAX_POOL",
      "outputs": [
        {
          "internalType": "uint256",
          "name": "",
          "type": "uint256"
        }
      ],
      "stateMutability": "view",
      "type": "function"
    },
    {
      "inputs": [],
      "name": "POOL_RETENTION",
      "outputs": [
        {
          "internalType": "uint16",
          "name": "",
          "type": "uint16"
        }
      ],
      "stateMutability": "view",
      "type": "function"
    },
    {
      "inputs": [],
      "name": "PRIZE_1_8B",
      "outputs": [
        {
          "internalType": "uint16",
          "name": "",
          "type": "uint16"
        }
      ],
      "stateMutability": "view",
      "type": "function"
    },
    {
      "inputs": [],
      "name": "PRIZE_2_8B",
      "outputs": [
        {
          "internalType": "uint16",
          "name": "",
          "type": "uint16"
        }
      ],
      "stateMutability": "view",
      "type": "function"
    },
    {
      "inputs": [],
      "name": "PRIZE_3",
      "outputs": [
        {
          "internalType": "uint16",
          "name": "",
          "type": "uint16"
        }
      ],
      "stateMutability": "view",
      "type": "function"
    },
    {
      "inputs": [],
      "name": "PRIZE_3_8B",
      "outputs": [
        {
          "internalType": "uint16",
          "name": "",
          "type": "uint16"
        }
      ],
      "stateMutability": "view",
      "type": "function"
    },
    {
      "inputs": [],
      "name": "PRIZE_4",
      "outputs": [
        {
          "internalType": "uint16",
          "name": "",
          "type": "uint16"
        }
      ],
      "stateMutability": "view",
      "type": "function"
    },
    {
      "inputs": [],
      "name": "PRIZE_4_8B",
      "outputs": [
        {
          "internalType": "uint16",
          "name": "",
          "type": "uint16"
        }
      ],
      "stateMutability": "view",
      "type": "function"
    },
    {
      "inputs": [],
      "name": "PRIZE_8B_ONLY",
      "outputs": [
        {
          "internalType": "uint16",
          "name": "",
          "type": "uint16"
        }
      ],
      "stateMutability": "view",
      "type": "function"
    },
    {
      "inputs": [],
      "name": "PRIZE_JACKPOT",
      "outputs": [
        {
          "internalType": "uint16",
          "name": "",
          "type": "uint16"
        }
      ],
      "stateMutability": "view",
      "type": "function"
    },
    {
      "inputs": [],
      "name": "PRIZE_MATCH5",
      "outputs": [
        {
          "internalType": "uint16",
          "name": "",
          "type": "uint16"
        }
      ],
      "stateMutability": "view",
      "type": "function"
    },
    {
      "inputs": [],
      "name": "TICKET_PRICE",
      "outputs": [
        {
          "internalType": "uint256",
          "name": "",
          "type": "uint256"
        }
      ],
      "stateMutability": "view",
      "type": "function"
    },
    {
      "inputs": [
        {
          "internalType": "uint8[5]",
          "name": "nums",
          "type": "uint8[5]"
        },
        {
          "internalType": "uint8",
          "name": "eb",
          "type": "uint8"
        }
      ],
      "name": "buyTicket",
      "outputs": [],
      "stateMutability": "payable",
      "type": "function"
    },
    {
      "inputs": [
        {
          "internalType": "uint256",
          "name": "id",
          "type": "uint256"
        }
      ],
      "name": "checkTicketResult",
      "outputs": [
        {
          "internalType": "uint8",
          "name": "tier",
          "type": "uint8"
        },
        {
          "internalType": "uint256",
          "name": "prize",
          "type": "uint256"
        }
      ],
      "stateMutability": "view",
      "type": "function"
    },
    {
      "inputs": [],
      "name": "claimKPEPEPrize",
      "outputs": [],
      "stateMutability": "nonpayable",
      "type": "function"
    },
    {
      "inputs": [
        {
          "internalType": "uint256",
          "name": "id",
          "type": "uint256"
        }
      ],
      "name": "claimPrize",
      "outputs": [],
      "stateMutability": "nonpayable",
      "type": "function"
    },
    {
      "inputs": [],
      "name": "completeDraw",
      "outputs": [],
      "stateMutability": "nonpayable",
      "type": "function"
    },
    {
      "inputs": [],
      "name": "drawInProgress",
      "outputs": [
        {
          "internalType": "bool",
          "name": "",
          "type": "bool"
        }
      ],
      "stateMutability": "view",
      "type": "function"
    },
    {
      "inputs": [],
      "name": "emergencyWithdrawKLV",
      "outputs": [],
      "stateMutability": "nonpayable",
      "type": "function"
    },
    {
      "inputs": [
        {
          "internalType": "address",
          "name": "a",
          "type": "address"
        }
      ],
      "name": "getPendingKPEPE",
      "outputs": [
        {
          "internalType": "uint256",
          "name": "",
          "type": "uint256"
        }
      ],
      "stateMutability": "view",
      "type": "function"
    },
    {
      "inputs": [
        {
          "internalType": "address",
          "name": "a",
          "type": "address"
        }
      ],
      "name": "getPlayerTickets",
      "outputs": [
        {
          "internalType": "uint256[]",
          "name": "",
          "type": "uint256[]"
        }
      ],
      "stateMutability": "view",
      "type": "function"
    },
    {
      "inputs": [],
      "name": "getPoolBalance",
      "outputs": [
        {
          "internalType": "uint256",
          "name": "",
          "type": "uint256"
        }
      ],
      "stateMutability": "view",
      "type": "function"
    },
    {
      "inputs": [
        {
          "internalType": "uint256",
          "name": "id",
          "type": "uint256"
        }
      ],
      "name": "getTicket",
      "outputs": [
        {
          "internalType": "address",
          "name": "",
          "type": "address"
        },
        {
          "internalType": "uint8[5]",
          "name": "",
          "type": "uint8[5]"
        },
        {
          "internalType": "uint8",
          "name": "",
          "type": "uint8"
        },
        {
          "internalType": "uint256",
          "name": "",
          "type": "uint256"
        },
        {
          "internalType": "bool",
          "name": "",
          "type": "bool"
        },
        {
          "internalType": "bool",
          "name": "",
          "type": "bool"
        }
      ],
      "stateMutability": "view",
      "type": "function"
    },
    {
      "inputs": [
        {
          "internalType": "address",
          "name": "pw",
          "type": "address"
        },
        {
          "internalType": "address",
          "name": "ppw",
          "type": "address"
        }
      ],
      "name": "initializeWallets",
      "outputs": [],
      "stateMutability": "nonpayable",
      "type": "function"
    },
    {
      "inputs": [],
      "name": "kpepeJackpotPrize",
      "outputs": [
        {
          "internalType": "uint256",
          "name": "",
          "type": "uint256"
        }
      ],
      "stateMutability": "view",
      "type": "function"
    },
    {
      "inputs": [],
      "name": "kpepeMatch18BPrize",
      "outputs": [
        {
          "internalType": "uint256",
          "name": "",
          "type": "uint256"
        }
      ],
      "stateMutability": "view",
      "type": "function"
    },
    {
      "inputs": [],
      "name": "kpepeMatch28BPrize",
      "outputs": [
        {
          "internalType": "uint256",
          "name": "",
          "type": "uint256"
        }
      ],
      "stateMutability": "view",
      "type": "function"
    },
    {
      "inputs": [],
      "name": "kpepeMatch38BPrize",
      "outputs": [
        {
          "internalType": "uint256",
          "name": "",
          "type": "uint256"
        }
      ],
      "stateMutability": "view",
      "type": "function"
    },
    {
      "inputs": [],
      "name": "kpepeMatch3Prize",
      "outputs": [
        {
          "internalType": "uint256",
          "name": "",
          "type": "uint256"
        }
      ],
      "stateMutability": "view",
      "type": "function"
    },
    {
      "inputs": [],
      "name": "kpepeMatch48BPrize",
      "outputs": [
        {
          "internalType": "uint256",
          "name": "",
          "type": "uint256"
        }
      ],
      "stateMutability": "view",
      "type": "function"
    },
    {
      "inputs": [],
      "name": "kpepeMatch4Prize",
      "outputs": [
        {
          "internalType": "uint256",
          "name": "",
          "type": "uint256"
        }
      ],
      "stateMutability": "view",
      "type": "function"
    },
    {
      "inputs": [],
      "name": "kpepeMatch5Prize",
      "outputs": [
        {
          "internalType": "uint256",
          "name": "",
          "type": "uint256"
        }
      ],
      "stateMutability": "view",
      "type": "function"
    },
    {
      "inputs": [],
      "name": "kpepeMatch8BOnlyPrize",
      "outputs": [
        {
          "internalType": "uint256",
          "name": "",
          "type": "uint256"
        }
      ],
      "stateMutability": "view",
      "type": "function"
    },
    {
      "inputs": [
        {
          "internalType": "address",
          "name": "",
          "type": "address"
        }
      ],
      "name": "kpepePrizesPending",
      "outputs": [
        {
          "internalType": "uint256",
          "name": "",
          "type": "uint256"
        }
      ],
      "stateMutability": "view",
      "type": "function"
    },
    {
      "inputs": [],
      "name": "kpepeToken",
      "outputs": [
        {
          "internalType": "address",
          "name": "",
          "type": "address"
        }
      ],
      "stateMutability": "view",
      "type": "function"
    },
    {
      "inputs": [],
      "name": "lastDrawTime",
      "outputs": [
        {
          "internalType": "uint256",
          "name": "",
          "type": "uint256"
        }
      ],
      "stateMutability": "view",
      "type": "function"
    },
    {
      "inputs": [],
      "name": "owner",
      "outputs": [
        {
          "internalType": "address",
          "name": "",
          "type": "address"
        }
      ],
      "stateMutability": "view",
      "type": "function"
    },
    {
      "inputs": [
        {
          "internalType": "address",
          "name": "",
          "type": "address"
        },
        {
          "internalType": "uint256",
          "name": "",
          "type": "uint256"
        }
      ],
      "name": "playerTicketIds",
      "outputs": [
        {
          "internalType": "uint256",
          "name": "",
          "type": "uint256"
        }
      ],
      "stateMutability": "view",
      "type": "function"
    },
    {
      "inputs": [],
      "name": "prizePool",
      "outputs": [
        {
          "internalType": "uint256",
          "name": "",
          "type": "uint256"
        }
      ],
      "stateMutability": "view",
      "type": "function"
    },
    {
      "inputs": [],
      "name": "prizePoolWallet",
      "outputs": [
        {
          "internalType": "address",
          "name": "",
          "type": "address"
        }
      ],
      "stateMutability": "view",
      "type": "function"
    },
    {
      "inputs": [],
      "name": "projectWallet",
      "outputs": [
        {
          "internalType": "address",
          "name": "",
          "type": "address"
        }
      ],
      "stateMutability": "view",
      "type": "function"
    },
    {
      "inputs": [],
      "name": "quickPick",
      "outputs": [],
      "stateMutability": "payable",
      "type": "function"
    },
    {
      "inputs": [],
      "name": "roundActive",
      "outputs": [
        {
          "internalType": "bool",
          "name": "",
          "type": "bool"
        }
      ],
      "stateMutability": "view",
      "type": "function"
    },
    {
      "inputs": [
        {
          "internalType": "uint256",
          "name": "j",
          "type": "uint256"
        },
        {
          "internalType": "uint256",
          "name": "m5",
          "type": "uint256"
        },
        {
          "internalType": "uint256",
          "name": "m48",
          "type": "uint256"
        },
        {
          "internalType": "uint256",
          "name": "m4",
          "type": "uint256"
        },
        {
          "internalType": "uint256",
          "name": "m38",
          "type": "uint256"
        },
        {
          "internalType": "uint256",
          "name": "m3",
          "type": "uint256"
        },
        {
          "internalType": "uint256",
          "name": "m28",
          "type": "uint256"
        },
        {
          "internalType": "uint256",
          "name": "m18",
          "type": "uint256"
        },
        {
          "internalType": "uint256",
          "name": "m8",
          "type": "uint256"
        }
      ],
      "name": "setKPEPEPrizes",
      "outputs": [],
      "stateMutability": "nonpayable",
      "type": "function"
    },
    {
      "inputs": [
        {
          "internalType": "address",
          "name": "t",
          "type": "address"
        }
      ],
      "name": "setKPEPEToken",
      "outputs": [],
      "stateMutability": "nonpayable",
      "type": "function"
    },
    {
      "inputs": [
        {
          "internalType": "address",
          "name": "w",
          "type": "address"
        }
      ],
      "name": "setPrizePoolWallet",
      "outputs": [],
      "stateMutability": "nonpayable",
      "type": "function"
    },
    {
      "inputs": [
        {
          "internalType": "address",
          "name": "w",
          "type": "address"
        }
      ],
      "name": "setProjectWallet",
      "outputs": [],
      "stateMutability": "nonpayable",
      "type": "function"
    },
    {
      "inputs": [],
      "name": "startDraw",
      "outputs": [],
      "stateMutability": "nonpayable",
      "type": "function"
    },
    {
      "inputs": [
        {
          "internalType": "uint256",
          "name": "",
          "type": "uint256"
        }
      ],
      "name": "tickets",
      "outputs": [
        {
          "internalType": "address",
          "name": "player",
          "type": "address"
        },
        {
          "internalType": "uint8",
          "name": "eightBall",
          "type": "uint8"
        },
        {
          "internalType": "uint256",
          "name": "purchaseTime",
          "type": "uint256"
        },
        {
          "internalType": "bool",
          "name": "hasWon",
          "type": "bool"
        },
        {
          "internalType": "bool",
          "name": "prizeClaimed",
          "type": "bool"
        }
      ],
      "stateMutability": "view",
      "type": "function"
    },
    {
      "inputs": [],
      "name": "toggleRound",
      "outputs": [],
      "stateMutability": "nonpayable",
      "type": "function"
    },
    {
      "inputs": [],
      "name": "totalTicketsSold",
      "outputs": [
        {
          "internalType": "uint256",
          "name": "",
          "type": "uint256"
        }
      ],
      "stateMutability": "view",
      "type": "function"
    },
    {
      "inputs": [],
      "name": "winningEightBall",
      "outputs": [
        {
          "internalType": "uint8",
          "name": "",
          "type": "uint8"
        }
      ],
      "stateMutability": "view",
      "type": "function"
    },
    {
      "inputs": [
        {
          "internalType": "uint256",
          "name": "",
          "type": "uint256"
        }
      ],
      "name": "winningNumbers",
      "outputs": [
        {
          "internalType": "uint8",
          "name": "",
          "type": "uint8"
        }
      ],
      "stateMutability": "view",
      "type": "function"
    },
    {
      "inputs": [
        {
          "internalType": "uint256",
          "name": "amt",
          "type": "uint256"
        }
      ],
      "name": "withdrawPrizePool",
      "outputs": [],
      "stateMutability": "nonpayable",
      "type": "function"
    },
    {
      "stateMutability": "payable",
      "type": "receive"
    }
  ],
  "bytecode": "0x608060405234801561001057600080fd5b50600080546001600160a01b031916331790556007805461ff00191661010017905542600655612ef4806100456000396000f3fe60806040526004361061037a5760003560e01c80636e12c8f5116101d15780638f7903dd11610102578063beb08ab9116100a0578063e13539681161006f578063e1353968146109b9578063e339908c146109cf578063f02edbaf146109e5578063fb060cec14610a0557600080fd5b8063beb08ab914610943578063bfa8420114610963578063c0e1353414610983578063d70981541461099957600080fd5b80639e649db8116100dc5780639e649db8146108e9578063a9509b0a14610903578063abd70aa214610919578063ad10b4b41461092e57600080fd5b80638f7903dd1461089d578063970e72af146108b35780639e57a947146108d357600080fd5b806385aecc681161016f5780638bbaf508116101495780638bbaf5081461083d5780638d33a3f2146108525780638d9de401146108675780638da5cb5b1461087d57600080fd5b806385aecc68146107e7578063864c407c146107fd5780638a7804471461081d57600080fd5b8063719ce73e116101ab578063719ce73e1461076f5780637774dbbd146107855780637dc379fa1461079b5780637fdf45b1146107cd57600080fd5b80636e12c8f51461070f5780636f586e7b1461073c57806370e4a54f1461074f57600080fd5b80632ae168a6116102ab5780634e41ef5a11610249578063566113541161022357806356611354146106955780635b4a4b55146106ce5780635cbbd635146106e45780636a821ae7146106fa57600080fd5b80634e41ef5a146106075780634e45f0951461061d57806350b447121461063d57600080fd5b806334701db81161028557806334701db8146105b157806344ec62d3146105c757806348b1cf90146105dd5780634b272e21146105f257600080fd5b80632ae168a61461056c5780632c3c91c914610581578063320b3aae1461059b57600080fd5b806319afe17c1161031857806320540dea116102f257806320540dea146104d157806321793ea5146104e7578063232fbda11461051f578063234131981461053f57600080fd5b806319afe17c146104895780631a0894f1146104b05780631a95f15f146104b857600080fd5b80630b17abf6116103545780630b17abf6146104055780630bdeecbd146104495780630c76119a1461045e5780630d89f6981461047457600080fd5b8063027471b01461038657806304216ef9146103ba57806305e1b115146103e357600080fd5b3661038157005b600080fd5b34801561039257600080fd5b506007546103a590610100900460ff1681565b60405190151581526020015b60405180910390f35b3480156103c657600080fd5b506103d06107b781565b60405161ffff90911681526020016103b1565b3480156103ef57600080fd5b506104036103fe3660046129f2565b610a1b565b005b34801561041157600080fd5b5061043b610420366004612a27565b6001600160a01b031660009081526008602052604090205490565b6040519081526020016103b1565b34801561045557600080fd5b50610403610b6a565b34801561046a57600080fd5b506103d06101c281565b34801561048057600080fd5b50610403610f42565b34801561049557600080fd5b5061049e601481565b60405160ff90911681526020016103b1565b6104036110c5565b3480156104c457600080fd5b5061043b6402540be40081565b3480156104dd57600080fd5b506103d0610fa081565b3480156104f357600080fd5b50600354610507906001600160a01b031681565b6040516001600160a01b0390911681526020016103b1565b34801561052b57600080fd5b5061040361053a366004612a27565b611281565b34801561054b57600080fd5b5061055f61055a366004612a27565b6112f7565b6040516103b19190612a42565b34801561057857600080fd5b50610403611363565b34801561058d57600080fd5b5061043b655af3107a400081565b3480156105a757600080fd5b506103d061012c81565b3480156105bd57600080fd5b5061043b60055481565b3480156105d357600080fd5b506103d06105dc81565b3480156105e957600080fd5b506103d0607d81565b3480156105fe57600080fd5b506103d0609681565b34801561061357600080fd5b5061043b600d5481565b34801561062957600080fd5b5061049e6106383660046129f2565b611449565b34801561064957600080fd5b5061065d6106583660046129f2565b611473565b604080516001600160a01b03909616865260ff909416602086015292840191909152151560608301521515608082015260a0016103b1565b3480156106a157600080fd5b506106b56106b03660046129f2565b6114c7565b6040805160ff90931683526020830191909152016103b1565b3480156106da57600080fd5b5061043b60105481565b3480156106f057600080fd5b5061043b60065481565b34801561070657600080fd5b5061049e600581565b34801561071b57600080fd5b5061043b61072a366004612a27565b60086020526000908152604090205481565b61040361074a366004612aad565b611645565b34801561075b57600080fd5b5061040361076a366004612b41565b611afa565b34801561077b57600080fd5b5061043b60045481565b34801561079157600080fd5b5061043b600f5481565b3480156107a757600080fd5b506107bb6107b63660046129f2565b611c0b565b6040516103b196959493929190612b9a565b3480156107d957600080fd5b50600c5461049e9060ff1681565b3480156107f357600080fd5b5061043b60125481565b34801561080957600080fd5b5061043b610818366004612be3565b611cfc565b34801561082957600080fd5b50610403610838366004612a27565b611d2d565b34801561084957600080fd5b5061049e603281565b34801561085e57600080fd5b50610403611da3565b34801561087357600080fd5b5061043b60145481565b34801561088957600080fd5b50600054610507906001600160a01b031681565b3480156108a957600080fd5b5061043b60135481565b3480156108bf57600080fd5b506104036108ce366004612a27565b611e8a565b3480156108df57600080fd5b506103d061025881565b3480156108f557600080fd5b506007546103a59060ff1681565b34801561090f57600080fd5b5061043b60115481565b34801561092557600080fd5b5060045461043b565b34801561093a57600080fd5b50610403611ee9565b34801561094f57600080fd5b50600154610507906001600160a01b031681565b34801561096f57600080fd5b5061040361097e366004612c0d565b611f30565b34801561098f57600080fd5b5061043b60155481565b3480156109a557600080fd5b506104036109b43660046129f2565b611f83565b3480156109c557600080fd5b506103d06101f481565b3480156109db57600080fd5b5061043b600e5481565b3480156109f157600080fd5b50600254610507906001600160a01b031681565b348015610a1157600080fd5b506103d061032081565b6000546001600160a01b03163314610a4e5760405162461bcd60e51b8152600401610a4590612c6c565b60405180910390fd5b600454811115610a8b5760405162461bcd60e51b81526020600482015260086024820152672162616c616e636560c01b6044820152606401610a45565b6002546001600160a01b0316610acd5760405162461bcd60e51b8152602060048201526007602482015266085dd85b1b195d60ca1b6044820152606401610a45565b600a600454610adc9190612cb8565b811115610b155760405162461bcd60e51b81526020600482015260076024820152666d61782031302560c81b6044820152606401610a45565b8060046000828254610b279190612ccc565b90915550506002546040516001600160a01b039091169082156108fc029083906000818181858888f19350505050158015610b66573d6000803e3d6000fd5b5050565b6000546001600160a01b03163314610b945760405162461bcd60e51b8152600401610a4590612c6c565b600c54610100900460ff1615610bd95760405162461bcd60e51b815260206004820152600a6024820152697265656e7472616e637960b01b6044820152606401610a45565b600c805461ff00191661010017905560075460ff16610c225760405162461bcd60e51b8152602060048201526005602482015264216472617760d81b6044820152606401610a45565b600954610c5c5760405162461bcd60e51b8152602060048201526008602482015267217469636b65747360c01b6044820152606401610a45565b6000610c69600143612ccc565b60095460045460408051934060208501524290840152606080840192909252608083015233901b6bffffffffffffffffffffffff191660a082015260b401604051602081830303815290604052805190602001209050610cc761290d565b60005b600560ff82161015610dbf5760005b604051603290610d05908690859060200191825260f81b6001600160f81b031916602082015260210190565b6040516020818303038152906040528051906020012060001c610d289190612ce5565b610d33906001612cf9565b9050828160ff1660338110610d4a57610d4a612d12565b6020020151610cd9576001838260ff1660338110610d6a57610d6a612d12565b9115156020909202015280600b60ff841660058110610d8b57610d8b612d12565b602091828204019190066101000a81548160ff021916908360ff160217905550508080610db790612d28565b915050610cca565b506040805160a0810191829052610e1391600b90600590826000855b825461010083900a900460ff16815260206001928301818104948501949093039092029101808411610ddb5790505050505050612213565b604080516020808201859052601960fa1b828401528251602181840301815260419092019092528051910120610e4b90601490612ce5565b610e56906001612cf9565b600c805460ff191660ff929092169190911790556000610e74612326565b90506127106107b761ffff16600454610e8d9190612d47565b610e979190612cb8565b60048190556007805460ff1916905542600655600c5460408051600b5460ff8181168352600882901c8116602080850191909152601083901c821694840194909452601882901c81166060840152921c82166080820152911660a082015260c081019190915260e081018290527f66b82fff7433c0384d24698c2f596f1c62dd755c20531009ac86c6fbf955960c906101000160405180910390a15050600c805461ff001916905550565b3360009081526008602052604090205480610f8a5760405162461bcd60e51b81526020600482015260086024820152672170656e64696e6760c01b6044820152606401610a45565b6003546001600160a01b0316610fcb5760405162461bcd60e51b815260206004820152600660248201526510ba37b5b2b760d11b6044820152606401610a45565b3360008181526008602052604080822091909155600354905163a9059cbb60e01b81526004810192909252602482018390526001600160a01b03169063a9059cbb906044016020604051808303816000875af115801561102f573d6000803e3d6000fd5b505050506040513d601f19601f820116820180604052508101906110539190612d5e565b6110885760405162461bcd60e51b8152600401610a459060208082526004908201526319985a5b60e21b604082015260600190565b60408051338152602081018390527f95681e512bc0fe659e195e06c283eada494316f3d801213e48e7101af92bf77091015b60405180910390a150565b600754610100900460ff166110ec5760405162461bcd60e51b8152600401610a4590612d80565b6402540be400341461112b5760405162461bcd60e51b8152602060048201526008602482015267109898181025a62b60c11b6044820152606401610a45565b6000611138600143612ccc565b40905061114361292c565b61114b61290d565b60005b600560ff8216101561121a5760005b60405160329061117590879033908690602001612da1565b6040516020818303038152906040528051906020012060001c6111989190612ce5565b6111a3906001612cf9565b9050828160ff16603381106111ba576111ba612d12565b602002015161115d576001838260ff16603381106111da576111da612d12565b91151560209092020152808460ff8416600581106111fa576111fa612d12565b60ff9092166020929092020152508061121281612d28565b91505061114e565b5061122482612213565b6000601460ff168433606460405160200161124193929190612da1565b6040516020818303038152906040528051906020012060001c6112649190612ce5565b61126f906001612cf9565b905061127b8382611645565b50505050565b6000546001600160a01b031633146112ab5760405162461bcd60e51b8152600401610a4590612c6c565b6001600160a01b0381166112be57600080fd5b600280546001600160a01b0319166001600160a01b038316179055604051600080516020612e9f833981519152906110ba908390612dd6565b6001600160a01b0381166000908152600a602090815260409182902080548351818402810184019094528084526060939283018282801561135757602002820191906000526020600020905b815481526020019060010190808311611343575b50505050509050919050565b60075460ff161561139f5760405162461bcd60e51b8152600401610a45906020808252600490820152636472617760e01b604082015260600190565b600754610100900460ff166113c65760405162461bcd60e51b8152600401610a4590612d80565b6009546114005760405162461bcd60e51b8152602060048201526008602482015267217469636b65747360c01b6044820152606401610a45565b6007805460ff191660011790556040517fe4873708e4fc11619230dd3506a5f7cb96ece9d6d7b1c2ea9e7c46dac3f10baa9061143f9042815260200190565b60405180910390a1565b600b816005811061145957600080fd5b60209182820401919006915054906101000a900460ff1681565b6009818154811061148357600080fd5b600091825260209091206005909102018054600282015460038301546004909301546001600160a01b03909216935060ff9081169291808216916101009091041685565b600954600090819083106114ed5760405162461bcd60e51b8152600401610a4590612e05565b336001600160a01b03166009848154811061150a5761150a612d12565b60009182526020909120600590910201546001600160a01b03161461155a5760405162461bcd60e51b815260206004820152600660248201526521796f75727360d01b6044820152606401610a45565b6116296009848154811061157057611570612d12565b600091825260208083206040805160c081018252600594850290920180546001600160a01b03168352815160a08101928390529295909493860193600186019290918390855b825461010083900a900460ff168152602060019283018181049485019490930390920291018084116115b657505050928452505050600282015460ff90811660208301526003830154604083015260049092015480831615156060830152610100900490911615156080909101526125c3565b915060ff8216156116405761163d82612774565b90505b915091565b600754610100900460ff1661166c5760405162461bcd60e51b8152600401610a4590612d80565b6402540be40034146116ab5760405162461bcd60e51b8152602060048201526008602482015267109898181025a62b60c11b6044820152606401610a45565b60018160ff16101580156116c35750601460ff821611155b6116f95760405162461bcd60e51b81526020600482015260076024820152660384220312d32360cc1b6044820152606401610a45565b60005b600560ff82161015611838576001838260ff166005811061171f5761171f612d12565b602002015160ff1610158015611752575060328360ff83166005811061174757611747612d12565b602002015160ff1611155b61178a5760405162461bcd60e51b815260206004820152600960248201526806e756d7320312d35360bc1b6044820152606401610a45565b6000611797826001612cf9565b90505b600560ff8216101561182557838160ff16600581106117bb576117bb612d12565b602002015160ff16848360ff16600581106117d8576117d8612d12565b602002015160ff16036118135760405162461bcd60e51b815260206004820152600360248201526206475760ec1b6044820152606401610a45565b8061181d81612d28565b91505061179a565b508061183081612d28565b9150506116fc565b506000606461184d6402540be4006055612d47565b6118579190612cb8565b9050600061186a826402540be400612ccc565b9050655af3107a4000826004546118819190612e22565b11156118ed5760045461189a90655af3107a4000612ccc565b91506118ab826402540be400612ccc565b90507f9ebe77ef57c4b24da4f1b5881d7d109547fe072871dfb6e7c4d8454c95c0f643655af3107a40006040516118e491815260200190565b60405180910390a15b81600460008282546118ff9190612e22565b9091555050801580159061191d57506001546001600160a01b031615155b1561195e576001546040516001600160a01b039091169082156108fc029083906000818181858888f1935050505015801561195c573d6000803e3d6000fd5b505b6040805160c0810182523381526020810186815260ff86169282019290925242606082015260006080820181905260a0820181905260098054600181018255915281517f6e1540171b6c0c960b71a7020d9f60077f6af931a8bbf590da0223dacf75c7af600580840291820180546001600160a01b0319166001600160a01b039094169390931783559451939492938593611a1c927f6e1540171b6c0c960b71a7020d9f60077f6af931a8bbf590da0223dacf75c7b001919061294a565b5060408281015160028301805460ff191660ff9092169190911790556060830151600383015560808301516004909201805460a09094015161ffff1990941692151561ff0019169290921761010093151593909302929092179055336000908152600a602090815291812080546001810182559082529181209091018290556005805491611aa983612e35565b9190505550336001600160a01b0316817f2c4d767fb254c16f6c6241687eaec37c0a8fd02886810fb0eb4ecd3ce40f5f658888604051611aea929190612e4e565b60405180910390a3505050505050565b6000546001600160a01b03163314611b245760405162461bcd60e51b8152600401610a4590612c6c565b6001546001600160a01b031615611b635760405162461bcd60e51b81526020600482015260036024820152621cd95d60ea1b6044820152606401610a45565b6001600160a01b03821615801590611b8357506001600160a01b03811615155b611b8c57600080fd5b600180546001600160a01b038085166001600160a01b0319928316179092556002805492841692909116919091179055604051600080516020612e9f83398151915290611bda908490612e6c565b60405180910390a1600080516020612e9f83398151915281604051611bff9190612dd6565b60405180910390a15050565b6000611c1561292c565b6000806000806009805490508710611c3f5760405162461bcd60e51b8152600401610a4590612e05565b600060098881548110611c5457611c54612d12565b60009182526020822060059182020180546002820154600383015460048401546040805160a08101918290529598506001600160a01b0390941696600189019660ff94851696939585841695610100909404909316939288928390855b825461010083900a900460ff16815260206001928301818104948501949093039092029101808411611cb1579050505050505094509650965096509650965096505091939550919395565b600a6020528160005260406000208181548110611d1857600080fd5b90600052602060002001600091509150505481565b6000546001600160a01b03163314611d575760405162461bcd60e51b8152600401610a4590612c6c565b6001600160a01b038116611d6a57600080fd5b600180546001600160a01b0319166001600160a01b038316179055604051600080516020612e9f833981519152906110ba908390612e6c565b6000546001600160a01b03163314611dcd5760405162461bcd60e51b8152600401610a4590612c6c565b655af3107a400060045411611e0d5760405162461bcd60e51b8152600401610a45906020808252600490820152630216361760e41b604082015260600190565b6000655af3107a4000600454611e239190612ccc565b655af3107a400060045590508015801590611e4857506002546001600160a01b031615155b15611e87576002546040516001600160a01b039091169082156108fc029083906000818181858888f19350505050158015610b66573d6000803e3d6000fd5b50565b6000546001600160a01b03163314611eb45760405162461bcd60e51b8152600401610a4590612c6c565b6001600160a01b038116611ec757600080fd5b600380546001600160a01b0319166001600160a01b0392909216919091179055565b6000546001600160a01b03163314611f135760405162461bcd60e51b8152600401610a4590612c6c565b6007805461ff001981166101009182900460ff1615909102179055565b6000546001600160a01b03163314611f5a5760405162461bcd60e51b8152600401610a4590612c6c565b600d98909855600e96909655600f94909455601092909255601155601255601355601455601555565b6009548110611fa45760405162461bcd60e51b8152600401610a4590612e05565b600060098281548110611fb957611fb9612d12565b6000918252602090912060059091020180549091506001600160a01b0316331461200e5760405162461bcd60e51b815260206004820152600660248201526521796f75727360d01b6044820152606401610a45565b600481015460ff1661204b5760405162461bcd60e51b8152600401610a459060208082526004908201526310bbb7b760e11b604082015260600190565b6004810154610100900460ff161561208f5760405162461bcd60e51b815260206004820152600760248201526618db185a5b595960ca1b6044820152606401610a45565b6040805160c08101825282546001600160a01b03168152815160a08101928390526001808501805460ff168352600094612126949387936020808701949293600592909184919086018084116115b657505050928452505050600282015460ff90811660208301526003830154604083015260049092015480831615156060830152610100900490911615156080909101526125c3565b9050600061213382612774565b905060008111801561214757506004548111155b61217c5760405162461bcd60e51b8152602060048201526006602482015265217072697a6560d01b6044820152606401610a45565b6004808401805461ff00191661010017905580548291906000906121a1908490612ccc565b9091555050604051339082156108fc029083906000818181858888f193505050501580156121d3573d6000803e3d6000fd5b5060408051338152602081018390527f95681e512bc0fe659e195e06c283eada494316f3d801213e48e7101af92bf770910160405180910390a150505050565b60005b60058160ff161015610b6657600061222f826001612cf9565b90505b60058160ff16101561231357828160ff166005811061225357612253612d12565b602002015160ff16838360ff166005811061227057612270612d12565b602002015160ff161115612301576000838360ff166005811061229557612295612d12565b60200201519050838260ff16600581106122b1576122b1612d12565b6020020151848460ff16600581106122cb576122cb612d12565b602002019060ff16908160ff168152505080848360ff16600581106122f2576122f2612d12565b60ff9092166020929092020152505b8061230b81612d28565b915050612232565b508061231e81612d28565b915050612216565b600080805b6009548110156125bd576009818154811061234857612348612d12565b906000526020600020906005020160040160019054906101000a900460ff166125ab5760006123836009838154811061157057611570612d12565b905060ff8116156125a957600061239982612774565b90506000811180156123ad57506004548111155b156125a7576001600984815481106123c7576123c7612d12565b906000526020600020906005020160040160006101000a81548160ff02191690831515021790555060016009848154811061240457612404612d12565b906000526020600020906005020160040160016101000a81548160ff021916908315150217905550806004600082825461243e9190612ccc565b9091555084905061244e81612e35565b9450506009838154811061246457612464612d12565b600091825260208220600590910201546040516001600160a01b039091169183156108fc02918491818181858888f193505050501580156124a9573d6000803e3d6000fd5b5060006124b583612858565b90506000811180156124d157506003546001600160a01b031615155b1561252d578060086000600987815481106124ee576124ee612d12565b600091825260208083206005909202909101546001600160a01b0316835282019290925260400181208054909190612527908490612e22565b90915550505b7f0e53871c02df76033909299b24b6c5050eb30b7ba0a7736dd72375c1fe844ebe6009858154811061256157612561612d12565b60009182526020918290206005919091020154604080516001600160a01b03909216825291810187905260ff8616818301526060810185905290519081900360800190a1505b505b505b806125b581612e35565b91505061232b565b50919050565b600080805b600560ff8216101561266f5760005b600560ff8216101561265c57600b8160ff16600581106125f9576125f9612d12565b602091828204019190069054906101000a900460ff1660ff1685602001518360ff166005811061262b5761262b612d12565b602002015160ff160361264a578261264281612d28565b93505061265c565b8061265481612d28565b9150506125d7565b508061266781612d28565b9150506125c8565b50600c54604084015160ff9182169082161490821660051480156126905750805b1561269f575060019392505050565b8160ff166005036126b4575060029392505050565b8160ff1660041480156126c45750805b156126d3575060039392505050565b8160ff166004036126e8575060049392505050565b8160ff1660031480156126f85750805b15612707575060059392505050565b8160ff1660030361271c575060069392505050565b8160ff16600214801561272c5750805b1561273b575060079392505050565b8160ff16600114801561274b5750805b1561275a575060089392505050565b801561276a575060099392505050565b5060009392505050565b6000808260ff1660010361278b5750610fa0612832565b8260ff1660020361279f57506105dc612832565b8260ff166003036127b35750610320612832565b8260ff166004036127c757506101f4612832565b8260ff166005036127db5750610258612832565b8260ff166006036127ef57506101c2612832565b8260ff16600703612803575061012c612832565b8260ff1660080361281657506096612832565b8260ff166009036128295750607d612832565b50600092915050565b6127108161ffff166004546128479190612d47565b6128519190612cb8565b9392505050565b60008160ff1660010361286d575050600d5490565b8160ff16600203612880575050600e5490565b8160ff16600303612893575050600f5490565b8160ff166004036128a657505060105490565b8160ff166005036128b957505060115490565b8160ff166006036128cc57505060125490565b8160ff166007036128df57505060135490565b8160ff166008036128f257505060145490565b8160ff1660090361290557505060155490565b506000919050565b6040518061066001604052806033906020820280368337509192915050565b6040518060a001604052806005906020820280368337509192915050565b6001830191839082156129cd5791602002820160005b8382111561299e57835183826101000a81548160ff021916908360ff1602179055509260200192600101602081600001049283019260010302612960565b80156129cb5782816101000a81549060ff021916905560010160208160000104928301926001030261299e565b505b506129d99291506129dd565b5090565b5b808211156129d957600081556001016129de565b600060208284031215612a0457600080fd5b5035919050565b80356001600160a01b0381168114612a2257600080fd5b919050565b600060208284031215612a3957600080fd5b61285182612a0b565b6020808252825182820181905260009190848201906040850190845b81811015612a7a57835183529284019291840191600101612a5e565b50909695505050505050565b634e487b7160e01b600052604160045260246000fd5b803560ff81168114612a2257600080fd5b60008060c08385031215612ac057600080fd5b83601f840112612acf57600080fd5b60405160a0810181811067ffffffffffffffff82111715612af257612af2612a86565b6040528060a0850186811115612b0757600080fd5b855b81811015612b2857612b1a81612a9c565b835260209283019201612b09565b50829450612b3581612a9c565b93505050509250929050565b60008060408385031215612b5457600080fd5b612b5d83612a0b565b9150612b6b60208401612a0b565b90509250929050565b8060005b600581101561127b57815160ff16845260209384019390910190600101612b78565b6001600160a01b03871681526101408101612bb86020830188612b74565b60ff9590951660c082015260e081019390935290151561010083015215156101209091015292915050565b60008060408385031215612bf657600080fd5b612bff83612a0b565b946020939093013593505050565b60008060008060008060008060006101208a8c031215612c2c57600080fd5b505087359960208901359950604089013598606081013598506080810135975060a0810135965060c0810135955060e08101359450610100013592509050565b60208082526006908201526510b7bbb732b960d11b604082015260600190565b634e487b7160e01b600052601260045260246000fd5b634e487b7160e01b600052601160045260246000fd5b600082612cc757612cc7612c8c565b500490565b81810381811115612cdf57612cdf612ca2565b92915050565b600082612cf457612cf4612c8c565b500690565b60ff8181168382160190811115612cdf57612cdf612ca2565b634e487b7160e01b600052603260045260246000fd5b600060ff821660ff8103612d3e57612d3e612ca2565b60010192915050565b8082028115828204841417612cdf57612cdf612ca2565b600060208284031215612d7057600080fd5b8151801515811461285157600080fd5b6020808252600790820152662161637469766560c81b604082015260600190565b92835260609190911b6bffffffffffffffffffffffff1916602083015260f81b6001600160f81b031916603482015260350190565b604080825260049082015263141bdbdb60e21b60608201526001600160a01b0391909116602082015260800190565b602080825260039082015262085a5960ea1b604082015260600190565b80820180821115612cdf57612cdf612ca2565b600060018201612e4757612e47612ca2565b5060010190565b60c08101612e5c8285612b74565b60ff831660a08301529392505050565b604080825260079082015266141c9bda9958dd60ca1b60608201526001600160a01b039190911660208201526080019056fe6ff3a4003b90be84595beb5f6acb9d54f88bd3e6dd4887ca67e53dc9645465eaa264697066735822122084b63fddae286a90a615e1dfd5377b7e5af2cd869431ec4dbb262daa1d2fa03b64736f6c63430008140033",
  "linkReferences": {},
  "deployedLinkReferences": {}
}